{
  "contractName": "test",
  "abi": [
    {
      "inputs": [
        {
          "internalType": "string",
          "name": "_message",
          "type": "string"
        }
      ],
      "stateMutability": "nonpayable",
      "type": "constructor"
    },
    {
      "inputs": [],
      "name": "getNumber",
      "outputs": [
        {
          "internalType": "uint256",
          "name": "",
          "type": "uint256"
        }
      ],
      "stateMutability": "pure",
      "type": "function"
    },
    {
      "inputs": [],
      "name": "message",
      "outputs": [
        {
          "internalType": "string",
          "name": "",
          "type": "string"
        }
      ],
      "stateMutability": "view",
      "type": "function"
    }
  ],
  "bytecode": "0x608060405234801561001057600080fd5b50d3801561001d57600080fd5b50d2801561002a57600080fd5b50604051610401380380610401833981016040819052610049916100fc565b805161005c906000906020840190610063565b505061021c565b82805461006f906101cb565b90600052602060002090601f01602090048101928261009157600085556100d7565b82601f106100aa57805160ff19168380011785556100d7565b828001600101855582156100d7579182015b828111156100d75782518255916020019190600101906100bc565b506100e39291506100e7565b5090565b5b808211156100e357600081556001016100e8565b6000602080838503121561010f57600080fd5b82516001600160401b038082111561012657600080fd5b818501915085601f83011261013a57600080fd5b81518181111561014c5761014c610206565b604051601f8201601f19908116603f0116810190838211818310171561017457610174610206565b81604052828152888684870101111561018c57600080fd5b600093505b828410156101ae5784840186015181850187015292850192610191565b828411156101bf5760008684830101525b98975050505050505050565b600181811c908216806101df57607f821691505b6020821081141561020057634e487b7160e01b600052602260045260246000fd5b50919050565b634e487b7160e01b600052604160045260246000fd5b6101d68061022b6000396000f3fe608060405234801561001057600080fd5b50d3801561001d57600080fd5b50d2801561002a57600080fd5b50600436106100505760003560e01c8063e21f37ce14610055578063f2c9ecd814610073575b600080fd5b61005d610082565b60405161006a9190610110565b60405180910390f35b6040516005815260200161006a565b6000805461008f90610165565b80601f01602080910402602001604051908101604052809291908181526020018280546100bb90610165565b80156101085780601f106100dd57610100808354040283529160200191610108565b820191906000526020600020905b8154815290600101906020018083116100eb57829003601f168201915b505050505081565b600060208083528351808285015260005b8181101561013d57858101830151858201604001528201610121565b8181111561014f576000604083870101525b50601f01601f1916929092016040019392505050565b600181811c9082168061017957607f821691505b6020821081141561019a57634e487b7160e01b600052602260045260246000fd5b5091905056fea26474726f6e58221220b3ddda2e1c727a21a25a1e3854bc978723e774b3ffbb3897eda3a94e4b70de8764736f6c63430008060033",
  "source": "pragma solidity ^0.8.0;\r\n\r\nimport \"./in.sol\";\r\n\r\ncontract test is inC {\r\n    string public message;\r\n\r\n    constructor(string memory _message) {\r\n        message = _message;\r\n    }\r\n}\r\n",
  "sourcePath": "C:/Users/emanu/space-pirates-tronbox/contracts/test.sol",
  "compiler": {
    "name": "solc",
    "version": "0.8.6+commit.0e36fba0.mod.Emscripten.clang"
  },
  "schemaVersion": "2.0.1",
  "updatedAt": "2022-07-24T10:47:29.118Z"
}