{
  "contractName": "AsteroidsSplitContract",
  "abi": [
    {
      "inputs": [
        {
          "internalType": "contract SpacePiratesTokens",
          "name": "_tokenContract",
          "type": "address"
        }
      ],
      "stateMutability": "nonpayable",
      "type": "constructor"
    },
    {
      "anonymous": false,
      "inputs": [
        {
          "indexed": true,
          "internalType": "address",
          "name": "sender",
          "type": "address"
        },
        {
          "indexed": false,
          "internalType": "uint256",
          "name": "amount",
          "type": "uint256"
        }
      ],
      "name": "MergeAsteroids",
      "type": "event"
    },
    {
      "anonymous": false,
      "inputs": [
        {
          "indexed": true,
          "internalType": "address",
          "name": "sender",
          "type": "address"
        },
        {
          "indexed": false,
          "internalType": "uint256",
          "name": "amount",
          "type": "uint256"
        }
      ],
      "name": "SplitAsteroids",
      "type": "event"
    },
    {
      "inputs": [],
      "name": "ASTEROIDS",
      "outputs": [
        {
          "internalType": "uint256",
          "name": "",
          "type": "uint256"
        }
      ],
      "stateMutability": "view",
      "type": "function"
    },
    {
      "inputs": [],
      "name": "STK_ASTEROIDS",
      "outputs": [
        {
          "internalType": "uint256",
          "name": "",
          "type": "uint256"
        }
      ],
      "stateMutability": "view",
      "type": "function"
    },
    {
      "inputs": [],
      "name": "VE_ASTEROIDS",
      "outputs": [
        {
          "internalType": "uint256",
          "name": "",
          "type": "uint256"
        }
      ],
      "stateMutability": "view",
      "type": "function"
    },
    {
      "inputs": [
        {
          "internalType": "uint256",
          "name": "amount",
          "type": "uint256"
        }
      ],
      "name": "mergeAsteroids",
      "outputs": [],
      "stateMutability": "nonpayable",
      "type": "function"
    },
    {
      "inputs": [
        {
          "internalType": "uint256",
          "name": "amount",
          "type": "uint256"
        }
      ],
      "name": "splitAsteroids",
      "outputs": [],
      "stateMutability": "nonpayable",
      "type": "function"
    },
    {
      "inputs": [],
      "name": "tokenContract",
      "outputs": [
        {
          "internalType": "contract SpacePiratesTokens",
          "name": "",
          "type": "address"
        }
      ],
      "stateMutability": "view",
      "type": "function"
    }
  ],
  "bytecode": "0x60a060405234801561001057600080fd5b50d3801561001d57600080fd5b50d2801561002a57600080fd5b506040516105d33803806105d38339810160408190526100499161005e565b60601b6001600160601b031916608052610097565b60006020828403121561007057600080fd5b81516001600160a81b038116811461008757600080fd5b6001600160a01b03169392505050565b60805160601c6105036100d06000396000818160a9015281816101360152818161019c0152818161026b015261032001526105036000f3fe608060405234801561001057600080fd5b50d3801561001d57600080fd5b50d2801561002a57600080fd5b506004361061007c5760003560e01c806331e61ea6146100815780633c71cfa21461009c57806355a373d6146100a45780636712627d146100e3578063b2b9f032146100eb578063ce19e83414610100575b600080fd5b610089600381565b6040519081526020015b60405180910390f35b610089600481565b6100cb7f000000000000000000000000000000000000000000000000000000000000000081565b6040516001600160a01b039091168152602001610093565b610089600281565b6100fe6100f9366004610423565b610113565b005b6100fe61010e366004610423565b610269565b604051637a94c56560e11b815233600482015260026024820152604481018290527f00000000000000000000000000000000000000000000000000000000000000006001600160a01b03169063f5298aca90606401600060405180830381600087803b15801561018257600080fd5b505af1158015610196573d6000803e3d6000fd5b505050507f00000000000000000000000000000000000000000000000000000000000000006001600160a01b031663d81d0a15336101d6600360046103b8565b6101e085866103b8565b6040518463ffffffff1660e01b81526004016101fe93929190610477565b600060405180830381600087803b15801561021857600080fd5b505af115801561022c573d6000803e3d6000fd5b50506040518381523392507fef87d5252d5343fa340e6a89d6700b1ce725aa12b7eb3a09356fb6ba7f47ea5091506020015b60405180910390a250565b7f00000000000000000000000000000000000000000000000000000000000000006001600160a01b0316636b20c454336102a5600360046103b8565b6102af85866103b8565b6040518463ffffffff1660e01b81526004016102cd93929190610477565b600060405180830381600087803b1580156102e757600080fd5b505af11580156102fb573d6000803e3d6000fd5b5050604051630ab714fb60e11b815233600482015260026024820152604481018490527f00000000000000000000000000000000000000000000000000000000000000006001600160a01b0316925063156e29f69150606401600060405180830381600087803b15801561036e57600080fd5b505af1158015610382573d6000803e3d6000fd5b50506040518381523392507f8e045e0d309a4c5a99463814b0e3b1dafd3d35a7516dae9177da549961c4adf2915060200161025e565b6040805160028082526060808301845292600092919060208301908036833701905050905083816000815181106103f1576103f16104b7565b6020026020010181815250508281600181518110610411576104116104b7565b60209081029190910101529392505050565b60006020828403121561043557600080fd5b5035919050565b600081518084526020808501945080840160005b8381101561046c57815187529582019590820190600101610450565b509495945050505050565b6001600160a01b038416815260606020820181905260009061049b9083018561043c565b82810360408401526104ad818561043c565b9695505050505050565b634e487b7160e01b600052603260045260246000fdfea26474726f6e5822122007589b948234a44cd34b2c3fc8c6d25cce30a85bc8a071ff6b970d5becf9176364736f6c63430008060033",
  "source": "// SPDX-License-Identifier: MIT\r\npragma solidity ^0.8.0;\r\n\r\nimport \"./SpacePiratesTokens.sol\";\r\nimport \"./libraries/Array.sol\";\r\n\r\n/**\r\n * @title Asteroids Split Contract\r\n * @author @Gr3it, @yuripaoloni (reviewer), @MatteoLeonesi (reviewer)\r\n * @notice Split Asteroids tokens in their underlying tokens and vice versa\r\n */\r\n\r\ncontract AsteroidsSplitContract {\r\n    uint256 public constant ASTEROIDS = 2;\r\n    uint256 public constant VE_ASTEROIDS = 3;\r\n    uint256 public constant STK_ASTEROIDS = 4;\r\n\r\n    SpacePiratesTokens public immutable tokenContract;\r\n\r\n    event SplitAsteroids(address indexed sender, uint256 amount);\r\n    event MergeAsteroids(address indexed sender, uint256 amount);\r\n\r\n    constructor(SpacePiratesTokens _tokenContract) {\r\n        tokenContract = _tokenContract;\r\n    }\r\n\r\n    function splitAsteroids(uint256 amount) public {\r\n        tokenContract.burn(msg.sender, ASTEROIDS, amount);\r\n        tokenContract.mintBatch(\r\n            msg.sender,\r\n            Array.getArrayPair(VE_ASTEROIDS, STK_ASTEROIDS),\r\n            Array.getArrayPair(amount, amount)\r\n        );\r\n\r\n        emit SplitAsteroids(msg.sender, amount);\r\n    }\r\n\r\n    function mergeAsteroids(uint256 amount) public {\r\n        tokenContract.burnBatch(\r\n            msg.sender,\r\n            Array.getArrayPair(VE_ASTEROIDS, STK_ASTEROIDS),\r\n            Array.getArrayPair(amount, amount)\r\n        );\r\n        tokenContract.mint(msg.sender, ASTEROIDS, amount);\r\n\r\n        emit MergeAsteroids(msg.sender, amount);\r\n    }\r\n}\r\n",
  "sourcePath": "C:/Users/emanu/space-pirates-contracts/contracts/AsteroidsSplitContract.sol",
  "compiler": {
    "name": "solc",
    "version": "0.8.6+commit.0e36fba0.mod.Emscripten.clang"
  },
  "schemaVersion": "2.0.1",
  "updatedAt": "2022-07-23T23:58:53.743Z"
}