{
  "contractName": "BattleFieldFirstCollection",
  "abi": [
    {
      "inputs": [
        {
          "internalType": "contract SpacePiratesTokens",
          "name": "_tokenContract",
          "type": "address"
        },
        {
          "internalType": "uint256",
          "name": "_startTime",
          "type": "uint256"
        },
        {
          "internalType": "uint256",
          "name": "_duration",
          "type": "uint256"
        }
      ],
      "stateMutability": "nonpayable",
      "type": "constructor"
    },
    {
      "anonymous": false,
      "inputs": [
        {
          "indexed": true,
          "internalType": "address",
          "name": "user",
          "type": "address"
        },
        {
          "indexed": false,
          "internalType": "uint256",
          "name": "id",
          "type": "uint256"
        }
      ],
      "name": "Mint",
      "type": "event"
    },
    {
      "inputs": [],
      "name": "MAX_MINT_PER_ADDRESS",
      "outputs": [
        {
          "internalType": "uint256",
          "name": "",
          "type": "uint256"
        }
      ],
      "stateMutability": "view",
      "type": "function"
    },
    {
      "inputs": [],
      "name": "MAX_SUPPLY",
      "outputs": [
        {
          "internalType": "uint256",
          "name": "",
          "type": "uint256"
        }
      ],
      "stateMutability": "view",
      "type": "function"
    },
    {
      "inputs": [],
      "name": "PAYING_ID",
      "outputs": [
        {
          "internalType": "uint256",
          "name": "",
          "type": "uint256"
        }
      ],
      "stateMutability": "view",
      "type": "function"
    },
    {
      "inputs": [],
      "name": "PRICE",
      "outputs": [
        {
          "internalType": "uint256",
          "name": "",
          "type": "uint256"
        }
      ],
      "stateMutability": "view",
      "type": "function"
    },
    {
      "inputs": [],
      "name": "duration",
      "outputs": [
        {
          "internalType": "uint256",
          "name": "",
          "type": "uint256"
        }
      ],
      "stateMutability": "view",
      "type": "function"
    },
    {
      "inputs": [
        {
          "internalType": "uint256",
          "name": "_quantity",
          "type": "uint256"
        }
      ],
      "name": "mint",
      "outputs": [],
      "stateMutability": "nonpayable",
      "type": "function"
    },
    {
      "inputs": [],
      "name": "mintId",
      "outputs": [
        {
          "internalType": "uint256",
          "name": "",
          "type": "uint256"
        }
      ],
      "stateMutability": "view",
      "type": "function"
    },
    {
      "inputs": [
        {
          "internalType": "address",
          "name": "",
          "type": "address"
        }
      ],
      "name": "nbOfBFsMintedBy",
      "outputs": [
        {
          "internalType": "uint256",
          "name": "",
          "type": "uint256"
        }
      ],
      "stateMutability": "view",
      "type": "function"
    },
    {
      "inputs": [],
      "name": "startTime",
      "outputs": [
        {
          "internalType": "uint256",
          "name": "",
          "type": "uint256"
        }
      ],
      "stateMutability": "view",
      "type": "function"
    },
    {
      "inputs": [],
      "name": "tokenContract",
      "outputs": [
        {
          "internalType": "contract SpacePiratesTokens",
          "name": "",
          "type": "address"
        }
      ],
      "stateMutability": "view",
      "type": "function"
    },
    {
      "inputs": [],
      "name": "totalSupply",
      "outputs": [
        {
          "internalType": "uint256",
          "name": "",
          "type": "uint256"
        }
      ],
      "stateMutability": "view",
      "type": "function"
    }
  ],
  "bytecode": "0x60e06040526201869f60005534801561001757600080fd5b50d3801561002457600080fd5b50d2801561003157600080fd5b506040516108eb3803806108eb8339810160408190526100509161006e565b60609290921b6001600160601b03191660805260a05260c0526100bc565b60008060006060848603121561008357600080fd5b83516001600160a81b038116811461009a57600080fd5b60208501516040909501516001600160a01b0391909116969495509392505050565b60805160601c60a05160c0516107db6101106000396000818160cd01526102b80152600081816101860152818161023e01526102d9015260008181610147015281816104f201526105c001526107db6000f3fe608060405234801561001057600080fd5b50d3801561001d57600080fd5b50d2801561002a57600080fd5b50600436106100c35760003560e01c80634b4d36ce1161008b5780634b4d36ce1461012257806355a373d61461014257806378e97925146101815780638d859f3e146101a8578063a0712d68146101b2578063fe90e5bc146101c757600080fd5b80630fb5a6b4146100c857806318160ddd14610102578063295c526f1461010a57806332cb6b0c146101125780633acd6cb21461011a575b600080fd5b6100ef7f000000000000000000000000000000000000000000000000000000000000000081565b6040519081526020015b60405180910390f35b6100ef6101d0565b6100ef600181565b6100ef606481565b6100ef600281565b6100ef6101303660046106b4565b60016020526000908152604090205481565b6101697f000000000000000000000000000000000000000000000000000000000000000081565b6040516001600160a01b0390911681526020016100f9565b6100ef7f000000000000000000000000000000000000000000000000000000000000000081565b6100ef620186a081565b6101c56101c03660046106ed565b6101e8565b005b6100ef60005481565b60006201869f6000546101e3919061073d565b905090565b32331461023c5760405162461bcd60e51b815260206004820152601e60248201527f5468652063616c6c657220697320616e6f7468657220636f6e7472616374000060448201526064015b60405180910390fd5b7f00000000000000000000000000000000000000000000000000000000000000004210156102b35760405162461bcd60e51b8152602060048201526030602482015260008051602061078683398151915260448201526f081b9bdd081cdd185c9d1959081e595d60821b6064820152608401610233565b6102fd7f00000000000000000000000000000000000000000000000000000000000000007f0000000000000000000000000000000000000000000000000000000000000000610706565b4211156103515760405162461bcd60e51b815260206004820152602e602482015260008051602061078683398151915260448201526d08185b1c9958591e48195b99195960921b6064820152608401610233565b6064816201869f600054610365919061073d565b61036f9190610706565b11156103d15760405162461bcd60e51b815260206004820152603c602482015260008051602061078683398151915260448201527f207175616e746974792065786365656473206d617820737570706c79000000006064820152608401610233565b336000908152600160205260409020546002906103ef908390610706565b11156104665760405162461bcd60e51b815260206004820152604c602482015260008051602061078683398151915260448201527f207175616e74697479206578636565647320616c6c6f77616e636520666f722060648201526b74686973206164647265737360a01b608482015260a401610233565b600081116104dc5760405162461bcd60e51b815260206004820152603760248201527f426174746c654669656c644669727374436f6c6c656374696f6e3a206e65656460448201527f20746f206d696e74206174206c656173742031204e46540000000000000000006064820152608401610233565b6104e5816104e8565b50565b6001600160a01b037f00000000000000000000000000000000000000000000000000000000000000001663f5298aca336001610527620186a08661071e565b6040516001600160e01b031960e086901b1681526001600160a01b03909316600484015260248301919091526044820152606401600060405180830381600087803b15801561057557600080fd5b505af1158015610589573d6000803e3d6000fd5b505033600090815260016020526040812080548594509092506105ad908490610706565b90915550600090505b818110156106b0577f00000000000000000000000000000000000000000000000000000000000000006001600160a01b031663156e29f63360008081546105fc90610754565b91829055506040516001600160e01b031960e085901b1681526001600160a01b039092166004830152602482015260016044820152606401600060405180830381600087803b15801561064e57600080fd5b505af1158015610662573d6000803e3d6000fd5b50506000546040519081523392507f0f6798a560793a54c3bcfe86a93cde1e73087d944c0ea20544137d4121396885915060200160405180910390a2806106a881610754565b9150506105b6565b5050565b6000602082840312156106c657600080fd5b81356001600160a81b03811681146106dd57600080fd5b6001600160a01b03169392505050565b6000602082840312156106ff57600080fd5b5035919050565b600082198211156107195761071961076f565b500190565b60008160001904831182151516156107385761073861076f565b500290565b60008282101561074f5761074f61076f565b500390565b60006000198214156107685761076861076f565b5060010190565b634e487b7160e01b600052601160045260246000fdfe426174746c654669656c644669727374436f6c6c656374696f6e3a206d696e74a26474726f6e582212202ebe42b72151e363fc2a709e64467bb2ba4f78509c0fd1d6edaf7f1e7804cccd64736f6c63430008060033",
  "source": "// SPDX-License-Identifier: unlicense\r\npragma solidity ^0.8.0;\r\n\r\nimport \"./SpacePiratesTokens.sol\";\r\n\r\n/**\r\n * @title Inaugural first battle field collection\r\n * @author @Gr3it, @yuripaoloni (reviewer)\r\n * @notice Implement the logic to mint the first collection of battlefield (only estetic, no perks)\r\n */\r\n\r\ncontract BattleFieldFirstCollection {\r\n    SpacePiratesTokens public immutable tokenContract;\r\n\r\n    uint256 public constant MAX_SUPPLY = 100;\r\n    uint256 public constant MAX_MINT_PER_ADDRESS = 2;\r\n    uint256 public constant PAYING_ID = 1;\r\n    uint256 public constant PRICE = 100_000;\r\n\r\n    uint256 public immutable startTime;\r\n    uint256 public immutable duration;\r\n\r\n    uint256 public mintId = 99_999;\r\n\r\n    mapping(address => uint256) public nbOfBFsMintedBy;\r\n\r\n    event Mint(address indexed user, uint256 id);\r\n\r\n    constructor(\r\n        SpacePiratesTokens _tokenContract,\r\n        uint256 _startTime,\r\n        uint256 _duration\r\n    ) {\r\n        tokenContract = _tokenContract;\r\n        startTime = _startTime;\r\n        duration = _duration;\r\n    }\r\n\r\n    modifier callerIsUser() {\r\n        require(tx.origin == msg.sender, \"The caller is another contract\");\r\n        _;\r\n    }\r\n\r\n    function totalSupply() public view returns (uint256) {\r\n        return mintId - 99_999;\r\n    }\r\n\r\n    function mint(uint256 _quantity) external callerIsUser {\r\n        require(\r\n            block.timestamp >= startTime,\r\n            \"BattleFieldFirstCollection: mint not started yet\"\r\n        );\r\n        require(\r\n            block.timestamp <= startTime + duration,\r\n            \"BattleFieldFirstCollection: mint already ended\"\r\n        );\r\n        require(\r\n            mintId - 99_999 + _quantity <= MAX_SUPPLY,\r\n            \"BattleFieldFirstCollection: mint quantity exceeds max supply\"\r\n        );\r\n        require(\r\n            nbOfBFsMintedBy[msg.sender] + _quantity <= MAX_MINT_PER_ADDRESS,\r\n            \"BattleFieldFirstCollection: mint quantity exceeds allowance for this address\"\r\n        );\r\n        require(\r\n            _quantity > 0,\r\n            \"BattleFieldFirstCollection: need to mint at least 1 NFT\"\r\n        );\r\n        _mintQuantity(_quantity);\r\n    }\r\n\r\n    function _mintQuantity(uint256 _quantity) internal {\r\n        tokenContract.burn(msg.sender, PAYING_ID, _quantity * PRICE);\r\n        nbOfBFsMintedBy[msg.sender] += _quantity;\r\n        for (uint256 i = 0; i < _quantity; i++) {\r\n            tokenContract.mint(msg.sender, ++mintId, 1);\r\n            emit Mint(msg.sender, mintId);\r\n        }\r\n    }\r\n}\r\n",
  "sourcePath": "C:/Users/emanu/space-pirates-contracts/contracts/BattleFieldFirstCollection.sol",
  "compiler": {
    "name": "solc",
    "version": "0.8.6+commit.0e36fba0.mod.Emscripten.clang"
  },
  "schemaVersion": "2.0.1",
  "updatedAt": "2022-07-23T23:58:53.743Z"
}