{
  "contractName": "ERC1155Holder",
  "abi": [
    {
      "inputs": [
        {
          "internalType": "address",
          "name": "",
          "type": "address"
        },
        {
          "internalType": "address",
          "name": "",
          "type": "address"
        },
        {
          "internalType": "uint256[]",
          "name": "",
          "type": "uint256[]"
        },
        {
          "internalType": "uint256[]",
          "name": "",
          "type": "uint256[]"
        },
        {
          "internalType": "bytes",
          "name": "",
          "type": "bytes"
        }
      ],
      "name": "onERC1155BatchReceived",
      "outputs": [
        {
          "internalType": "bytes4",
          "name": "",
          "type": "bytes4"
        }
      ],
      "stateMutability": "nonpayable",
      "type": "function"
    },
    {
      "inputs": [
        {
          "internalType": "address",
          "name": "",
          "type": "address"
        },
        {
          "internalType": "address",
          "name": "",
          "type": "address"
        },
        {
          "internalType": "uint256",
          "name": "",
          "type": "uint256"
        },
        {
          "internalType": "uint256",
          "name": "",
          "type": "uint256"
        },
        {
          "internalType": "bytes",
          "name": "",
          "type": "bytes"
        }
      ],
      "name": "onERC1155Received",
      "outputs": [
        {
          "internalType": "bytes4",
          "name": "",
          "type": "bytes4"
        }
      ],
      "stateMutability": "nonpayable",
      "type": "function"
    },
    {
      "inputs": [
        {
          "internalType": "bytes4",
          "name": "interfaceId",
          "type": "bytes4"
        }
      ],
      "name": "supportsInterface",
      "outputs": [
        {
          "internalType": "bool",
          "name": "",
          "type": "bool"
        }
      ],
      "stateMutability": "view",
      "type": "function"
    }
  ],
  "bytecode": "0x608060405234801561001057600080fd5b50d3801561001d57600080fd5b50d2801561002a57600080fd5b506103f18061003a6000396000f3fe608060405234801561001057600080fd5b50d3801561001d57600080fd5b50d2801561002a57600080fd5b506004361061005b5760003560e01c806301ffc9a714610060578063bc197c8114610088578063f23a6e61146100c0575b600080fd5b61007361006e366004610343565b6100df565b60405190151581526020015b60405180910390f35b6100a7610096366004610234565b63bc197c8160e01b95945050505050565b6040516001600160e01b0319909116815260200161007f565b6100a76100ce3660046102de565b63f23a6e6160e01b95945050505050565b60006001600160e01b03198216630271189760e51b148061011057506301ffc9a760e01b6001600160e01b03198316145b92915050565b600081356001600160a81b038116811461012f57600080fd5b6001600160a01b031692915050565b600082601f83011261014f57600080fd5b8135602067ffffffffffffffff82111561016b5761016b6103a5565b8160051b61017a828201610374565b83815282810190868401838801850189101561019557600080fd5b600093505b858410156101b857803583526001939093019291840191840161019a565b50979650505050505050565b600082601f8301126101d557600080fd5b813567ffffffffffffffff8111156101ef576101ef6103a5565b610202601f8201601f1916602001610374565b81815284602083860101111561021757600080fd5b816020850160208301376000918101602001919091529392505050565b600080600080600060a0868803121561024c57600080fd5b61025586610116565b945061026360208701610116565b9350604086013567ffffffffffffffff8082111561028057600080fd5b61028c89838a0161013e565b945060608801359150808211156102a257600080fd5b6102ae89838a0161013e565b935060808801359150808211156102c457600080fd5b506102d1888289016101c4565b9150509295509295909350565b600080600080600060a086880312156102f657600080fd5b6102ff86610116565b945061030d60208701610116565b93506040860135925060608601359150608086013567ffffffffffffffff81111561033757600080fd5b6102d1888289016101c4565b60006020828403121561035557600080fd5b81356001600160e01b03198116811461036d57600080fd5b9392505050565b604051601f8201601f1916810167ffffffffffffffff8111828210171561039d5761039d6103a5565b604052919050565b634e487b7160e01b600052604160045260246000fdfea26474726f6e5822122039b666a5b4d909d03cac5a4b75b46b481604857d48d9fd866bd890d5e1f8a7d664736f6c63430008060033",
  "source": "// SPDX-License-Identifier: MIT\n// OpenZeppelin Contracts (last updated v4.5.0) (token/ERC1155/utils/ERC1155Holder.sol)\n\npragma solidity ^0.8.0;\n\nimport \"./ERC1155Receiver.sol\";\n\n/**\n * Simple implementation of `ERC1155Receiver` that will allow a contract to hold ERC1155 tokens.\n *\n * IMPORTANT: When inheriting this contract, you must include a way to use the received tokens, otherwise they will be\n * stuck.\n *\n * @dev _Available since v3.1._\n */\ncontract ERC1155Holder is ERC1155Receiver {\n    function onERC1155Received(\n        address,\n        address,\n        uint256,\n        uint256,\n        bytes memory\n    ) public virtual override returns (bytes4) {\n        return this.onERC1155Received.selector;\n    }\n\n    function onERC1155BatchReceived(\n        address,\n        address,\n        uint256[] memory,\n        uint256[] memory,\n        bytes memory\n    ) public virtual override returns (bytes4) {\n        return this.onERC1155BatchReceived.selector;\n    }\n}\n",
  "sourcePath": "@openzeppelin/contracts/token/ERC1155/utils/ERC1155Holder.sol",
  "compiler": {
    "name": "solc",
    "version": "0.8.6+commit.0e36fba0.mod.Emscripten.clang"
  },
  "schemaVersion": "2.0.1",
  "updatedAt": "2022-07-23T23:58:53.843Z"
}