{
  "contractName": "HelperRoleContract",
  "abi": [
    {
      "inputs": [
        {
          "internalType": "uint256",
          "name": "id",
          "type": "uint256"
        }
      ],
      "name": "getBurnRoleBytes",
      "outputs": [
        {
          "internalType": "bytes32",
          "name": "",
          "type": "bytes32"
        }
      ],
      "stateMutability": "pure",
      "type": "function"
    },
    {
      "inputs": [
        {
          "internalType": "uint256",
          "name": "id",
          "type": "uint256"
        }
      ],
      "name": "getMintRoleBytes",
      "outputs": [
        {
          "internalType": "bytes32",
          "name": "",
          "type": "bytes32"
        }
      ],
      "stateMutability": "pure",
      "type": "function"
    },
    {
      "inputs": [
        {
          "internalType": "uint256[]",
          "name": "ids",
          "type": "uint256[]"
        }
      ],
      "name": "getMultiBurnRoleBytes",
      "outputs": [
        {
          "internalType": "bytes32[]",
          "name": "",
          "type": "bytes32[]"
        }
      ],
      "stateMutability": "pure",
      "type": "function"
    },
    {
      "inputs": [
        {
          "internalType": "uint256[]",
          "name": "ids",
          "type": "uint256[]"
        }
      ],
      "name": "getMultiMintRoleBytes",
      "outputs": [
        {
          "internalType": "bytes32[]",
          "name": "",
          "type": "bytes32[]"
        }
      ],
      "stateMutability": "pure",
      "type": "function"
    },
    {
      "inputs": [
        {
          "internalType": "uint256",
          "name": "from",
          "type": "uint256"
        },
        {
          "internalType": "uint256",
          "name": "to",
          "type": "uint256"
        }
      ],
      "name": "getRangeBurnRoleBytes",
      "outputs": [
        {
          "internalType": "bytes32[]",
          "name": "",
          "type": "bytes32[]"
        }
      ],
      "stateMutability": "pure",
      "type": "function"
    },
    {
      "inputs": [
        {
          "internalType": "uint256",
          "name": "from",
          "type": "uint256"
        },
        {
          "internalType": "uint256",
          "name": "to",
          "type": "uint256"
        }
      ],
      "name": "getRangeMintRoleBytes",
      "outputs": [
        {
          "internalType": "bytes32[]",
          "name": "",
          "type": "bytes32[]"
        }
      ],
      "stateMutability": "pure",
      "type": "function"
    }
  ],
  "bytecode": "0x608060405234801561001057600080fd5b50d3801561001d57600080fd5b50d2801561002a57600080fd5b506106878061003a6000396000f3fe608060405234801561001057600080fd5b50d3801561001d57600080fd5b50d2801561002a57600080fd5b506004361061007c5760003560e01c806338e57a3e14610081578063492b7ed7146100a7578063575cc565146100c7578063a62812ff146100da578063d240a584146100ed578063d6fb8d0d14610100575b600080fd5b61009461008f3660046104e9565b610113565b6040519081526020015b60405180910390f35b6100ba6100b5366004610502565b61015a565b60405161009e9190610524565b6100ba6100d5366004610474565b610233565b6100946100e83660046104e9565b6102dd565b6100ba6100fb366004610502565b61030b565b6100ba61010e366004610474565b6103d2565b6040516f1352539517d493d31157d193d497d25160821b6020820152603081018290526000906050015b604051602081830303815290604052805190602001209050919050565b6060828210156101855760405162461bcd60e51b815260040161017c90610568565b60405180910390fd5b600061019184846105dd565b61019c9060016105c5565b905060008167ffffffffffffffff8111156101b9576101b961063b565b6040519080825280602002602001820160405280156101e2578160200160208202803683370190505b50905060005b8281101561022a576101fd6100e887836105c5565b82828151811061020f5761020f610625565b6020908102919091010152610223816105f4565b90506101e8565b50949350505050565b606060008267ffffffffffffffff8111156102505761025061063b565b604051908082528060200260200182016040528015610279578160200160208202803683370190505b50905060005b838110156102d5576102a885858381811061029c5761029c610625565b90506020020135610113565b8282815181106102ba576102ba610625565b60209081029190910101526102ce816105f4565b905061027f565b509392505050565b6040516f1095549397d493d31157d193d497d25160821b60208201526030810182905260009060500161013d565b60608282101561032d5760405162461bcd60e51b815260040161017c90610568565b600061033984846105dd565b6103449060016105c5565b905060008167ffffffffffffffff8111156103615761036161063b565b60405190808252806020026020018201604052801561038a578160200160208202803683370190505b50905060005b8281101561022a576103a561008f87836105c5565b8282815181106103b7576103b7610625565b60209081029190910101526103cb816105f4565b9050610390565b606060008267ffffffffffffffff8111156103ef576103ef61063b565b604051908082528060200260200182016040528015610418578160200160208202803683370190505b50905060005b838110156102d55761044785858381811061043b5761043b610625565b905060200201356102dd565b82828151811061045957610459610625565b602090810291909101015261046d816105f4565b905061041e565b6000806020838503121561048757600080fd5b823567ffffffffffffffff8082111561049f57600080fd5b818501915085601f8301126104b357600080fd5b8135818111156104c257600080fd5b8660208260051b85010111156104d757600080fd5b60209290920196919550909350505050565b6000602082840312156104fb57600080fd5b5035919050565b6000806040838503121561051557600080fd5b50508035926020909101359150565b6020808252825182820181905260009190848201906040850190845b8181101561055c57835183529284019291840191600101610540565b50909695505050505050565b60208082526037908201527f48656c70657246756e6374696f6e733a20746f206d757374206265206772656160408201527f74686572206f7220657175616c20746861742066726f6d000000000000000000606082015260800190565b600082198211156105d8576105d861060f565b500190565b6000828210156105ef576105ef61060f565b500390565b60006000198214156106085761060861060f565b5060010190565b634e487b7160e01b600052601160045260246000fd5b634e487b7160e01b600052603260045260246000fd5b634e487b7160e01b600052604160045260246000fdfea26474726f6e582212201b12302f7ee3659038b63079b8325a128631644827f9a6eb98a151e46c69219b64736f6c63430008060033",
  "source": "// SPDX-License-Identifier: unlicense\r\npragma solidity ^0.8.0;\r\n\r\nimport \"../dex/SpacePiratesPair.sol\";\r\n\r\n/**\r\n * @title Helper Contract\r\n * @author @Gr3it\r\n * @notice Give access to usefull functions\r\n */\r\n\r\ncontract HelperRoleContract {\r\n    function getMintRoleBytes(uint256 id) public pure returns (bytes32) {\r\n        return (keccak256(abi.encodePacked(\"MINT_ROLE_FOR_ID\", id)));\r\n    }\r\n\r\n    function getBurnRoleBytes(uint256 id) public pure returns (bytes32) {\r\n        return (keccak256(abi.encodePacked(\"BURN_ROLE_FOR_ID\", id)));\r\n    }\r\n\r\n    function getMultiMintRoleBytes(uint256[] calldata ids)\r\n        public\r\n        pure\r\n        returns (bytes32[] memory)\r\n    {\r\n        bytes32[] memory roles = new bytes32[](ids.length);\r\n        for (uint256 i = 0; i < ids.length; ++i) {\r\n            roles[i] = getMintRoleBytes(ids[i]);\r\n        }\r\n        return roles;\r\n    }\r\n\r\n    function getMultiBurnRoleBytes(uint256[] calldata ids)\r\n        public\r\n        pure\r\n        returns (bytes32[] memory)\r\n    {\r\n        bytes32[] memory roles = new bytes32[](ids.length);\r\n        for (uint256 i = 0; i < ids.length; ++i) {\r\n            roles[i] = getBurnRoleBytes(ids[i]);\r\n        }\r\n        return roles;\r\n    }\r\n\r\n    // from and to id included\r\n    function getRangeMintRoleBytes(uint256 from, uint256 to)\r\n        public\r\n        pure\r\n        returns (bytes32[] memory)\r\n    {\r\n        require(\r\n            to >= from,\r\n            \"HelperFunctions: to must be greather or equal that from\"\r\n        );\r\n        uint256 length = to - from + 1;\r\n        bytes32[] memory roles = new bytes32[](length);\r\n        for (uint256 i = 0; i < length; ++i) {\r\n            roles[i] = getMintRoleBytes(i + from);\r\n        }\r\n        return roles;\r\n    }\r\n\r\n    // from and to id included\r\n    function getRangeBurnRoleBytes(uint256 from, uint256 to)\r\n        public\r\n        pure\r\n        returns (bytes32[] memory)\r\n    {\r\n        require(\r\n            to >= from,\r\n            \"HelperFunctions: to must be greather or equal that from\"\r\n        );\r\n        uint256 length = to - from + 1;\r\n        bytes32[] memory roles = new bytes32[](length);\r\n        for (uint256 i = 0; i < length; ++i) {\r\n            roles[i] = getBurnRoleBytes(i + from);\r\n        }\r\n        return roles;\r\n    }\r\n}\r\n\r\ncontract HelperDexContract {\r\n    // get the pair creation code hash\r\n    function getPairInitCodeHash() public pure returns (bytes32) {\r\n        bytes memory bytecode = type(SpacePiratesPair).creationCode;\r\n        return keccak256(bytecode);\r\n    }\r\n}\r\n\r\ncontract HelperMaxUint {\r\n    function maxUint(uint256 identifier) external pure returns (uint256) {\r\n        return 2**identifier - 1;\r\n    }\r\n}\r\n",
  "sourcePath": "C:/Users/emanu/space-pirates-contracts/contracts/utils/HelperContracts.sol",
  "compiler": {
    "name": "solc",
    "version": "0.8.6+commit.0e36fba0.mod.Emscripten.clang"
  },
  "schemaVersion": "2.0.1",
  "updatedAt": "2022-07-23T23:58:53.835Z"
}