{
  "contractName": "HelperMaxUint",
  "abi": [
    {
      "inputs": [
        {
          "internalType": "uint256",
          "name": "identifier",
          "type": "uint256"
        }
      ],
      "name": "maxUint",
      "outputs": [
        {
          "internalType": "uint256",
          "name": "",
          "type": "uint256"
        }
      ],
      "stateMutability": "pure",
      "type": "function"
    }
  ],
  "bytecode": "0x608060405234801561001057600080fd5b50d3801561001d57600080fd5b50d2801561002a57600080fd5b506102018061003a6000396000f3fe608060405234801561001057600080fd5b50d3801561001d57600080fd5b50d2801561002a57600080fd5b50600436106100455760003560e01c806395952c7a1461004a575b600080fd5b61005d61005836600461008e565b61006f565b60405190815260200160405180910390f35b6000600161007e8360026100ea565b610088919061019e565b92915050565b6000602082840312156100a057600080fd5b5035919050565b600181815b808511156100e25781600019048211156100c8576100c86101b5565b808516156100d557918102915b93841c93908002906100ac565b509250929050565b60006100f683836100fd565b9392505050565b60008261010c57506001610088565b8161011957506000610088565b816001811461012f576002811461013957610155565b6001915050610088565b60ff84111561014a5761014a6101b5565b50506001821b610088565b5060208310610133831016604e8410600b8410161715610178575081810a610088565b61018283836100a7565b8060001904821115610196576101966101b5565b029392505050565b6000828210156101b0576101b06101b5565b500390565b634e487b7160e01b600052601160045260246000fdfea26474726f6e582212207f526ddb7787be574fa133fec010cc018511b94a232f0989ce115c4737b9b68c64736f6c63430008060033",
  "source": "// SPDX-License-Identifier: unlicense\r\npragma solidity ^0.8.0;\r\n\r\nimport \"../dex/SpacePiratesPair.sol\";\r\n\r\n/**\r\n * @title Helper Contract\r\n * @author @Gr3it\r\n * @notice Give access to usefull functions\r\n */\r\n\r\ncontract HelperRoleContract {\r\n    function getMintRoleBytes(uint256 id) public pure returns (bytes32) {\r\n        return (keccak256(abi.encodePacked(\"MINT_ROLE_FOR_ID\", id)));\r\n    }\r\n\r\n    function getBurnRoleBytes(uint256 id) public pure returns (bytes32) {\r\n        return (keccak256(abi.encodePacked(\"BURN_ROLE_FOR_ID\", id)));\r\n    }\r\n\r\n    function getMultiMintRoleBytes(uint256[] calldata ids)\r\n        public\r\n        pure\r\n        returns (bytes32[] memory)\r\n    {\r\n        bytes32[] memory roles = new bytes32[](ids.length);\r\n        for (uint256 i = 0; i < ids.length; ++i) {\r\n            roles[i] = getMintRoleBytes(ids[i]);\r\n        }\r\n        return roles;\r\n    }\r\n\r\n    function getMultiBurnRoleBytes(uint256[] calldata ids)\r\n        public\r\n        pure\r\n        returns (bytes32[] memory)\r\n    {\r\n        bytes32[] memory roles = new bytes32[](ids.length);\r\n        for (uint256 i = 0; i < ids.length; ++i) {\r\n            roles[i] = getBurnRoleBytes(ids[i]);\r\n        }\r\n        return roles;\r\n    }\r\n\r\n    // from and to id included\r\n    function getRangeMintRoleBytes(uint256 from, uint256 to)\r\n        public\r\n        pure\r\n        returns (bytes32[] memory)\r\n    {\r\n        require(\r\n            to >= from,\r\n            \"HelperFunctions: to must be greather or equal that from\"\r\n        );\r\n        uint256 length = to - from + 1;\r\n        bytes32[] memory roles = new bytes32[](length);\r\n        for (uint256 i = 0; i < length; ++i) {\r\n            roles[i] = getMintRoleBytes(i + from);\r\n        }\r\n        return roles;\r\n    }\r\n\r\n    // from and to id included\r\n    function getRangeBurnRoleBytes(uint256 from, uint256 to)\r\n        public\r\n        pure\r\n        returns (bytes32[] memory)\r\n    {\r\n        require(\r\n            to >= from,\r\n            \"HelperFunctions: to must be greather or equal that from\"\r\n        );\r\n        uint256 length = to - from + 1;\r\n        bytes32[] memory roles = new bytes32[](length);\r\n        for (uint256 i = 0; i < length; ++i) {\r\n            roles[i] = getBurnRoleBytes(i + from);\r\n        }\r\n        return roles;\r\n    }\r\n}\r\n\r\ncontract HelperDexContract {\r\n    // get the pair creation code hash\r\n    function getPairInitCodeHash() public pure returns (bytes32) {\r\n        bytes memory bytecode = type(SpacePiratesPair).creationCode;\r\n        return keccak256(bytecode);\r\n    }\r\n}\r\n\r\ncontract HelperMaxUint {\r\n    function maxUint(uint256 identifier) external pure returns (uint256) {\r\n        return 2**identifier - 1;\r\n    }\r\n}\r\n",
  "sourcePath": "C:/Users/emanu/space-pirates-contracts/contracts/utils/HelperContracts.sol",
  "compiler": {
    "name": "solc",
    "version": "0.8.6+commit.0e36fba0.mod.Emscripten.clang"
  },
  "schemaVersion": "2.0.1",
  "updatedAt": "2022-07-23T23:58:53.832Z"
}