{
  "contractName": "SpacePiratesMasterChef",
  "abi": [
    {
      "inputs": [
        {
          "internalType": "contract SpacePiratesTokens",
          "name": "_doubloons",
          "type": "address"
        },
        {
          "internalType": "address",
          "name": "_devaddr",
          "type": "address"
        },
        {
          "internalType": "address",
          "name": "_feeAddress",
          "type": "address"
        },
        {
          "internalType": "uint256",
          "name": "_doubloonsPerBlock",
          "type": "uint256"
        },
        {
          "internalType": "uint256",
          "name": "_startBlock",
          "type": "uint256"
        }
      ],
      "stateMutability": "nonpayable",
      "type": "constructor"
    },
    {
      "anonymous": false,
      "inputs": [
        {
          "indexed": true,
          "internalType": "address",
          "name": "user",
          "type": "address"
        },
        {
          "indexed": true,
          "internalType": "uint256",
          "name": "pid",
          "type": "uint256"
        },
        {
          "indexed": false,
          "internalType": "uint256",
          "name": "amount",
          "type": "uint256"
        }
      ],
      "name": "Deposit",
      "type": "event"
    },
    {
      "anonymous": false,
      "inputs": [
        {
          "indexed": true,
          "internalType": "address",
          "name": "user",
          "type": "address"
        },
        {
          "indexed": true,
          "internalType": "uint256",
          "name": "pid",
          "type": "uint256"
        },
        {
          "indexed": false,
          "internalType": "uint256",
          "name": "amount",
          "type": "uint256"
        }
      ],
      "name": "EmergencyWithdraw",
      "type": "event"
    },
    {
      "anonymous": false,
      "inputs": [
        {
          "indexed": true,
          "internalType": "address",
          "name": "previousOwner",
          "type": "address"
        },
        {
          "indexed": true,
          "internalType": "address",
          "name": "newOwner",
          "type": "address"
        }
      ],
      "name": "OwnershipTransferred",
      "type": "event"
    },
    {
      "anonymous": false,
      "inputs": [
        {
          "indexed": true,
          "internalType": "address",
          "name": "user",
          "type": "address"
        },
        {
          "indexed": true,
          "internalType": "address",
          "name": "newAddress",
          "type": "address"
        }
      ],
      "name": "SetDevAddress",
      "type": "event"
    },
    {
      "anonymous": false,
      "inputs": [
        {
          "indexed": true,
          "internalType": "address",
          "name": "user",
          "type": "address"
        },
        {
          "indexed": true,
          "internalType": "address",
          "name": "newAddress",
          "type": "address"
        }
      ],
      "name": "SetFeeAddress",
      "type": "event"
    },
    {
      "anonymous": false,
      "inputs": [
        {
          "indexed": true,
          "internalType": "address",
          "name": "user",
          "type": "address"
        },
        {
          "indexed": false,
          "internalType": "uint256",
          "name": "doubloonsPerBlock",
          "type": "uint256"
        }
      ],
      "name": "UpdateEmissionRate",
      "type": "event"
    },
    {
      "anonymous": false,
      "inputs": [
        {
          "indexed": true,
          "internalType": "address",
          "name": "user",
          "type": "address"
        },
        {
          "indexed": true,
          "internalType": "uint256",
          "name": "pid",
          "type": "uint256"
        },
        {
          "indexed": false,
          "internalType": "uint256",
          "name": "amount",
          "type": "uint256"
        }
      ],
      "name": "Withdraw",
      "type": "event"
    },
    {
      "inputs": [],
      "name": "BONUS_MULTIPLIER",
      "outputs": [
        {
          "internalType": "uint256",
          "name": "",
          "type": "uint256"
        }
      ],
      "stateMutability": "view",
      "type": "function"
    },
    {
      "inputs": [],
      "name": "DOUBLOONS_ID",
      "outputs": [
        {
          "internalType": "uint256",
          "name": "",
          "type": "uint256"
        }
      ],
      "stateMutability": "view",
      "type": "function"
    },
    {
      "inputs": [
        {
          "internalType": "uint256",
          "name": "_allocPoint",
          "type": "uint256"
        },
        {
          "internalType": "contract IERC20",
          "name": "_lpToken",
          "type": "address"
        },
        {
          "internalType": "uint16",
          "name": "_depositFeeBP",
          "type": "uint16"
        },
        {
          "internalType": "bool",
          "name": "_withUpdate",
          "type": "bool"
        }
      ],
      "name": "add",
      "outputs": [],
      "stateMutability": "nonpayable",
      "type": "function"
    },
    {
      "inputs": [
        {
          "internalType": "uint256",
          "name": "_pid",
          "type": "uint256"
        },
        {
          "internalType": "uint256",
          "name": "_amount",
          "type": "uint256"
        }
      ],
      "name": "deposit",
      "outputs": [],
      "stateMutability": "nonpayable",
      "type": "function"
    },
    {
      "inputs": [
        {
          "internalType": "address",
          "name": "_devaddr",
          "type": "address"
        }
      ],
      "name": "dev",
      "outputs": [],
      "stateMutability": "nonpayable",
      "type": "function"
    },
    {
      "inputs": [],
      "name": "devaddr",
      "outputs": [
        {
          "internalType": "address",
          "name": "",
          "type": "address"
        }
      ],
      "stateMutability": "view",
      "type": "function"
    },
    {
      "inputs": [],
      "name": "doubloons",
      "outputs": [
        {
          "internalType": "contract SpacePiratesTokens",
          "name": "",
          "type": "address"
        }
      ],
      "stateMutability": "view",
      "type": "function"
    },
    {
      "inputs": [],
      "name": "doubloonsPerBlock",
      "outputs": [
        {
          "internalType": "uint256",
          "name": "",
          "type": "uint256"
        }
      ],
      "stateMutability": "view",
      "type": "function"
    },
    {
      "inputs": [
        {
          "internalType": "uint256",
          "name": "_pid",
          "type": "uint256"
        }
      ],
      "name": "emergencyWithdraw",
      "outputs": [],
      "stateMutability": "nonpayable",
      "type": "function"
    },
    {
      "inputs": [],
      "name": "feeAddress",
      "outputs": [
        {
          "internalType": "address",
          "name": "",
          "type": "address"
        }
      ],
      "stateMutability": "view",
      "type": "function"
    },
    {
      "inputs": [
        {
          "internalType": "uint256",
          "name": "_from",
          "type": "uint256"
        },
        {
          "internalType": "uint256",
          "name": "_to",
          "type": "uint256"
        }
      ],
      "name": "getMultiplier",
      "outputs": [
        {
          "internalType": "uint256",
          "name": "",
          "type": "uint256"
        }
      ],
      "stateMutability": "pure",
      "type": "function"
    },
    {
      "inputs": [],
      "name": "massUpdatePools",
      "outputs": [],
      "stateMutability": "nonpayable",
      "type": "function"
    },
    {
      "inputs": [],
      "name": "owner",
      "outputs": [
        {
          "internalType": "address",
          "name": "",
          "type": "address"
        }
      ],
      "stateMutability": "view",
      "type": "function"
    },
    {
      "inputs": [
        {
          "internalType": "uint256",
          "name": "_pid",
          "type": "uint256"
        },
        {
          "internalType": "address",
          "name": "_user",
          "type": "address"
        }
      ],
      "name": "pendingDoubloons",
      "outputs": [
        {
          "internalType": "uint256",
          "name": "",
          "type": "uint256"
        }
      ],
      "stateMutability": "view",
      "type": "function"
    },
    {
      "inputs": [
        {
          "internalType": "contract IERC20",
          "name": "",
          "type": "address"
        }
      ],
      "name": "poolExistence",
      "outputs": [
        {
          "internalType": "bool",
          "name": "",
          "type": "bool"
        }
      ],
      "stateMutability": "view",
      "type": "function"
    },
    {
      "inputs": [
        {
          "internalType": "uint256",
          "name": "",
          "type": "uint256"
        }
      ],
      "name": "poolInfo",
      "outputs": [
        {
          "internalType": "contract IERC20",
          "name": "lpToken",
          "type": "address"
        },
        {
          "internalType": "uint256",
          "name": "allocPoint",
          "type": "uint256"
        },
        {
          "internalType": "uint256",
          "name": "lastRewardBlock",
          "type": "uint256"
        },
        {
          "internalType": "uint256",
          "name": "accDoubloonsPerShare",
          "type": "uint256"
        },
        {
          "internalType": "uint16",
          "name": "depositFeeBP",
          "type": "uint16"
        }
      ],
      "stateMutability": "view",
      "type": "function"
    },
    {
      "inputs": [],
      "name": "poolLength",
      "outputs": [
        {
          "internalType": "uint256",
          "name": "",
          "type": "uint256"
        }
      ],
      "stateMutability": "view",
      "type": "function"
    },
    {
      "inputs": [],
      "name": "renounceOwnership",
      "outputs": [],
      "stateMutability": "nonpayable",
      "type": "function"
    },
    {
      "inputs": [
        {
          "internalType": "uint256",
          "name": "_pid",
          "type": "uint256"
        },
        {
          "internalType": "uint256",
          "name": "_allocPoint",
          "type": "uint256"
        },
        {
          "internalType": "uint16",
          "name": "_depositFeeBP",
          "type": "uint16"
        },
        {
          "internalType": "bool",
          "name": "_withUpdate",
          "type": "bool"
        }
      ],
      "name": "set",
      "outputs": [],
      "stateMutability": "nonpayable",
      "type": "function"
    },
    {
      "inputs": [
        {
          "internalType": "address",
          "name": "_feeAddress",
          "type": "address"
        }
      ],
      "name": "setFeeAddress",
      "outputs": [],
      "stateMutability": "nonpayable",
      "type": "function"
    },
    {
      "inputs": [],
      "name": "startBlock",
      "outputs": [
        {
          "internalType": "uint256",
          "name": "",
          "type": "uint256"
        }
      ],
      "stateMutability": "view",
      "type": "function"
    },
    {
      "inputs": [],
      "name": "totalAllocPoint",
      "outputs": [
        {
          "internalType": "uint256",
          "name": "",
          "type": "uint256"
        }
      ],
      "stateMutability": "view",
      "type": "function"
    },
    {
      "inputs": [
        {
          "internalType": "address",
          "name": "newOwner",
          "type": "address"
        }
      ],
      "name": "transferOwnership",
      "outputs": [],
      "stateMutability": "nonpayable",
      "type": "function"
    },
    {
      "inputs": [
        {
          "internalType": "uint256",
          "name": "_doubloonsPerBlock",
          "type": "uint256"
        }
      ],
      "name": "updateEmissionRate",
      "outputs": [],
      "stateMutability": "nonpayable",
      "type": "function"
    },
    {
      "inputs": [
        {
          "internalType": "uint256",
          "name": "_pid",
          "type": "uint256"
        }
      ],
      "name": "updatePool",
      "outputs": [],
      "stateMutability": "nonpayable",
      "type": "function"
    },
    {
      "inputs": [
        {
          "internalType": "uint256",
          "name": "",
          "type": "uint256"
        },
        {
          "internalType": "address",
          "name": "",
          "type": "address"
        }
      ],
      "name": "userInfo",
      "outputs": [
        {
          "internalType": "uint256",
          "name": "amount",
          "type": "uint256"
        },
        {
          "internalType": "uint256",
          "name": "rewardDebt",
          "type": "uint256"
        }
      ],
      "stateMutability": "view",
      "type": "function"
    },
    {
      "inputs": [
        {
          "internalType": "uint256",
          "name": "_pid",
          "type": "uint256"
        },
        {
          "internalType": "uint256",
          "name": "_amount",
          "type": "uint256"
        }
      ],
      "name": "withdraw",
      "outputs": [],
      "stateMutability": "nonpayable",
      "type": "function"
    }
  ],
  "bytecode": "0x608060405260006008553480156200001657600080fd5b50d380156200002457600080fd5b50d280156200003257600080fd5b5060405162001c8a38038062001c8a833981016040819052620000559162000101565b6200006033620000b1565b60018055600280546001600160a01b03199081166001600160a01b0397881617909155600380548216958716959095179094556005805490941692909416919091179091556004556009556200018d565b600080546001600160a01b038381166001600160a01b0319831681178455604051919092169283917f8be0079c531659141344cd1fd0a4f28419497f9722a3daafe3b4186f6b6457e09190a35050565b600080600080600060a086880312156200011a57600080fd5b8551620001278162000174565b60208701516001600160a01b03918216965090620001458262000174565b604088015191811695506200015a8262000174565b606088015160809098015196999598501695949392505050565b6001600160a81b03811681146200018a57600080fd5b50565b611aed806200019d6000396000f3fe608060405234801561001057600080fd5b50d3801561001d57600080fd5b50d2801561002a57600080fd5b50600436106101c35760003560e01c8063715018a61161011357806393f1a40b116100b1578063d96384221161008b578063d9638422146103d1578063e2bbb158146103e4578063e701588e146103f7578063f2fde38b1461040a57600080fd5b806393f1a40b14610344578063cbd258b51461038b578063d49e77cd146103be57600080fd5b80638aa28550116100ed5780638aa28550146102a95780638d88a90e1461030d5780638da5cb5b146103205780638dbb1e3a1461033157600080fd5b8063715018a6146102df57806384e82a33146102e75780638705fcd4146102fa57600080fd5b8063412753581161018057806349ea15b71161015a57806349ea15b7146102a957806351eb05a6146102b15780635312ea8e146102c4578063630b5ba1146102d757600080fd5b8063412753581461027a578063441a3e701461028d57806348cd4cb1146102a057600080fd5b8063081e3eda146101c85780630ba84cd2146101df5780630bdea945146101f45780631464e0de146101fd5780631526fe271461022857806317caf6f114610271575b600080fd5b6006545b6040519081526020015b60405180910390f35b6101f26101ed3660046117a9565b61041d565b005b6101cc60045481565b600254610210906001600160a01b031681565b6040516001600160a01b0390911681526020016101d6565b61023b6102363660046117a9565b610495565b604080516001600160a01b039096168652602086019490945292840191909152606083015261ffff16608082015260a0016101d6565b6101cc60085481565b600554610210906001600160a01b031681565b6101f261029b36600461186f565b6104e4565b6101cc60095481565b6101cc600181565b6101f26102bf3660046117a9565b610675565b6101f26102d23660046117a9565b6108bd565b6101f261098f565b6101f26109ba565b6101f26102f5366004611815565b6109f0565b6101f261030836600461175f565b610c68565b6101f261031b36600461175f565b610d0e565b6000546001600160a01b0316610210565b6101cc61033f36600461186f565b610da0565b6103766103523660046117db565b60076020908152600092835260408084209091529082529020805460019091015482565b604080519283526020830191909152016101d6565b6103ae61039936600461175f565b600a6020526000908152604090205460ff1681565b60405190151581526020016101d6565b600354610210906001600160a01b031681565b6101f26103df366004611891565b610dbf565b6101f26103f236600461186f565b610f0c565b6101cc6104053660046117db565b6110c6565b6101f261041836600461175f565b611244565b6000546001600160a01b031633146104505760405162461bcd60e51b815260040161044790611945565b60405180910390fd5b61045861098f565b600481905560405181815233907fe2492e003bbe8afa53088b406f0c1cb5d9e280370fc72a74cf116ffd343c40539060200160405180910390a250565b600681815481106104a557600080fd5b6000918252602090912060059091020180546001820154600283015460038401546004909401546001600160a01b0390931694509092909161ffff1685565b600260015414156105075760405162461bcd60e51b81526004016104479061197a565b600260018190555060006006838154811061052457610524611a7e565b6000918252602080832086845260078252604080852033865290925292208054600590920290920192508311156105925760405162461bcd60e51b81526020600482015260126024820152711dda5d1a191c985dce881b9bdd0819dbdbd960721b6044820152606401610447565b61059b84610675565b6000816001015464e8d4a51000846003015484600001546105bc91906119eb565b6105c691906119c9565b6105d09190611a0a565b905080156105e2576105e233826112df565b831561060d5781546105f5908590611a0a565b8255825461060d906001600160a01b03163386611414565b6003830154825464e8d4a5100091610624916119eb565b61062e91906119c9565b6001830155604051848152859033907ff279e6a1f5e320cca91135676d9cb6e44ca8a08c0b88342bcdb1144f6511b5689060200160405180910390a3505060018055505050565b60006006828154811061068a5761068a611a7e565b90600052602060002090600502019050806002015443116106a9575050565b80546040516370a0823160e01b81523060048201526000916001600160a01b0316906370a082319060240160206040518083038186803b1580156106ec57600080fd5b505afa158015610700573d6000803e3d6000fd5b505050506040513d601f19601f8201168201806040525081019061072491906117c2565b905080158061073557506001820154155b1561074557504360029091015550565b6000610755836002015443610da0565b9050600060085484600101546004548461076f91906119eb565b61077991906119eb565b61078391906119c9565b6002546003549192506001600160a01b039081169163156e29f6911660016107ac600a866119c9565b6040516001600160e01b031960e086901b1681526001600160a01b03909316600484015260248301919091526044820152606401600060405180830381600087803b1580156107fa57600080fd5b505af115801561080e573d6000803e3d6000fd5b5050600254604051630ab714fb60e11b815230600482015260016024820152604481018590526001600160a01b03909116925063156e29f69150606401600060405180830381600087803b15801561086557600080fd5b505af1158015610879573d6000803e3d6000fd5b50505050828164e8d4a5100061088f91906119eb565b61089991906119c9565b84600301546108a891906119b1565b60038501555050436002909201919091555050565b600260015414156108e05760405162461bcd60e51b81526004016104479061197a565b60026001819055506000600682815481106108fd576108fd611a7e565b60009182526020808320858452600782526040808520338087529352842080548582556001820195909555600590930201805490945091929161094d916001600160a01b03919091169083611414565b604051818152849033907fbb757047c2b5f3974fe26b7c10f732e7bce710b0952a71082702781e62ae0595906020015b60405180910390a35050600180555050565b60065460005b818110156109b6576109a681610675565b6109af81611a4d565b9050610995565b5050565b6000546001600160a01b031633146109e45760405162461bcd60e51b815260040161044790611945565b6109ee6000611477565b565b6000546001600160a01b03163314610a1a5760405162461bcd60e51b815260040161044790611945565b6001600160a01b0383166000908152600a6020526040902054839060ff1615610a855760405162461bcd60e51b815260206004820152601960248201527f6e6f6e4475706c6963617465643a206475706c696361746564000000000000006044820152606401610447565b6127108361ffff161115610ae95760405162461bcd60e51b815260206004820152602560248201527f6164643a20696e76616c6964206465706f7369742066656520626173697320706044820152646f696e747360d81b6064820152608401610447565b8115610af757610af761098f565b60006009544311610b0a57600954610b0c565b435b905085600854610b1c91906119b1565b6008556001600160a01b039485166000818152600a602090815260408083208054600160ff199091168117909155815160a081018352948552918401998a5283019384526060830182815261ffff9788166080850190815260068054938401815590935292517ff652222313e28459528d920b65115c16c04f3efc82aaedc97be59f3f377c0d3f600590920291820180546001600160a01b031916919099161790975596517ff652222313e28459528d920b65115c16c04f3efc82aaedc97be59f3f377c0d4087015590517ff652222313e28459528d920b65115c16c04f3efc82aaedc97be59f3f377c0d41860155517ff652222313e28459528d920b65115c16c04f3efc82aaedc97be59f3f377c0d42850155505091517ff652222313e28459528d920b65115c16c04f3efc82aaedc97be59f3f377c0d43909101805461ffff191691909216179055565b6005546001600160a01b03163314610cc25760405162461bcd60e51b815260206004820152601860248201527f736574466565416464726573733a20464f5242494444454e00000000000000006044820152606401610447565b600580546001600160a01b0319166001600160a01b03831690811790915560405133907fd44190acf9d04bdb5d3a1aafff7e6dee8b40b93dfb8c5d3f0eea4b9f4539c3f790600090a350565b6003546001600160a01b03163314610d545760405162461bcd60e51b81526020600482015260096024820152686465763a207775743f60b81b6044820152606401610447565b600380546001600160a01b0319166001600160a01b03831690811790915560405133907f618c54559e94f1499a808aad71ee8729f8e74e8c48e979616328ce493a1a52e790600090a350565b60006001610dae8484611a0a565b610db891906119eb565b9392505050565b6000546001600160a01b03163314610de95760405162461bcd60e51b815260040161044790611945565b6127108261ffff161115610e4d5760405162461bcd60e51b815260206004820152602560248201527f7365743a20696e76616c6964206465706f7369742066656520626173697320706044820152646f696e747360d81b6064820152608401610447565b8015610e5b57610e5b61098f565b8260068581548110610e6f57610e6f611a7e565b906000526020600020906005020160010154600854610e8e9190611a0a565b610e9891906119b1565b6008819055508260068581548110610eb257610eb2611a7e565b9060005260206000209060050201600101819055508160068581548110610edb57610edb611a7e565b906000526020600020906005020160040160006101000a81548161ffff021916908361ffff16021790555050505050565b60026001541415610f2f5760405162461bcd60e51b81526004016104479061197a565b6002600181905550600060068381548110610f4c57610f4c611a7e565b60009182526020808320868452600782526040808520338652909252922060059091029091019150610f7d84610675565b805415610fcd576000816001015464e8d4a5100084600301548460000154610fa591906119eb565b610faf91906119c9565b610fb99190611a0a565b90508015610fcb57610fcb33826112df565b505b821561106c578154610fea906001600160a01b03163330866114c7565b600482015461ffff161561105c576004820154600090612710906110129061ffff16866119eb565b61101c91906119c9565b600554845491925061103b916001600160a01b03908116911683611414565b8154819061104a9086906119b1565b6110549190611a0a565b82555061106c565b80546110699084906119b1565b81555b6003820154815464e8d4a5100091611083916119eb565b61108d91906119c9565b6001820155604051838152849033907f90890809c654f11d6e72a28fa60149770a0d11ec6c92319d6ceb2bb0a4ea1a159060200161097d565b600080600684815481106110dc576110dc611a7e565b600091825260208083208784526007825260408085206001600160a01b03898116875293528085206005949094029091016003810154815492516370a0823160e01b815230600482015291965093949291909116906370a082319060240160206040518083038186803b15801561115257600080fd5b505afa158015611166573d6000803e3d6000fd5b505050506040513d601f19601f8201168201806040525081019061118a91906117c2565b905083600201544311801561119e57508015155b1561120c5760006111b3856002015443610da0565b905060006008548660010154600454846111cd91906119eb565b6111d791906119eb565b6111e191906119c9565b9050826111f38264e8d4a510006119eb565b6111fd91906119c9565b61120790856119b1565b935050505b6001830154835464e8d4a51000906112259085906119eb565b61122f91906119c9565b6112399190611a0a565b979650505050505050565b6000546001600160a01b0316331461126e5760405162461bcd60e51b815260040161044790611945565b6001600160a01b0381166112d35760405162461bcd60e51b815260206004820152602660248201527f4f776e61626c653a206e6577206f776e657220697320746865207a65726f206160448201526564647265737360d01b6064820152608401610447565b6112dc81611477565b50565b600254604051627eeac760e11b8152306004820152600160248201526000916001600160a01b03169062fdd58e9060440160206040518083038186803b15801561132857600080fd5b505afa15801561133c573d6000803e3d6000fd5b505050506040513d601f19601f8201168201806040525081019061136091906117c2565b9050808211156113d857600254604051637921219560e11b81526001600160a01b039091169063f242432a906113a1903090879060019087906004016118da565b600060405180830381600087803b1580156113bb57600080fd5b505af11580156113cf573d6000803e3d6000fd5b50505050505050565b600254604051637921219560e11b81526001600160a01b039091169063f242432a906113a1903090879060019088906004016118da565b505050565b6040516001600160a01b03831660248201526044810182905261140f90849063a9059cbb60e01b906064015b60408051601f198184030181529190526020810180516001600160e01b03166001600160e01b031990931692909217909152611505565b600080546001600160a01b038381166001600160a01b0319831681178455604051919092169283917f8be0079c531659141344cd1fd0a4f28419497f9722a3daafe3b4186f6b6457e09190a35050565b6040516001600160a01b03808516602483015283166044820152606481018290526114ff9085906323b872dd60e01b90608401611440565b50505050565b600061155a826040518060400160405280602081526020017f5361666545524332303a206c6f772d6c6576656c2063616c6c206661696c6564815250856001600160a01b03166115d79092919063ffffffff16565b80519091501561140f5780806020019051810190611578919061178c565b61140f5760405162461bcd60e51b815260206004820152602a60248201527f5361666545524332303a204245503230206f7065726174696f6e20646964206e6044820152691bdd081cdd58d8d9595960b21b6064820152608401610447565b60606115e684846000856115ee565b949350505050565b60608247101561164f5760405162461bcd60e51b815260206004820152602660248201527f416464726573733a20696e73756666696369656e742062616c616e636520666f6044820152651c8818d85b1b60d21b6064820152608401610447565b846001600160a01b0316d46116a65760405162461bcd60e51b815260206004820152601d60248201527f416464726573733a2063616c6c20746f206e6f6e2d636f6e74726163740000006044820152606401610447565b600080866001600160a01b031685876040516116c291906118be565b60006040518083038185875af1925050503d80600081146116ff576040519150601f19603f3d011682016040523d82523d6000602084013e611704565b606091505b50915091506112398282866060831561171e575081610db8565b82511561172e5782518084602001fd5b8160405162461bcd60e51b81526004016104479190611912565b803561ffff8116811461175a57600080fd5b919050565b60006020828403121561177157600080fd5b813561177c81611a94565b6001600160a01b03169392505050565b60006020828403121561179e57600080fd5b8151610db881611aa9565b6000602082840312156117bb57600080fd5b5035919050565b6000602082840312156117d457600080fd5b5051919050565b600080604083850312156117ee57600080fd5b82359150602083013561180081611a94565b91946001600160a01b03909216935090915050565b6000806000806080858703121561182b57600080fd5b84359350602085013561183d81611a94565b6001600160a01b0316925061185460408601611748565b9150606085013561186481611aa9565b939692955090935050565b6000806040838503121561188257600080fd5b50508035926020909101359150565b600080600080608085870312156118a757600080fd5b843593506020850135925061185460408601611748565b600082516118d0818460208701611a21565b9190910192915050565b6001600160a01b0394851681529290931660208301526040820152606081019190915260a06080820181905260009082015260c00190565b6020815260008251806020840152611931816040850160208701611a21565b601f01601f19169190910160400192915050565b6020808252818101527f4f776e61626c653a2063616c6c6572206973206e6f7420746865206f776e6572604082015260600190565b6020808252601f908201527f5265656e7472616e637947756172643a207265656e7472616e742063616c6c00604082015260600190565b600082198211156119c4576119c4611a68565b500190565b6000826119e657634e487b7160e01b600052601260045260246000fd5b500490565b6000816000190483118215151615611a0557611a05611a68565b500290565b600082821015611a1c57611a1c611a68565b500390565b60005b83811015611a3c578181015183820152602001611a24565b838111156114ff5750506000910152565b6000600019821415611a6157611a61611a68565b5060010190565b634e487b7160e01b600052601160045260246000fd5b634e487b7160e01b600052603260045260246000fd5b6001600160a81b03811681146112dc57600080fd5b80151581146112dc57600080fdfea26474726f6e58221220e11ca52690f123a3d847be7d51bf1bc8c1b38a70d4e6ca061700c619cff3646664736f6c63430008060033",
  "source": "// SPDX-License-Identifier: MIT\r\npragma solidity ^0.8.0;\r\n\r\nimport \"../libraries/SafeERC20.sol\";\r\nimport \"@openzeppelin/contracts/access/Ownable.sol\";\r\nimport \"@openzeppelin/contracts/security/ReentrancyGuard.sol\";\r\n\r\nimport \"../SpacePiratesTokens.sol\";\r\n\r\n/**\r\n * @title Space Pirates MasterChef Contract\r\n * @author @Gr3it, @yuripaoloni (reviewer), @MatteoLeonesi (reviewer)\r\n * @notice Create Staking pools for LPTokens\r\n */\r\n\r\n// MasterChef is the master of the doubloons. He can make doubloons and he is a fair guy.\r\n//\r\n// Note that it's ownable and the owner wields tremendous power. The ownership\r\n// will be transferred to a governance smart contract once ve-asteroids is sufficiently\r\n// distributed and the community can show to govern itself.\r\n//\r\n// Have fun reading it. Hopefully it's bug-free. God bless.\r\ncontract SpacePiratesMasterChef is Ownable, ReentrancyGuard {\r\n    using SafeERC20 for IERC20;\r\n\r\n    // Info of each user.\r\n    struct UserInfo {\r\n        uint256 amount; // How many LP tokens the user has provided.\r\n        uint256 rewardDebt; // Reward debt. See explanation below.\r\n        //\r\n        // We do some fancy math here. Basically, any point in time, the amount of doubloons\r\n        // entitled to a user but is pending to be distributed is:\r\n        //\r\n        //   pending reward = (user.amount * pool.accDoubloonsPerShare) - user.rewardDebt\r\n        //\r\n        // Whenever a user deposits or withdraws LP tokens to a pool. Here's what happens:\r\n        //   1. The pool's `accDoubloonsPerShare` (and `lastRewardBlock`) gets updated.\r\n        //   2. User receives the pending reward sent to his/her address.\r\n        //   3. User's `amount` gets updated.\r\n        //   4. User's `rewardDebt` gets updated.\r\n    }\r\n\r\n    // Info of each pool.\r\n    struct PoolInfo {\r\n        IERC20 lpToken; // Address of LP token contract.\r\n        uint256 allocPoint; // How many allocation points assigned to this pool. Doubloons to distribute per block.\r\n        uint256 lastRewardBlock; // Last block number that Doubloons distribution occurs.\r\n        uint256 accDoubloonsPerShare; // Accumulated Doubloons per share, times 1e12. See below.\r\n        uint16 depositFeeBP; // Deposit fee in basis points\r\n    }\r\n\r\n    // The Doubloons TOKEN!\r\n    SpacePiratesTokens public doubloons;\r\n    // The Doubloons ID!\r\n    uint256 public constant DOUBLOONS_ID = 1;\r\n    // Dev address.\r\n    address public devaddr;\r\n    // doubloons tokens created per block.\r\n    uint256 public doubloonsPerBlock;\r\n    // Bonus muliplier for early Doubloons makers.\r\n    uint256 public constant BONUS_MULTIPLIER = 1;\r\n    // Deposit Fee address\r\n    address public feeAddress;\r\n\r\n    // Info of each pool.\r\n    PoolInfo[] public poolInfo;\r\n    // Info of each user that stakes LP tokens.\r\n    mapping(uint256 => mapping(address => UserInfo)) public userInfo;\r\n    // Total allocation points. Must be the sum of all allocation points in all pools.\r\n    uint256 public totalAllocPoint = 0;\r\n    // The block number when Doubloons mining starts.\r\n    uint256 public startBlock;\r\n\r\n    event Deposit(address indexed user, uint256 indexed pid, uint256 amount);\r\n    event Withdraw(address indexed user, uint256 indexed pid, uint256 amount);\r\n    event EmergencyWithdraw(\r\n        address indexed user,\r\n        uint256 indexed pid,\r\n        uint256 amount\r\n    );\r\n    event SetFeeAddress(address indexed user, address indexed newAddress);\r\n    event SetDevAddress(address indexed user, address indexed newAddress);\r\n    event UpdateEmissionRate(address indexed user, uint256 doubloonsPerBlock);\r\n\r\n    constructor(\r\n        SpacePiratesTokens _doubloons,\r\n        address _devaddr,\r\n        address _feeAddress,\r\n        uint256 _doubloonsPerBlock,\r\n        uint256 _startBlock\r\n    ) {\r\n        doubloons = _doubloons;\r\n        devaddr = _devaddr;\r\n        feeAddress = _feeAddress;\r\n        doubloonsPerBlock = _doubloonsPerBlock;\r\n        startBlock = _startBlock;\r\n    }\r\n\r\n    function poolLength() external view returns (uint256) {\r\n        return poolInfo.length;\r\n    }\r\n\r\n    mapping(IERC20 => bool) public poolExistence;\r\n    modifier nonDuplicated(IERC20 _lpToken) {\r\n        require(poolExistence[_lpToken] == false, \"nonDuplicated: duplicated\");\r\n        _;\r\n    }\r\n\r\n    // Add a new lp to the pool. Can only be called by the owner.\r\n    function add(\r\n        uint256 _allocPoint,\r\n        IERC20 _lpToken,\r\n        uint16 _depositFeeBP,\r\n        bool _withUpdate\r\n    ) public onlyOwner nonDuplicated(_lpToken) {\r\n        require(\r\n            _depositFeeBP <= 10000,\r\n            \"add: invalid deposit fee basis points\"\r\n        );\r\n        if (_withUpdate) {\r\n            massUpdatePools();\r\n        }\r\n        uint256 lastRewardBlock = block.number > startBlock\r\n            ? block.number\r\n            : startBlock;\r\n        totalAllocPoint = totalAllocPoint + _allocPoint;\r\n        poolExistence[_lpToken] = true;\r\n        poolInfo.push(\r\n            PoolInfo({\r\n                lpToken: _lpToken,\r\n                allocPoint: _allocPoint,\r\n                lastRewardBlock: lastRewardBlock,\r\n                accDoubloonsPerShare: 0,\r\n                depositFeeBP: _depositFeeBP\r\n            })\r\n        );\r\n    }\r\n\r\n    // Update the given pool's Doubloons allocation point and deposit fee. Can only be called by the owner.\r\n    function set(\r\n        uint256 _pid,\r\n        uint256 _allocPoint,\r\n        uint16 _depositFeeBP,\r\n        bool _withUpdate\r\n    ) public onlyOwner {\r\n        require(\r\n            _depositFeeBP <= 10000,\r\n            \"set: invalid deposit fee basis points\"\r\n        );\r\n        if (_withUpdate) {\r\n            massUpdatePools();\r\n        }\r\n        totalAllocPoint =\r\n            totalAllocPoint -\r\n            poolInfo[_pid].allocPoint +\r\n            _allocPoint;\r\n        poolInfo[_pid].allocPoint = _allocPoint;\r\n        poolInfo[_pid].depositFeeBP = _depositFeeBP;\r\n    }\r\n\r\n    // Return reward multiplier over the given _from to _to block.\r\n    function getMultiplier(uint256 _from, uint256 _to)\r\n        public\r\n        pure\r\n        returns (uint256)\r\n    {\r\n        return (_to - _from) * BONUS_MULTIPLIER;\r\n    }\r\n\r\n    // View function to see pending Doubloons on frontend.\r\n    function pendingDoubloons(uint256 _pid, address _user)\r\n        external\r\n        view\r\n        returns (uint256)\r\n    {\r\n        PoolInfo storage pool = poolInfo[_pid];\r\n        UserInfo storage user = userInfo[_pid][_user];\r\n        uint256 accDoubloonsPerShare = pool.accDoubloonsPerShare;\r\n        uint256 lpSupply = pool.lpToken.balanceOf(address(this));\r\n        if (block.number > pool.lastRewardBlock && lpSupply != 0) {\r\n            uint256 multiplier = getMultiplier(\r\n                pool.lastRewardBlock,\r\n                block.number\r\n            );\r\n            uint256 doubloonsReward = (multiplier *\r\n                doubloonsPerBlock *\r\n                pool.allocPoint) / totalAllocPoint;\r\n            accDoubloonsPerShare =\r\n                accDoubloonsPerShare +\r\n                ((doubloonsReward * 1e12) / lpSupply);\r\n        }\r\n        return (user.amount * accDoubloonsPerShare) / 1e12 - user.rewardDebt;\r\n    }\r\n\r\n    // Update reward variables for all pools. Be careful of gas spending!\r\n    function massUpdatePools() public {\r\n        uint256 length = poolInfo.length;\r\n        for (uint256 pid = 0; pid < length; ++pid) {\r\n            updatePool(pid);\r\n        }\r\n    }\r\n\r\n    // Update reward variables of the given pool to be up-to-date.\r\n    function updatePool(uint256 _pid) public {\r\n        PoolInfo storage pool = poolInfo[_pid];\r\n        if (block.number <= pool.lastRewardBlock) {\r\n            return;\r\n        }\r\n        uint256 lpSupply = pool.lpToken.balanceOf(address(this));\r\n        if (lpSupply == 0 || pool.allocPoint == 0) {\r\n            pool.lastRewardBlock = block.number;\r\n            return;\r\n        }\r\n        uint256 multiplier = getMultiplier(pool.lastRewardBlock, block.number);\r\n        uint256 doubloonsReward = (multiplier *\r\n            doubloonsPerBlock *\r\n            pool.allocPoint) / totalAllocPoint;\r\n        doubloons.mint(devaddr, DOUBLOONS_ID, doubloonsReward / 10);\r\n        doubloons.mint(address(this), DOUBLOONS_ID, doubloonsReward);\r\n        pool.accDoubloonsPerShare =\r\n            pool.accDoubloonsPerShare +\r\n            ((doubloonsReward * 1e12) / lpSupply);\r\n        pool.lastRewardBlock = block.number;\r\n    }\r\n\r\n    // Deposit LP tokens to MasterChef for Doubloons allocation.\r\n    function deposit(uint256 _pid, uint256 _amount) public nonReentrant {\r\n        PoolInfo storage pool = poolInfo[_pid];\r\n        UserInfo storage user = userInfo[_pid][msg.sender];\r\n        updatePool(_pid);\r\n        if (user.amount > 0) {\r\n            uint256 pending = (user.amount * pool.accDoubloonsPerShare) /\r\n                1e12 -\r\n                user.rewardDebt;\r\n            if (pending > 0) {\r\n                safeDoubloonsTransfer(msg.sender, pending);\r\n            }\r\n        }\r\n        if (_amount > 0) {\r\n            pool.lpToken.safeTransferFrom(\r\n                address(msg.sender),\r\n                address(this),\r\n                _amount\r\n            );\r\n            if (pool.depositFeeBP > 0) {\r\n                uint256 depositFee = (_amount * pool.depositFeeBP) / 10000;\r\n                pool.lpToken.safeTransfer(feeAddress, depositFee);\r\n                user.amount = user.amount + _amount - depositFee;\r\n            } else {\r\n                user.amount = user.amount + _amount;\r\n            }\r\n        }\r\n        user.rewardDebt = (user.amount * pool.accDoubloonsPerShare) / 1e12;\r\n        emit Deposit(msg.sender, _pid, _amount);\r\n    }\r\n\r\n    // Withdraw LP tokens from MasterChef.\r\n    function withdraw(uint256 _pid, uint256 _amount) public nonReentrant {\r\n        PoolInfo storage pool = poolInfo[_pid];\r\n        UserInfo storage user = userInfo[_pid][msg.sender];\r\n        require(user.amount >= _amount, \"withdraw: not good\");\r\n        updatePool(_pid);\r\n        uint256 pending = ((user.amount * pool.accDoubloonsPerShare) / 1e12) -\r\n            (user.rewardDebt);\r\n        if (pending > 0) {\r\n            safeDoubloonsTransfer(msg.sender, pending);\r\n        }\r\n        if (_amount > 0) {\r\n            user.amount = user.amount - _amount;\r\n            pool.lpToken.safeTransfer(address(msg.sender), _amount);\r\n        }\r\n        user.rewardDebt = (user.amount * pool.accDoubloonsPerShare) / 1e12;\r\n        emit Withdraw(msg.sender, _pid, _amount);\r\n    }\r\n\r\n    // Withdraw without caring about rewards. EMERGENCY ONLY.\r\n    function emergencyWithdraw(uint256 _pid) public nonReentrant {\r\n        PoolInfo storage pool = poolInfo[_pid];\r\n        UserInfo storage user = userInfo[_pid][msg.sender];\r\n        uint256 amount = user.amount;\r\n        user.amount = 0;\r\n        user.rewardDebt = 0;\r\n        pool.lpToken.safeTransfer(address(msg.sender), amount);\r\n        emit EmergencyWithdraw(msg.sender, _pid, amount);\r\n    }\r\n\r\n    // Safe Doubloons transfer function, just in case if rounding error causes pool to not have enough Doubloons.\r\n    function safeDoubloonsTransfer(address _to, uint256 _amount) internal {\r\n        uint256 doubloonsBal = doubloons.balanceOf(address(this), DOUBLOONS_ID);\r\n        if (_amount > doubloonsBal) {\r\n            doubloons.safeTransferFrom(\r\n                address(this),\r\n                _to,\r\n                DOUBLOONS_ID,\r\n                doubloonsBal,\r\n                \"\"\r\n            );\r\n        } else {\r\n            doubloons.safeTransferFrom(\r\n                address(this),\r\n                _to,\r\n                DOUBLOONS_ID,\r\n                _amount,\r\n                \"\"\r\n            );\r\n        }\r\n    }\r\n\r\n    // Update dev address by the previous dev.\r\n    function dev(address _devaddr) public {\r\n        require(msg.sender == devaddr, \"dev: wut?\");\r\n        devaddr = _devaddr;\r\n        emit SetDevAddress(msg.sender, _devaddr);\r\n    }\r\n\r\n    function setFeeAddress(address _feeAddress) public {\r\n        require(msg.sender == feeAddress, \"setFeeAddress: FORBIDDEN\");\r\n        feeAddress = _feeAddress;\r\n        emit SetFeeAddress(msg.sender, _feeAddress);\r\n    }\r\n\r\n    //Pancake has to add hidden dummy pools inorder to alter the emission, here we make it simple and transparent to all.\r\n    function updateEmissionRate(uint256 _doubloonsPerBlock) public onlyOwner {\r\n        massUpdatePools();\r\n        doubloonsPerBlock = _doubloonsPerBlock;\r\n        emit UpdateEmissionRate(msg.sender, _doubloonsPerBlock);\r\n    }\r\n}\r\n",
  "sourcePath": "C:/Users/emanu/space-pirates-contracts/contracts/dex/SpacePiratesMasterChef.sol",
  "compiler": {
    "name": "solc",
    "version": "0.8.6+commit.0e36fba0.mod.Emscripten.clang"
  },
  "schemaVersion": "2.0.1",
  "updatedAt": "2022-07-23T23:58:53.779Z"
}