{
  "contractName": "SpacePiratesItemsMarketPlace",
  "abi": [
    {
      "inputs": [
        {
          "internalType": "contract SpacePiratesTokens",
          "name": "_tokenContract",
          "type": "address"
        }
      ],
      "stateMutability": "nonpayable",
      "type": "constructor"
    },
    {
      "anonymous": false,
      "inputs": [
        {
          "indexed": true,
          "internalType": "uint256[]",
          "name": "itemsIds",
          "type": "uint256[]"
        },
        {
          "indexed": false,
          "internalType": "uint256[]",
          "name": "itemsQuantities",
          "type": "uint256[]"
        },
        {
          "indexed": false,
          "internalType": "uint128",
          "name": "paymentId",
          "type": "uint128"
        },
        {
          "indexed": false,
          "internalType": "uint128",
          "name": "price",
          "type": "uint128"
        },
        {
          "indexed": false,
          "internalType": "uint120",
          "name": "saleEnd",
          "type": "uint120"
        },
        {
          "indexed": false,
          "internalType": "uint120",
          "name": "available",
          "type": "uint120"
        },
        {
          "indexed": false,
          "internalType": "uint16",
          "name": "maxBuyPerAddress",
          "type": "uint16"
        }
      ],
      "name": "AddItems",
      "type": "event"
    },
    {
      "anonymous": false,
      "inputs": [
        {
          "indexed": true,
          "internalType": "uint256[]",
          "name": "itemsIds",
          "type": "uint256[]"
        },
        {
          "indexed": false,
          "internalType": "uint128",
          "name": "paymentId",
          "type": "uint128"
        },
        {
          "indexed": false,
          "internalType": "uint128",
          "name": "price",
          "type": "uint128"
        },
        {
          "indexed": false,
          "internalType": "uint64",
          "name": "quantity",
          "type": "uint64"
        }
      ],
      "name": "BuyItem",
      "type": "event"
    },
    {
      "anonymous": false,
      "inputs": [
        {
          "indexed": true,
          "internalType": "address",
          "name": "previousOwner",
          "type": "address"
        },
        {
          "indexed": true,
          "internalType": "address",
          "name": "newOwner",
          "type": "address"
        }
      ],
      "name": "OwnershipTransferred",
      "type": "event"
    },
    {
      "inputs": [
        {
          "internalType": "uint256",
          "name": "saleIndex",
          "type": "uint256"
        },
        {
          "internalType": "uint16",
          "name": "quantity",
          "type": "uint16"
        }
      ],
      "name": "buyItem",
      "outputs": [],
      "stateMutability": "nonpayable",
      "type": "function"
    },
    {
      "inputs": [
        {
          "internalType": "uint256[]",
          "name": "itemsIds",
          "type": "uint256[]"
        },
        {
          "internalType": "uint256[]",
          "name": "itemsQuantities",
          "type": "uint256[]"
        },
        {
          "internalType": "uint128",
          "name": "paymentId",
          "type": "uint128"
        },
        {
          "internalType": "uint128",
          "name": "price",
          "type": "uint128"
        },
        {
          "internalType": "uint120",
          "name": "saleEnd",
          "type": "uint120"
        },
        {
          "internalType": "uint120",
          "name": "available",
          "type": "uint120"
        },
        {
          "internalType": "uint16",
          "name": "maxBuyPerAddress",
          "type": "uint16"
        }
      ],
      "name": "createSale",
      "outputs": [],
      "stateMutability": "nonpayable",
      "type": "function"
    },
    {
      "inputs": [
        {
          "internalType": "uint256",
          "name": "",
          "type": "uint256"
        }
      ],
      "name": "itemsOnSale",
      "outputs": [
        {
          "internalType": "uint256",
          "name": "",
          "type": "uint256"
        }
      ],
      "stateMutability": "view",
      "type": "function"
    },
    {
      "inputs": [],
      "name": "itemsOnSaleArray",
      "outputs": [
        {
          "internalType": "uint256[]",
          "name": "",
          "type": "uint256[]"
        }
      ],
      "stateMutability": "view",
      "type": "function"
    },
    {
      "inputs": [],
      "name": "owner",
      "outputs": [
        {
          "internalType": "address",
          "name": "",
          "type": "address"
        }
      ],
      "stateMutability": "view",
      "type": "function"
    },
    {
      "inputs": [],
      "name": "renounceOwnership",
      "outputs": [],
      "stateMutability": "nonpayable",
      "type": "function"
    },
    {
      "inputs": [
        {
          "internalType": "uint256",
          "name": "",
          "type": "uint256"
        },
        {
          "internalType": "uint256",
          "name": "",
          "type": "uint256"
        }
      ],
      "name": "saleIndexes",
      "outputs": [
        {
          "internalType": "uint256",
          "name": "",
          "type": "uint256"
        }
      ],
      "stateMutability": "view",
      "type": "function"
    },
    {
      "inputs": [
        {
          "internalType": "uint256",
          "name": "saleIndex",
          "type": "uint256"
        }
      ],
      "name": "saleItemsIds",
      "outputs": [
        {
          "internalType": "uint256[]",
          "name": "",
          "type": "uint256[]"
        }
      ],
      "stateMutability": "view",
      "type": "function"
    },
    {
      "inputs": [
        {
          "internalType": "uint256",
          "name": "saleIndex",
          "type": "uint256"
        }
      ],
      "name": "saleItemsQuantities",
      "outputs": [
        {
          "internalType": "uint256[]",
          "name": "",
          "type": "uint256[]"
        }
      ],
      "stateMutability": "view",
      "type": "function"
    },
    {
      "inputs": [
        {
          "internalType": "uint256",
          "name": "",
          "type": "uint256"
        }
      ],
      "name": "sales",
      "outputs": [
        {
          "internalType": "uint128",
          "name": "paymentId",
          "type": "uint128"
        },
        {
          "internalType": "uint128",
          "name": "price",
          "type": "uint128"
        },
        {
          "internalType": "uint120",
          "name": "saleEnd",
          "type": "uint120"
        },
        {
          "internalType": "uint120",
          "name": "available",
          "type": "uint120"
        },
        {
          "internalType": "uint16",
          "name": "maxBuyPerAddress",
          "type": "uint16"
        }
      ],
      "stateMutability": "view",
      "type": "function"
    },
    {
      "inputs": [],
      "name": "salesAmount",
      "outputs": [
        {
          "internalType": "uint256",
          "name": "amount",
          "type": "uint256"
        }
      ],
      "stateMutability": "view",
      "type": "function"
    },
    {
      "inputs": [
        {
          "internalType": "uint256",
          "name": "id",
          "type": "uint256"
        }
      ],
      "name": "salesIndexesFromId",
      "outputs": [
        {
          "internalType": "uint256[]",
          "name": "",
          "type": "uint256[]"
        }
      ],
      "stateMutability": "view",
      "type": "function"
    },
    {
      "inputs": [],
      "name": "tokenContract",
      "outputs": [
        {
          "internalType": "contract SpacePiratesTokens",
          "name": "",
          "type": "address"
        }
      ],
      "stateMutability": "view",
      "type": "function"
    },
    {
      "inputs": [
        {
          "internalType": "address",
          "name": "newOwner",
          "type": "address"
        }
      ],
      "name": "transferOwnership",
      "outputs": [],
      "stateMutability": "nonpayable",
      "type": "function"
    }
  ],
  "bytecode": "0x60a060405234801561001057600080fd5b50d3801561001d57600080fd5b50d2801561002a57600080fd5b506040516200173c3803806200173c83398101604081905261004b916100b9565b61005433610069565b60601b6001600160601b0319166080526100f2565b600080546001600160a01b038381166001600160a01b0319831681178455604051919092169283917f8be0079c531659141344cd1fd0a4f28419497f9722a3daafe3b4186f6b6457e09190a35050565b6000602082840312156100cb57600080fd5b81516001600160a81b03811681146100e257600080fd5b6001600160a01b03169392505050565b60805160601c61161d6200011f6000396000818161016b01528181610e7a0152610f4c015261161d6000f3fe608060405234801561001057600080fd5b50d3801561001d57600080fd5b50d2801561002a57600080fd5b50600436106101045760003560e01c8063859b91b3116100a65780639357de65116100805780639357de65146101f6578063b5f522f714610209578063cee808871461025f578063f2fde38b1461027257600080fd5b8063859b91b3146101ca5780638da5cb5b146101d2578063929ace96146101e357600080fd5b806355a373d6116100e257806355a373d6146101665780635748966c146101a5578063715018a6146101ad57806372502d3b146101b757600080fd5b80632f6aebac146101095780633ce8f04d146101325780633fcab61914610153575b600080fd5b61011c610117366004611303565b610285565b60405161012991906114c3565b60405180910390f35b610145610140366004611303565b6103c8565b604051908152602001610129565b61011c610161366004611303565b6103e9565b61018d7f000000000000000000000000000000000000000000000000000000000000000081565b6040516001600160a01b039091168152602001610129565b600154610145565b6101b561044b565b005b61011c6101c5366004611303565b61048a565b61011c6105c8565b6000546001600160a01b031661018d565b6101b56101f1366004611241565b610620565b610145610204366004611348565b6109e9565b61021c610217366004611303565b610a1a565b604080516001600160801b0396871681529590941660208601526001600160781b039283169385019390935216606083015261ffff16608082015260a001610129565b6101b561026d36600461131c565b610a83565b6101b5610280366004611208565b61102c565b606060006001838154811061029c5761029c6115d1565b90600052602060002090600402016040518060e00160405290816000820180548060200260200160405190810160405280929190818152602001828054801561030457602002820191906000526020600020905b8154815260200190600101908083116102f0575b505050505081526020016001820180548060200260200160405190810160405280929190818152602001828054801561035c57602002820191906000526020600020905b815481526020019060010190808311610348575b505050918352505060028201546001600160801b03808216602080850191909152600160801b9092041660408301526003909201546001600160781b038082166060840152600160781b8204166080830152600160f01b900461ffff1660a09091015201519392505050565b600481815481106103d857600080fd5b600091825260209091200154905081565b60008181526003602090815260409182902080548351818402810184019094528084526060939283018282801561043f57602002820191906000526020600020905b81548152602001906001019080831161042b575b50505050509050919050565b6000546001600160a01b0316331461047e5760405162461bcd60e51b8152600401610475906114dd565b60405180910390fd5b61048860006110c7565b565b60606000600183815481106104a1576104a16115d1565b90600052602060002090600402016040518060e00160405290816000820180548060200260200160405190810160405280929190818152602001828054801561050957602002820191906000526020600020905b8154815260200190600101908083116104f5575b505050505081526020016001820180548060200260200160405190810160405280929190818152602001828054801561056157602002820191906000526020600020905b81548152602001906001019080831161054d575b505050918352505060028201546001600160801b038082166020840152600160801b9091041660408201526003909101546001600160781b038082166060840152600160781b8204166080830152600160f01b900461ffff1660a090910152519392505050565b6060600480548060200260200160405190810160405280929190818152602001828054801561061657602002820191906000526020600020905b815481526020019060010190808311610602575b5050505050905090565b6000546001600160a01b0316331461064a5760405162461bcd60e51b8152600401610475906114dd565b8786146106bf5760405162461bcd60e51b815260206004820152603860248201527f5370616365506972617465734974656d734d61726b6574506c6163653a20617260448201527f726179207769746820646966666572656e742073697a657300000000000000006064820152608401610475565b60015460005b8981101561080e5760008b8b838181106106e1576106e16115d1565b905060200201359050614e2081101580156106ff57506201869f8111155b8061071957506103e88110158015610719575061270f8111155b806107355750620186a08110158015610735575062030d3f8111155b6107925760405162461bcd60e51b815260206004820152602860248201527f5370616365506972617465734974656d734d61726b6574506c6163653a20696e6044820152671d985b1a59081a5960c21b6064820152608401610475565b6000818152600360205260409020546107db57600480546001810182556000919091527f8a35acfbc15ff81a39ae7d344fd709f28e8600b4aa8c65c6b64bfe7fe36bd19b018190555b60009081526003602090815260408220805460018101825590835291200182905580610806816115a0565b9150506106c5565b506040805161010060208c02808301820190935260e082018c815260019383928f918f918291908601908490808284376000920191909152505050908252506040805160208c810282810182019093528c82529283019290918d918d91829185019084908082843760009201829052509385525050506001600160801b03808b16602080850191909152908a1660408401526001600160781b03808a1660608501528816608084015261ffff871660a0909301929092528354600181018555938152819020825180519394600402909101926108ed9284920190611117565b5060208281015180516109069260018501920190611117565b5060408281015160608401516001600160801b03908116600160801b02911617600283015560808301516003909201805460a085015160c09095015161ffff16600160f01b026001600160f01b036001600160781b03968716600160781b026001600160f01b03199093169690951695909517179290921692909217905551610992908b908b906113a5565b60405180910390207f78c95d9715811ba8c31d9a40c16bb5fa7a26cc1fc741d1ca2012eee127fa1b4e898989898989896040516109d59796959493929190611447565b60405180910390a250505050505050505050565b60036020528160005260406000208181548110610a0557600080fd5b90600052602060002001600091509150505481565b60018181548110610a2a57600080fd5b6000918252602090912060049091020160028101546003909101546001600160801b038083169350600160801b909204909116906001600160781b0380821691600160781b810490911690600160f01b900461ffff1685565b600060018381548110610a9857610a986115d1565b90600052602060002090600402016040518060e001604052908160008201805480602002602001604051908101604052809291908181526020018280548015610b0057602002820191906000526020600020905b815481526020019060010190808311610aec575b5050505050815260200160018201805480602002602001604051908101604052809291908181526020018280548015610b5857602002820191906000526020600020905b815481526020019060010190808311610b44575b505050918352505060028201546001600160801b038082166020840152600160801b9091041660408201526003909101546001600160781b038082166060840152600160781b82048116608080850191909152600160f01b90920461ffff1660a090930192909252820151919250161580610be057504281608001516001600160781b031610155b610c3d5760405162461bcd60e51b815260206004820152602860248201527f5370616365506972617465734974656d734d61726b6574506c6163653a2073616044820152671b1948195b99195960c21b6064820152608401610475565b60a08101516001600160781b0390811614610d48578060a001516001600160781b03168261ffff161115610cd95760405162461bcd60e51b815260206004820152603b60248201527f5370616365506972617465734974656d734d61726b6574506c6163653a20627560448201527f792065786365656420617661696c61626c65207175616e7469747900000000006064820152608401610475565b8161ffff1660018481548110610cf157610cf16115d1565b9060005260206000209060040201600301600f8282829054906101000a90046001600160781b0316610d239190611578565b92506101000a8154816001600160781b0302191690836001600160781b031602179055505b60c081015161ffff1615610e255760c0810151600084815260026020908152604080832033845290915290205461ffff91821691610d899190851690611512565b1115610df25760405162461bcd60e51b815260206004820152603260248201527f5370616365506972617465734974656d734d61726b6574506c6163653a20657860448201527118d95959081d5cd95c881b585e081b5a5b9d60721b6064820152608401610475565b60008381526002602090815260408083203384529091528120805461ffff85169290610e1f908490611512565b90915550505b60005b816020015151811015610e77578261ffff1682602001518281518110610e5057610e506115d1565b60200260200101818151610e649190611559565b905250610e70816115a0565b9050610e28565b507f00000000000000000000000000000000000000000000000000000000000000006001600160a01b031663f5298aca33836040015184606001518661ffff16610ec1919061152a565b6040516001600160e01b031960e086901b1681526001600160a01b0390931660048401526001600160801b039182166024840152166044820152606401600060405180830381600087803b158015610f1857600080fd5b505af1158015610f2c573d6000803e3d6000fd5b50508251602084015160405163d81d0a1560e01b81526001600160a01b037f000000000000000000000000000000000000000000000000000000000000000016945063d81d0a159350610f859233929091600401611407565b600060405180830381600087803b158015610f9f57600080fd5b505af1158015610fb3573d6000803e3d6000fd5b50508251604051610fc793509091506113d1565b60408051918290038220838201516060808601516001600160801b03928316865291909116602085015261ffff861684840152915190927f7fb1a40cec4405e7339d5d284136ff7a8368422a91f1523b5b530d18bc56264992908290030190a2505050565b6000546001600160a01b031633146110565760405162461bcd60e51b8152600401610475906114dd565b6001600160a01b0381166110bb5760405162461bcd60e51b815260206004820152602660248201527f4f776e61626c653a206e6577206f776e657220697320746865207a65726f206160448201526564647265737360d01b6064820152608401610475565b6110c4816110c7565b50565b600080546001600160a01b038381166001600160a01b0319831681178455604051919092169283917f8be0079c531659141344cd1fd0a4f28419497f9722a3daafe3b4186f6b6457e09190a35050565b828054828255906000526020600020908101928215611152579160200282015b82811115611152578251825591602001919060010190611137565b5061115e929150611162565b5090565b5b8082111561115e5760008155600101611163565b60008083601f84011261118957600080fd5b50813567ffffffffffffffff8111156111a157600080fd5b6020830191508360208260051b85010111156111bc57600080fd5b9250929050565b80356001600160781b03811681146111da57600080fd5b919050565b80356001600160801b03811681146111da57600080fd5b803561ffff811681146111da57600080fd5b60006020828403121561121a57600080fd5b81356001600160a81b038116811461123157600080fd5b6001600160a01b03169392505050565b600080600080600080600080600060e08a8c03121561125f57600080fd5b893567ffffffffffffffff8082111561127757600080fd5b6112838d838e01611177565b909b50995060208c013591508082111561129c57600080fd5b506112a98c828d01611177565b90985096506112bc905060408b016111df565b94506112ca60608b016111df565b93506112d860808b016111c3565b92506112e660a08b016111c3565b91506112f460c08b016111f6565b90509295985092959850929598565b60006020828403121561131557600080fd5b5035919050565b6000806040838503121561132f57600080fd5b8235915061133f602084016111f6565b90509250929050565b6000806040838503121561135b57600080fd5b50508035926020909101359150565b600081518084526020808501945080840160005b8381101561139a5781518752958201959082019060010161137e565b509495945050505050565b60006001600160fb1b038311156113bb57600080fd5b8260051b80858437600092019182525092915050565b815160009082906020808601845b838110156113fb578151855293820193908201906001016113df565b50929695505050505050565b6001600160a01b038416815260606020820181905260009061142b9083018561136a565b828103604084015261143d818561136a565b9695505050505050565b60c0808252810187905260006001600160fb1b0388111561146757600080fd5b8760051b808a60e0850137600090830160e0019081526001600160801b0397881660208401529590961660408201526001600160781b03938416606082015291909216608082015261ffff9190911660a0909101529392505050565b6020815260006114d6602083018461136a565b9392505050565b6020808252818101527f4f776e61626c653a2063616c6c6572206973206e6f7420746865206f776e6572604082015260600190565b60008219821115611525576115256115bb565b500190565b60006001600160801b0380831681851681830481118215151615611550576115506115bb565b02949350505050565b6000816000190483118215151615611573576115736115bb565b500290565b60006001600160781b0383811690831681811015611598576115986115bb565b039392505050565b60006000198214156115b4576115b46115bb565b5060010190565b634e487b7160e01b600052601160045260246000fd5b634e487b7160e01b600052603260045260246000fdfea26474726f6e5822122075ea5bb1eb9aaa0f876bdcea920105f1220b91a6368d6751048628d16f5c5bcd64736f6c63430008060033",
  "source": "// SPDX-License-Identifier: unlicense\r\npragma solidity ^0.8.0;\r\n\r\nimport \"@openzeppelin/contracts/access/Ownable.sol\";\r\nimport \"./SpacePiratesTokens.sol\";\r\n\r\n/**\r\n * @title Space Pirates Items Market Place\r\n * @author @Gr3it, @yuripaoloni (reviewer)\r\n * @notice Create sales of items, titles and battle fields\r\n */\r\n\r\ncontract SpacePiratesItemsMarketPlace is Ownable {\r\n    SpacePiratesTokens public immutable tokenContract;\r\n\r\n    event AddItems(\r\n        uint256[] indexed itemsIds,\r\n        uint256[] itemsQuantities,\r\n        uint128 paymentId,\r\n        uint128 price,\r\n        uint120 saleEnd,\r\n        uint120 available,\r\n        uint16 maxBuyPerAddress\r\n    );\r\n\r\n    event BuyItem(\r\n        uint256[] indexed itemsIds,\r\n        uint128 paymentId,\r\n        uint128 price,\r\n        uint64 quantity\r\n    );\r\n\r\n    struct Sale {\r\n        uint256[] itemsIds;\r\n        uint256[] itemsQuantities;\r\n        uint128 paymentId;\r\n        uint128 price;\r\n        uint120 saleEnd; // 0 for a continued sale\r\n        uint120 available; // type(uint120).max for unlimited supply\r\n        uint16 maxBuyPerAddress; // 0 for unlimited amount\r\n    }\r\n\r\n    Sale[] public sales;\r\n    mapping(uint256 => mapping(address => uint256)) bought; // SaleIndex -> Address -> Number Of Items bought\r\n    mapping(uint256 => uint256[]) public saleIndexes; // store the indexes of the sales that include the items\r\n    uint256[] public itemsOnSale;\r\n\r\n    constructor(SpacePiratesTokens _tokenContract) {\r\n        tokenContract = _tokenContract;\r\n    }\r\n\r\n    function itemsOnSaleArray() external view returns (uint256[] memory) {\r\n        return itemsOnSale;\r\n    }\r\n\r\n    function salesIndexesFromId(uint256 id)\r\n        external\r\n        view\r\n        returns (uint256[] memory)\r\n    {\r\n        return saleIndexes[id];\r\n    }\r\n\r\n    function salesAmount() external view returns (uint256 amount) {\r\n        return sales.length;\r\n    }\r\n\r\n    function saleItemsIds(uint256 saleIndex)\r\n        external\r\n        view\r\n        returns (uint256[] memory)\r\n    {\r\n        Sale memory sale = sales[saleIndex];\r\n        return sale.itemsIds;\r\n    }\r\n\r\n    function saleItemsQuantities(uint256 saleIndex)\r\n        external\r\n        view\r\n        returns (uint256[] memory)\r\n    {\r\n        Sale memory sale = sales[saleIndex];\r\n        return sale.itemsQuantities;\r\n    }\r\n\r\n    function createSale(\r\n        uint256[] calldata itemsIds,\r\n        uint256[] calldata itemsQuantities,\r\n        uint128 paymentId,\r\n        uint128 price,\r\n        uint120 saleEnd,\r\n        uint120 available,\r\n        uint16 maxBuyPerAddress\r\n    ) external onlyOwner {\r\n        require(\r\n            itemsIds.length == itemsQuantities.length,\r\n            \"SpacePiratesItemsMarketPlace: array with different sizes\"\r\n        );\r\n\r\n        uint256 saleIndex = sales.length;\r\n        for (uint256 i = 0; i < itemsIds.length; i++) {\r\n            uint256 itemsId = itemsIds[i];\r\n            require(\r\n                (itemsId >= 20_000 && itemsId <= 99_999) ||\r\n                    (itemsId >= 1_000 && itemsId <= 9_999) ||\r\n                    (itemsId >= 100_000 && itemsId <= 199_999),\r\n                \"SpacePiratesItemsMarketPlace: invalid id\"\r\n            );\r\n            if (saleIndexes[itemsId].length == 0) {\r\n                itemsOnSale.push(itemsId);\r\n            }\r\n            saleIndexes[itemsId].push(saleIndex);\r\n        }\r\n\r\n        sales.push(\r\n            Sale(\r\n                itemsIds,\r\n                itemsQuantities,\r\n                paymentId,\r\n                price,\r\n                saleEnd,\r\n                available,\r\n                maxBuyPerAddress\r\n            )\r\n        );\r\n\r\n        emit AddItems(\r\n            itemsIds,\r\n            itemsQuantities,\r\n            paymentId,\r\n            price,\r\n            saleEnd,\r\n            available,\r\n            maxBuyPerAddress\r\n        );\r\n    }\r\n\r\n    function buyItem(uint256 saleIndex, uint16 quantity) external {\r\n        Sale memory sale = sales[saleIndex];\r\n        require(\r\n            sale.saleEnd == 0 || sale.saleEnd >= block.timestamp,\r\n            \"SpacePiratesItemsMarketPlace: sale ended\"\r\n        );\r\n        if (sale.available != type(uint120).max) {\r\n            require(\r\n                quantity <= sale.available,\r\n                \"SpacePiratesItemsMarketPlace: buy exceed available quantity\"\r\n            );\r\n            sales[saleIndex].available -= quantity;\r\n        }\r\n        if (sale.maxBuyPerAddress != 0) {\r\n            require(\r\n                bought[saleIndex][msg.sender] + quantity <=\r\n                    sale.maxBuyPerAddress,\r\n                \"SpacePiratesItemsMarketPlace: exceed user max mint\"\r\n            );\r\n            bought[saleIndex][msg.sender] += quantity;\r\n        }\r\n        for (uint256 i = 0; i < sale.itemsQuantities.length; ++i) {\r\n            sale.itemsQuantities[i] *= quantity;\r\n        }\r\n\r\n        tokenContract.burn(msg.sender, sale.paymentId, quantity * sale.price);\r\n        tokenContract.mintBatch(\r\n            msg.sender,\r\n            sale.itemsIds,\r\n            sale.itemsQuantities\r\n        );\r\n\r\n        emit BuyItem(sale.itemsIds, sale.paymentId, sale.price, quantity);\r\n    }\r\n}\r\n",
  "sourcePath": "C:/Users/emanu/space-pirates-contracts/contracts/SpacePiratesItemsMarketPlace.sol",
  "compiler": {
    "name": "solc",
    "version": "0.8.6+commit.0e36fba0.mod.Emscripten.clang"
  },
  "schemaVersion": "2.0.1",
  "updatedAt": "2022-07-23T23:58:53.751Z"
}