{
  "contractName": "SpacePiratesFaucet",
  "abi": [
    {
      "inputs": [
        {
          "internalType": "contract SpacePiratesTokens",
          "name": "_tokenContract",
          "type": "address"
        }
      ],
      "stateMutability": "nonpayable",
      "type": "constructor"
    },
    {
      "anonymous": false,
      "inputs": [
        {
          "indexed": true,
          "internalType": "address",
          "name": "previousOwner",
          "type": "address"
        },
        {
          "indexed": true,
          "internalType": "address",
          "name": "newOwner",
          "type": "address"
        }
      ],
      "name": "OwnershipTransferred",
      "type": "event"
    },
    {
      "anonymous": false,
      "inputs": [
        {
          "indexed": true,
          "internalType": "uint256",
          "name": "tokenId",
          "type": "uint256"
        },
        {
          "indexed": false,
          "internalType": "uint256",
          "name": "mintLimit",
          "type": "uint256"
        }
      ],
      "name": "SetMintLimit",
      "type": "event"
    },
    {
      "anonymous": false,
      "inputs": [
        {
          "indexed": true,
          "internalType": "address",
          "name": "to",
          "type": "address"
        },
        {
          "indexed": true,
          "internalType": "uint256",
          "name": "tokenId",
          "type": "uint256"
        },
        {
          "indexed": false,
          "internalType": "uint256",
          "name": "value",
          "type": "uint256"
        }
      ],
      "name": "TokenMint",
      "type": "event"
    },
    {
      "inputs": [],
      "name": "getSupportedTokens",
      "outputs": [
        {
          "internalType": "uint256[]",
          "name": "",
          "type": "uint256[]"
        }
      ],
      "stateMutability": "view",
      "type": "function"
    },
    {
      "inputs": [
        {
          "internalType": "uint256",
          "name": "tokenId",
          "type": "uint256"
        },
        {
          "internalType": "uint256",
          "name": "amount",
          "type": "uint256"
        }
      ],
      "name": "mintToken",
      "outputs": [],
      "stateMutability": "nonpayable",
      "type": "function"
    },
    {
      "inputs": [],
      "name": "owner",
      "outputs": [
        {
          "internalType": "address",
          "name": "",
          "type": "address"
        }
      ],
      "stateMutability": "view",
      "type": "function"
    },
    {
      "inputs": [],
      "name": "renounceOwnership",
      "outputs": [],
      "stateMutability": "nonpayable",
      "type": "function"
    },
    {
      "inputs": [
        {
          "internalType": "uint256",
          "name": "tokenId",
          "type": "uint256"
        },
        {
          "internalType": "uint256",
          "name": "mintLimit",
          "type": "uint256"
        }
      ],
      "name": "setMintLimit",
      "outputs": [],
      "stateMutability": "nonpayable",
      "type": "function"
    },
    {
      "inputs": [
        {
          "internalType": "uint256",
          "name": "",
          "type": "uint256"
        }
      ],
      "name": "supportedTokens",
      "outputs": [
        {
          "internalType": "uint256",
          "name": "",
          "type": "uint256"
        }
      ],
      "stateMutability": "view",
      "type": "function"
    },
    {
      "inputs": [],
      "name": "tokenContract",
      "outputs": [
        {
          "internalType": "contract SpacePiratesTokens",
          "name": "",
          "type": "address"
        }
      ],
      "stateMutability": "view",
      "type": "function"
    },
    {
      "inputs": [
        {
          "internalType": "uint256",
          "name": "",
          "type": "uint256"
        }
      ],
      "name": "tokenMintLimit",
      "outputs": [
        {
          "internalType": "uint256",
          "name": "",
          "type": "uint256"
        }
      ],
      "stateMutability": "view",
      "type": "function"
    },
    {
      "inputs": [
        {
          "internalType": "address",
          "name": "newOwner",
          "type": "address"
        }
      ],
      "name": "transferOwnership",
      "outputs": [],
      "stateMutability": "nonpayable",
      "type": "function"
    }
  ],
  "bytecode": "0x60a060405234801561001057600080fd5b50d3801561001d57600080fd5b50d2801561002a57600080fd5b5060405161076a38038061076a833981016040819052610049916100b7565b61005233610067565b60601b6001600160601b0319166080526100f0565b600080546001600160a01b038381166001600160a01b0319831681178455604051919092169283917f8be0079c531659141344cd1fd0a4f28419497f9722a3daafe3b4186f6b6457e09190a35050565b6000602082840312156100c957600080fd5b81516001600160a81b03811681146100e057600080fd5b6001600160a01b03169392505050565b60805160601c6106566101146000396000818160cc015261023601526106566000f3fe608060405234801561001057600080fd5b50d3801561001d57600080fd5b50d2801561002a57600080fd5b50600436106100ad5760003560e01c8063715018a611610080578063715018a61461014c5780638da5cb5b14610154578063c625562614610165578063d3c7c2c714610178578063f2fde38b1461018d57600080fd5b806320cbf5f9146100b257806355a373d6146100c75780635e10eb511461010b5780636fad40d514610139575b600080fd5b6100c56100c0366004610585565b6101a0565b005b6100ee7f000000000000000000000000000000000000000000000000000000000000000081565b6040516001600160a01b0390911681526020015b60405180910390f35b61012b61011936600461056c565b60016020526000908152604090205481565b604051908152602001610102565b6100c5610147366004610585565b6102d5565b6100c5610399565b6000546001600160a01b03166100ee565b61012b61017336600461056c565b6103cf565b6101806103f0565b60405161010291906105a7565b6100c561019b366004610533565b610448565b6000828152600160205260409020548111156102135760405162461bcd60e51b815260206004820152602760248201527f5370616365506972617465734661756365743a206d696e74206c696d697420656044820152661e18d95959195960ca1b60648201526084015b60405180910390fd5b604051630ab714fb60e11b815233600482015260248101839052604481018290527f00000000000000000000000000000000000000000000000000000000000000006001600160a01b03169063156e29f690606401600060405180830381600087803b15801561028257600080fd5b505af1158015610296573d6000803e3d6000fd5b50506040518381528492503391507f2cb7ded13a095089a18b8ad95c663730c3ff5339d3aa328fe7913d97ba3014ef9060200160405180910390a35050565b6000546001600160a01b031633146102ff5760405162461bcd60e51b815260040161020a906105eb565b60008281526001602052604090205461034857600280546001810182556000919091527f405787fa12a823e0f2b7631cc41b3ba8828b3321ca811111fa75cd3aa3bb5ace018290555b600082815260016020526040908190208290555182907fbec9fa51a19118a74ef477f3ec3be93e6d3d286d642e803907752aa8f48fd1719061038d9084815260200190565b60405180910390a25050565b6000546001600160a01b031633146103c35760405162461bcd60e51b815260040161020a906105eb565b6103cd60006104e3565b565b600281815481106103df57600080fd5b600091825260209091200154905081565b6060600280548060200260200160405190810160405280929190818152602001828054801561043e57602002820191906000526020600020905b81548152602001906001019080831161042a575b5050505050905090565b6000546001600160a01b031633146104725760405162461bcd60e51b815260040161020a906105eb565b6001600160a01b0381166104d75760405162461bcd60e51b815260206004820152602660248201527f4f776e61626c653a206e6577206f776e657220697320746865207a65726f206160448201526564647265737360d01b606482015260840161020a565b6104e0816104e3565b50565b600080546001600160a01b038381166001600160a01b0319831681178455604051919092169283917f8be0079c531659141344cd1fd0a4f28419497f9722a3daafe3b4186f6b6457e09190a35050565b60006020828403121561054557600080fd5b81356001600160a81b038116811461055c57600080fd5b6001600160a01b03169392505050565b60006020828403121561057e57600080fd5b5035919050565b6000806040838503121561059857600080fd5b50508035926020909101359150565b6020808252825182820181905260009190848201906040850190845b818110156105df578351835292840192918401916001016105c3565b50909695505050505050565b6020808252818101527f4f776e61626c653a2063616c6c6572206973206e6f7420746865206f776e657260408201526060019056fea26474726f6e58221220a069c2109ad52c05a0d557a7cdf07b7b3102459a8972b496885d06b70c15e20e64736f6c63430008060033",
  "source": "// SPDX-License-Identifier: unlicense\r\npragma solidity ^0.8.0;\r\n\r\nimport \"@openzeppelin/contracts/access/Ownable.sol\";\r\nimport \"./SpacePiratesTokens.sol\";\r\n\r\n/**\r\n * @title Space Pirates Faucet Contract\r\n * @author @yuripaoloni, @MatteoLeonesi, @Gr3it\r\n * @notice Mint up to 10k doubloons and asteroids to users in testnet\r\n */\r\n\r\ncontract SpacePiratesFaucet is Ownable {\r\n    SpacePiratesTokens public immutable tokenContract;\r\n\r\n    mapping(uint256 => uint256) public tokenMintLimit;\r\n    uint256[] public supportedTokens;\r\n\r\n    event SetMintLimit(uint256 indexed tokenId, uint256 mintLimit);\r\n    event TokenMint(address indexed to, uint256 indexed tokenId, uint256 value);\r\n\r\n    constructor(SpacePiratesTokens _tokenContract) {\r\n        tokenContract = _tokenContract;\r\n    }\r\n\r\n    function getSupportedTokens() external view returns (uint256[] memory) {\r\n        return supportedTokens;\r\n    }\r\n\r\n    function mintToken(uint256 tokenId, uint256 amount) public {\r\n        require(\r\n            amount <= tokenMintLimit[tokenId],\r\n            \"SpacePiratesFaucet: mint limit exceeded\"\r\n        );\r\n\r\n        tokenContract.mint(msg.sender, tokenId, amount);\r\n        emit TokenMint(msg.sender, tokenId, amount);\r\n    }\r\n\r\n    function setMintLimit(uint256 tokenId, uint256 mintLimit) public onlyOwner {\r\n        if (tokenMintLimit[tokenId] == 0) {\r\n            supportedTokens.push(tokenId);\r\n        }\r\n        tokenMintLimit[tokenId] = mintLimit;\r\n        emit SetMintLimit(tokenId, mintLimit);\r\n    }\r\n}\r\n",
  "sourcePath": "C:/Users/emanu/space-pirates-contracts/contracts/SpacePiratesFaucet.sol",
  "compiler": {
    "name": "solc",
    "version": "0.8.6+commit.0e36fba0.mod.Emscripten.clang"
  },
  "schemaVersion": "2.0.1",
  "updatedAt": "2022-07-23T23:58:53.751Z"
}