{
  "contractName": "SpacePiratesWrapper",
  "abi": [
    {
      "inputs": [
        {
          "internalType": "contract SpacePiratesTokens",
          "name": "_tokenContract",
          "type": "address"
        }
      ],
      "stateMutability": "nonpayable",
      "type": "constructor"
    },
    {
      "anonymous": false,
      "inputs": [
        {
          "indexed": true,
          "internalType": "address",
          "name": "_erc20contract",
          "type": "address"
        },
        {
          "indexed": false,
          "internalType": "uint256",
          "name": "id",
          "type": "uint256"
        }
      ],
      "name": "ERC20Added",
      "type": "event"
    },
    {
      "anonymous": false,
      "inputs": [
        {
          "indexed": true,
          "internalType": "address",
          "name": "from",
          "type": "address"
        },
        {
          "indexed": true,
          "internalType": "address",
          "name": "to",
          "type": "address"
        },
        {
          "indexed": true,
          "internalType": "address",
          "name": "_erc20contract",
          "type": "address"
        },
        {
          "indexed": false,
          "internalType": "uint256",
          "name": "id",
          "type": "uint256"
        },
        {
          "indexed": false,
          "internalType": "uint256",
          "name": "amount",
          "type": "uint256"
        }
      ],
      "name": "ERC20Deposited",
      "type": "event"
    },
    {
      "anonymous": false,
      "inputs": [
        {
          "indexed": true,
          "internalType": "address",
          "name": "from",
          "type": "address"
        },
        {
          "indexed": true,
          "internalType": "address",
          "name": "to",
          "type": "address"
        },
        {
          "indexed": true,
          "internalType": "address",
          "name": "_erc20contract",
          "type": "address"
        },
        {
          "indexed": false,
          "internalType": "uint256",
          "name": "id",
          "type": "uint256"
        },
        {
          "indexed": false,
          "internalType": "uint256",
          "name": "amount",
          "type": "uint256"
        }
      ],
      "name": "ERC20Withdrawn",
      "type": "event"
    },
    {
      "anonymous": false,
      "inputs": [
        {
          "indexed": true,
          "internalType": "address",
          "name": "from",
          "type": "address"
        },
        {
          "indexed": true,
          "internalType": "address",
          "name": "to",
          "type": "address"
        },
        {
          "indexed": true,
          "internalType": "uint256",
          "name": "id",
          "type": "uint256"
        },
        {
          "indexed": false,
          "internalType": "uint256",
          "name": "amount",
          "type": "uint256"
        }
      ],
      "name": "ETHDeposited",
      "type": "event"
    },
    {
      "anonymous": false,
      "inputs": [
        {
          "indexed": true,
          "internalType": "address",
          "name": "from",
          "type": "address"
        },
        {
          "indexed": true,
          "internalType": "address",
          "name": "to",
          "type": "address"
        },
        {
          "indexed": true,
          "internalType": "uint256",
          "name": "id",
          "type": "uint256"
        },
        {
          "indexed": false,
          "internalType": "uint256",
          "name": "amount",
          "type": "uint256"
        }
      ],
      "name": "ETHWithdrawn",
      "type": "event"
    },
    {
      "anonymous": false,
      "inputs": [
        {
          "indexed": true,
          "internalType": "address",
          "name": "previousOwner",
          "type": "address"
        },
        {
          "indexed": true,
          "internalType": "address",
          "name": "newOwner",
          "type": "address"
        }
      ],
      "name": "OwnershipTransferred",
      "type": "event"
    },
    {
      "anonymous": false,
      "inputs": [
        {
          "indexed": false,
          "internalType": "address",
          "name": "feeAddress",
          "type": "address"
        }
      ],
      "name": "SetFeeAddress",
      "type": "event"
    },
    {
      "anonymous": false,
      "inputs": [
        {
          "indexed": false,
          "internalType": "uint256",
          "name": "feeBasePoint",
          "type": "uint256"
        }
      ],
      "name": "SetFeeBasePoint",
      "type": "event"
    },
    {
      "inputs": [
        {
          "internalType": "address",
          "name": "_erc20Contract",
          "type": "address"
        }
      ],
      "name": "addERC20",
      "outputs": [
        {
          "internalType": "uint256",
          "name": "id",
          "type": "uint256"
        }
      ],
      "stateMutability": "nonpayable",
      "type": "function"
    },
    {
      "inputs": [
        {
          "internalType": "address",
          "name": "_addr",
          "type": "address"
        },
        {
          "internalType": "uint256",
          "name": "_amount",
          "type": "uint256"
        }
      ],
      "name": "erc20Deposit",
      "outputs": [],
      "stateMutability": "nonpayable",
      "type": "function"
    },
    {
      "inputs": [
        {
          "internalType": "address",
          "name": "_addr",
          "type": "address"
        },
        {
          "internalType": "uint256",
          "name": "_amount",
          "type": "uint256"
        },
        {
          "internalType": "address",
          "name": "_to",
          "type": "address"
        }
      ],
      "name": "erc20DepositTo",
      "outputs": [],
      "stateMutability": "nonpayable",
      "type": "function"
    },
    {
      "inputs": [
        {
          "internalType": "address",
          "name": "",
          "type": "address"
        }
      ],
      "name": "erc20ToId",
      "outputs": [
        {
          "internalType": "uint256",
          "name": "",
          "type": "uint256"
        }
      ],
      "stateMutability": "view",
      "type": "function"
    },
    {
      "inputs": [
        {
          "internalType": "address",
          "name": "_addr",
          "type": "address"
        },
        {
          "internalType": "uint256",
          "name": "_amount",
          "type": "uint256"
        }
      ],
      "name": "erc20Withdraw",
      "outputs": [],
      "stateMutability": "nonpayable",
      "type": "function"
    },
    {
      "inputs": [
        {
          "internalType": "address",
          "name": "_addr",
          "type": "address"
        },
        {
          "internalType": "uint256",
          "name": "_amount",
          "type": "uint256"
        },
        {
          "internalType": "address",
          "name": "_to",
          "type": "address"
        }
      ],
      "name": "erc20WithdrawTo",
      "outputs": [],
      "stateMutability": "nonpayable",
      "type": "function"
    },
    {
      "inputs": [],
      "name": "ethDeposit",
      "outputs": [],
      "stateMutability": "payable",
      "type": "function"
    },
    {
      "inputs": [
        {
          "internalType": "address",
          "name": "_to",
          "type": "address"
        }
      ],
      "name": "ethDepositTo",
      "outputs": [],
      "stateMutability": "payable",
      "type": "function"
    },
    {
      "inputs": [
        {
          "internalType": "uint256",
          "name": "_amount",
          "type": "uint256"
        }
      ],
      "name": "ethWithdraw",
      "outputs": [],
      "stateMutability": "nonpayable",
      "type": "function"
    },
    {
      "inputs": [
        {
          "internalType": "uint256",
          "name": "_amount",
          "type": "uint256"
        },
        {
          "internalType": "address",
          "name": "_to",
          "type": "address"
        }
      ],
      "name": "ethWithdrawTo",
      "outputs": [],
      "stateMutability": "nonpayable",
      "type": "function"
    },
    {
      "inputs": [],
      "name": "feeAddress",
      "outputs": [
        {
          "internalType": "address",
          "name": "",
          "type": "address"
        }
      ],
      "stateMutability": "view",
      "type": "function"
    },
    {
      "inputs": [],
      "name": "feeBasePoint",
      "outputs": [
        {
          "internalType": "uint256",
          "name": "",
          "type": "uint256"
        }
      ],
      "stateMutability": "view",
      "type": "function"
    },
    {
      "inputs": [],
      "name": "lastId",
      "outputs": [
        {
          "internalType": "uint256",
          "name": "",
          "type": "uint256"
        }
      ],
      "stateMutability": "view",
      "type": "function"
    },
    {
      "inputs": [],
      "name": "owner",
      "outputs": [
        {
          "internalType": "address",
          "name": "",
          "type": "address"
        }
      ],
      "stateMutability": "view",
      "type": "function"
    },
    {
      "inputs": [],
      "name": "renounceOwnership",
      "outputs": [],
      "stateMutability": "nonpayable",
      "type": "function"
    },
    {
      "inputs": [
        {
          "internalType": "address",
          "name": "_feeAddress",
          "type": "address"
        }
      ],
      "name": "setFeeAddress",
      "outputs": [],
      "stateMutability": "nonpayable",
      "type": "function"
    },
    {
      "inputs": [
        {
          "internalType": "uint256",
          "name": "_feeBasePoint",
          "type": "uint256"
        }
      ],
      "name": "setFeeBasePoint",
      "outputs": [],
      "stateMutability": "nonpayable",
      "type": "function"
    },
    {
      "inputs": [],
      "name": "spaceETH",
      "outputs": [
        {
          "internalType": "uint256",
          "name": "",
          "type": "uint256"
        }
      ],
      "stateMutability": "view",
      "type": "function"
    },
    {
      "inputs": [
        {
          "internalType": "uint256",
          "name": "",
          "type": "uint256"
        }
      ],
      "name": "supportedTokens",
      "outputs": [
        {
          "internalType": "address",
          "name": "",
          "type": "address"
        }
      ],
      "stateMutability": "view",
      "type": "function"
    },
    {
      "inputs": [],
      "name": "tokenContract",
      "outputs": [
        {
          "internalType": "contract SpacePiratesTokens",
          "name": "",
          "type": "address"
        }
      ],
      "stateMutability": "view",
      "type": "function"
    },
    {
      "inputs": [
        {
          "internalType": "address",
          "name": "newOwner",
          "type": "address"
        }
      ],
      "name": "transferOwnership",
      "outputs": [],
      "stateMutability": "nonpayable",
      "type": "function"
    },
    {
      "stateMutability": "payable",
      "type": "receive"
    }
  ],
  "bytecode": "0x60a060405260646001553480156200001657600080fd5b50d380156200002457600080fd5b50d280156200003257600080fd5b5060405162001a6738038062001a678339810160408190526200005591620000c6565b620000603362000076565b60601b6001600160601b03191660805262000101565b600080546001600160a01b038381166001600160a01b0319831681178455604051919092169283917f8be0079c531659141344cd1fd0a4f28419497f9722a3daafe3b4186f6b6457e09190a35050565b600060208284031215620000d957600080fd5b81516001600160a81b0381168114620000f157600080fd5b6001600160a01b03169392505050565b60805160601c61190f62000158600039600081816102eb015281816105e20152818161075b0152818161082b01528181610bff01528181610d9501528181610f0d0152818161100001526110d5015261190f6000f3fe60806040526004361061012e5760003560e01c80638705fcd4116100ab578063c62556261161006f578063c625562614610494578063c913d172146104ce578063cc5c7b3e14610515578063d265c5dd14610528578063d618164a14610562578063f2fde38b1461059157600080fd5b80638705fcd41461037e5780638da5cb5b146103b8578063b0b969ac146103f0578063b23f535e1461042a578063c1292cc31461046457600080fd5b806354594abd116100f257806354594abd1461028557806355a373d6146102bf5780635fc111611461030d578063715018a61461031557806375b74f341461034457600080fd5b80631ef414f714610142578063310fe8a41461018557806335ec1a75146101bf57806341275358146101f957806343658a701461024b57600080fd5b3661013d5761013b6105cb565b005b600080fd5b34801561014e57600080fd5b50d3801561015b57600080fd5b50d2801561016857600080fd5b5061017260055481565b6040519081526020015b60405180910390f35b34801561019157600080fd5b50d3801561019e57600080fd5b50d280156101ab57600080fd5b5061013b6101ba366004611624565b61068a565b3480156101cb57600080fd5b50d380156101d857600080fd5b50d280156101e557600080fd5b5061013b6101f43660046116ac565b610814565b34801561020557600080fd5b50d3801561021257600080fd5b50d2801561021f57600080fd5b50600454610233906001600160a01b031681565b6040516001600160a01b03909116815260200161017c565b34801561025757600080fd5b50d3801561026457600080fd5b50d2801561027157600080fd5b50610172610280366004611609565b61093d565b34801561029157600080fd5b50d3801561029e57600080fd5b50d280156102ab57600080fd5b5061013b6102ba3660046116ac565b610a91565b3480156102cb57600080fd5b50d380156102d857600080fd5b50d280156102e557600080fd5b506102337f000000000000000000000000000000000000000000000000000000000000000081565b61013b6105cb565b34801561032157600080fd5b50d3801561032e57600080fd5b50d2801561033b57600080fd5b5061013b610b67565b34801561035057600080fd5b50d3801561035d57600080fd5b50d2801561036a57600080fd5b5061013b61037936600461164e565b610b9d565b34801561038a57600080fd5b50d3801561039757600080fd5b50d280156103a457600080fd5b5061013b6103b3366004611609565b610cbb565b3480156103c457600080fd5b50d380156103d157600080fd5b50d280156103de57600080fd5b506000546001600160a01b0316610233565b3480156103fc57600080fd5b50d3801561040957600080fd5b50d2801561041657600080fd5b5061013b610425366004611624565b610d33565b34801561043657600080fd5b50d3801561044357600080fd5b50d2801561045057600080fd5b5061013b61045f36600461164e565b610e45565b34801561047057600080fd5b50d3801561047d57600080fd5b50d2801561048a57600080fd5b5061017260015481565b3480156104a057600080fd5b50d380156104ad57600080fd5b50d280156104ba57600080fd5b506102336104c93660046116ac565b610fbf565b3480156104da57600080fd5b50d380156104e757600080fd5b50d280156104f457600080fd5b50610172610503366004611609565b60036020526000908152604090205481565b61013b610523366004611609565b610fe9565b34801561053457600080fd5b50d3801561054157600080fd5b50d2801561054e57600080fd5b5061013b61055d3660046116c5565b6110be565b34801561056e57600080fd5b50d3801561057b57600080fd5b50d2801561058857600080fd5b50610172606481565b34801561059d57600080fd5b50d380156105aa57600080fd5b50d280156105b757600080fd5b5061013b6105c6366004611609565b6111fb565b604051630ab714fb60e11b81526001600160a01b037f0000000000000000000000000000000000000000000000000000000000000000169063156e29f69061061c903390606490349060040161170d565b600060405180830381600087803b15801561063657600080fd5b505af115801561064a573d6000803e3d6000fd5b50506040513481526064925033915081907f142820add0a5d3e5ad3b4bf87784c72bd6b7767da6abad3ce6f8605f762430429060200160405180910390a4565b6001600160a01b038216600090815260036020526040902054806106c95760405162461bcd60e51b81526004016106c090611796565b60405180910390fd5b60055415610730576000612710600554846106e49190611846565b6106ee9190611824565b60045490915061070b906001600160a01b03868116911683611296565b61072a336107198386611865565b6001600160a01b0387169190611296565b50610744565b6107446001600160a01b0384163384611296565b604051637a94c56560e11b81526001600160a01b037f0000000000000000000000000000000000000000000000000000000000000000169063f5298aca906107949033908590879060040161170d565b600060405180830381600087803b1580156107ae57600080fd5b505af11580156107c2573d6000803e3d6000fd5b505060408051848152602081018690526001600160a01b038716935033925082917fb82384175222b8b8a9e9a2de651261ffb2ae287465039b486363e6010db9decc91015b60405180910390a4505050565b604051637a94c56560e11b81526001600160a01b037f0000000000000000000000000000000000000000000000000000000000000000169063f5298aca90610865903390606490869060040161170d565b600060405180830381600087803b15801561087f57600080fd5b505af1158015610893573d6000803e3d6000fd5b50506040516000925033915083908381818185875af1925050503d80600081146108d9576040519150601f19603f3d011682016040523d82523d6000602084013e6108de565b606091505b50509050806108ff5760405162461bcd60e51b81526004016106c0906117e0565b604051828152606490339081907fe3dc91d7807bc56b6682d8279b38ed74cefbf6ee82d79ffd5cb0b0cad8fdd3989060200160405180910390a45050565b600080546001600160a01b031633146109685760405162461bcd60e51b81526004016106c090611761565b6001600160a01b038216600090815260036020526040902054156109e05760405162461bcd60e51b815260206004820152602960248201527f537061636550697261746573577261707065723a20746f6b656e20616c72656160448201526864792065786973747360b81b60648201526084016106c0565b6001600081546109ef906118a8565b91829055506001600160a01b0383166000818152600360205260408082208490556002805460018101825592527f405787fa12a823e0f2b7631cc41b3ba8828b3321ca811111fa75cd3aa3bb5ace90910180546001600160a01b0319168317905551919250907fb4252717ce23d8029abb408851c7a1b17d6153bc9a28b9bbbbb678ffd755b6e690610a849084815260200190565b60405180910390a2919050565b6000546001600160a01b03163314610abb5760405162461bcd60e51b81526004016106c090611761565b612710811115610b2b5760405162461bcd60e51b815260206004820152603560248201527f537061636550697261746573577261707065723a20696e76616c6964206465706044820152746f7369742066656520626173697320706f696e747360581b60648201526084016106c0565b60058190556040518181527f4e2b1b9ac8adf7baa10b627af8d22f0a7919f90fc8d82ac67c123c9f3c4bd705906020015b60405180910390a150565b6000546001600160a01b03163314610b915760405162461bcd60e51b81526004016106c090611761565b610b9b60006112fe565b565b6001600160a01b03831660009081526003602052604090205480610bd35760405162461bcd60e51b81526004016106c090611796565b610be86001600160a01b03851633308661134e565b604051630ab714fb60e11b81526001600160a01b037f0000000000000000000000000000000000000000000000000000000000000000169063156e29f690610c389085908590889060040161170d565b600060405180830381600087803b158015610c5257600080fd5b505af1158015610c66573d6000803e3d6000fd5b505060408051848152602081018790526001600160a01b0380891694508616925033917f11f8fc1c83f28d04a445c8ff0d48d1d193d6630abb9e3f548c9ffcf8873eb98d91015b60405180910390a450505050565b6000546001600160a01b03163314610ce55760405162461bcd60e51b81526004016106c090611761565b600480546001600160a01b0319166001600160a01b0383169081179091556040519081527ffcb8a963756b148f85a52537b63147b6c4b40af694099c901ac3b99d317a2db890602001610b5c565b6001600160a01b03821660009081526003602052604090205480610d695760405162461bcd60e51b81526004016106c090611796565b610d7e6001600160a01b03841633308561134e565b604051630ab714fb60e11b81526001600160a01b037f0000000000000000000000000000000000000000000000000000000000000000169063156e29f690610dce9033908590879060040161170d565b600060405180830381600087803b158015610de857600080fd5b505af1158015610dfc573d6000803e3d6000fd5b505060408051848152602081018690526001600160a01b038716935033925082917f11f8fc1c83f28d04a445c8ff0d48d1d193d6630abb9e3f548c9ffcf8873eb98d9101610807565b6001600160a01b03831660009081526003602052604090205480610e7b5760405162461bcd60e51b81526004016106c090611796565b60055415610ee257600061271060055485610e969190611846565b610ea09190611824565b600454909150610ebd906001600160a01b03878116911683611296565b610edc83610ecb8387611865565b6001600160a01b0388169190611296565b50610ef6565b610ef66001600160a01b0385168385611296565b604051637a94c56560e11b81526001600160a01b037f0000000000000000000000000000000000000000000000000000000000000000169063f5298aca90610f469033908590889060040161170d565b600060405180830381600087803b158015610f6057600080fd5b505af1158015610f74573d6000803e3d6000fd5b505060408051848152602081018790526001600160a01b0380891694508616925033917fb82384175222b8b8a9e9a2de651261ffb2ae287465039b486363e6010db9decc9101610cad565b60028181548110610fcf57600080fd5b6000918252602090912001546001600160a01b0316905081565b604051630ab714fb60e11b81526001600160a01b037f0000000000000000000000000000000000000000000000000000000000000000169063156e29f69061103a908490606490349060040161170d565b600060405180830381600087803b15801561105457600080fd5b505af1158015611068573d6000803e3d6000fd5b505050506064816001600160a01b0316336001600160a01b03167f142820add0a5d3e5ad3b4bf87784c72bd6b7767da6abad3ce6f8605f76243042346040516110b391815260200190565b60405180910390a450565b604051637a94c56560e11b81526001600160a01b037f0000000000000000000000000000000000000000000000000000000000000000169063f5298aca9061110f903390606490879060040161170d565b600060405180830381600087803b15801561112957600080fd5b505af115801561113d573d6000803e3d6000fd5b505050506000816001600160a01b03168360405160006040518083038185875af1925050503d806000811461118e576040519150601f19603f3d011682016040523d82523d6000602084013e611193565b606091505b50509050806111b45760405162461bcd60e51b81526004016106c0906117e0565b6064826001600160a01b0316336001600160a01b03167fe3dc91d7807bc56b6682d8279b38ed74cefbf6ee82d79ffd5cb0b0cad8fdd3988660405161080791815260200190565b6000546001600160a01b031633146112255760405162461bcd60e51b81526004016106c090611761565b6001600160a01b03811661128a5760405162461bcd60e51b815260206004820152602660248201527f4f776e61626c653a206e6577206f776e657220697320746865207a65726f206160448201526564647265737360d01b60648201526084016106c0565b611293816112fe565b50565b6040516001600160a01b0383166024820152604481018290526112f990849063a9059cbb60e01b906064015b60408051601f198184030181529190526020810180516001600160e01b03166001600160e01b03199093169290921790915261138c565b505050565b600080546001600160a01b038381166001600160a01b0319831681178455604051919092169283917f8be0079c531659141344cd1fd0a4f28419497f9722a3daafe3b4186f6b6457e09190a35050565b6040516001600160a01b03808516602483015283166044820152606481018290526113869085906323b872dd60e01b906084016112c2565b50505050565b60006113e1826040518060400160405280602081526020017f5361666545524332303a206c6f772d6c6576656c2063616c6c206661696c6564815250856001600160a01b031661145e9092919063ffffffff16565b8051909150156112f957808060200190518101906113ff919061168a565b6112f95760405162461bcd60e51b815260206004820152602a60248201527f5361666545524332303a204245503230206f7065726174696f6e20646964206e6044820152691bdd081cdd58d8d9595960b21b60648201526084016106c0565b606061146d8484600085611477565b90505b9392505050565b6060824710156114d85760405162461bcd60e51b815260206004820152602660248201527f416464726573733a20696e73756666696369656e742062616c616e636520666f6044820152651c8818d85b1b60d21b60648201526084016106c0565b846001600160a01b0316d461152f5760405162461bcd60e51b815260206004820152601d60248201527f416464726573733a2063616c6c20746f206e6f6e2d636f6e747261637400000060448201526064016106c0565b600080866001600160a01b0316858760405161154b91906116f1565b60006040518083038185875af1925050503d8060008114611588576040519150601f19603f3d011682016040523d82523d6000602084013e61158d565b606091505b509150915061159d8282866115a8565b979650505050505050565b606083156115b7575081611470565b8251156115c75782518084602001fd5b8160405162461bcd60e51b81526004016106c0919061172e565b600081356001600160a81b03811681146115fa57600080fd5b6001600160a01b031692915050565b60006020828403121561161b57600080fd5b611470826115e1565b6000806040838503121561163757600080fd5b611640836115e1565b946020939093013593505050565b60008060006060848603121561166357600080fd5b61166c846115e1565b925060208401359150611681604085016115e1565b90509250925092565b60006020828403121561169c57600080fd5b8151801515811461147057600080fd5b6000602082840312156116be57600080fd5b5035919050565b600080604083850312156116d857600080fd5b823591506116e8602084016115e1565b90509250929050565b6000825161170381846020870161187c565b9190910192915050565b6001600160a01b039390931683526020830191909152604082015260600190565b602081526000825180602084015261174d81604085016020870161187c565b601f01601f19169190910160400192915050565b6020808252818101527f4f776e61626c653a2063616c6c6572206973206e6f7420746865206f776e6572604082015260600190565b6020808252602a908201527f537061636550697261746573577261707065723a20746f6b656e20646f6573206040820152696e6f742065786973747360b01b606082015260800190565b60208082526024908201527f537061636550697261746573577261707065723a2077697468647261772066616040820152631a5b195960e21b606082015260800190565b60008261184157634e487b7160e01b600052601260045260246000fd5b500490565b6000816000190483118215151615611860576118606118c3565b500290565b600082821015611877576118776118c3565b500390565b60005b8381101561189757818101518382015260200161187f565b838111156113865750506000910152565b60006000198214156118bc576118bc6118c3565b5060010190565b634e487b7160e01b600052601160045260246000fdfea26474726f6e58221220d36abe20724041fcfd74f33229f0751492f91cf494b875be0a46e9098ed518bb64736f6c63430008060033",
  "source": "// SPDX-License-Identifier: unlicense\r\npragma solidity ^0.8.0;\r\n\r\nimport \"@openzeppelin/contracts/token/ERC20/IERC20.sol\";\r\nimport \"@openzeppelin/contracts/access/Ownable.sol\";\r\nimport \"./libraries/SafeERC20.sol\";\r\nimport \"./SpacePiratesTokens.sol\";\r\n\r\n/**\r\n    @title Wrapper contract for ERC20 and native tokens\r\n    @author @yuripaoloni, @MatteoLeonesi, @Gr3it (reviewer)\r\n    @notice Wrap ERC20 and native tokens in order to use them in the ERC1155 contract\r\n */\r\ncontract SpacePiratesWrapper is Ownable {\r\n    using SafeERC20 for IERC20;\r\n\r\n    SpacePiratesTokens public immutable tokenContract;\r\n\r\n    uint256 public constant spaceETH = 100;\r\n\r\n    uint256 public lastId = 100;\r\n    address[] public supportedTokens;\r\n    mapping(address => uint256) public erc20ToId;\r\n\r\n    address public feeAddress;\r\n    uint256 public feeBasePoint;\r\n\r\n    event ERC20Added(address indexed _erc20contract, uint256 id);\r\n    event ERC20Deposited(\r\n        address indexed from,\r\n        address indexed to,\r\n        address indexed _erc20contract,\r\n        uint256 id,\r\n        uint256 amount\r\n    );\r\n    event ERC20Withdrawn(\r\n        address indexed from,\r\n        address indexed to,\r\n        address indexed _erc20contract,\r\n        uint256 id,\r\n        uint256 amount\r\n    );\r\n    event ETHDeposited(\r\n        address indexed from,\r\n        address indexed to,\r\n        uint256 indexed id,\r\n        uint256 amount\r\n    );\r\n    event ETHWithdrawn(\r\n        address indexed from,\r\n        address indexed to,\r\n        uint256 indexed id,\r\n        uint256 amount\r\n    );\r\n    event SetFeeBasePoint(uint256 feeBasePoint);\r\n    event SetFeeAddress(address feeAddress);\r\n\r\n    constructor(SpacePiratesTokens _tokenContract) {\r\n        tokenContract = _tokenContract;\r\n    }\r\n\r\n    function addERC20(address _erc20Contract)\r\n        external\r\n        onlyOwner\r\n        returns (uint256 id)\r\n    {\r\n        require(\r\n            erc20ToId[_erc20Contract] == 0,\r\n            \"SpacePiratesWrapper: token already exists\"\r\n        );\r\n\r\n        id = ++lastId;\r\n\r\n        erc20ToId[_erc20Contract] = id;\r\n        supportedTokens.push(_erc20Contract);\r\n\r\n        emit ERC20Added(_erc20Contract, id);\r\n    }\r\n\r\n    function erc20Deposit(address _addr, uint256 _amount) external {\r\n        uint256 id = erc20ToId[_addr];\r\n\r\n        require(id != 0, \"SpacePiratesWrapper: token does not exists\");\r\n\r\n        IERC20(_addr).safeTransferFrom(msg.sender, address(this), _amount);\r\n\r\n        tokenContract.mint(msg.sender, id, _amount);\r\n\r\n        emit ERC20Deposited(msg.sender, msg.sender, _addr, id, _amount);\r\n    }\r\n\r\n    function erc20DepositTo(\r\n        address _addr,\r\n        uint256 _amount,\r\n        address _to\r\n    ) external {\r\n        uint256 id = erc20ToId[_addr];\r\n\r\n        require(id != 0, \"SpacePiratesWrapper: token does not exists\");\r\n\r\n        IERC20(_addr).safeTransferFrom(msg.sender, address(this), _amount);\r\n\r\n        tokenContract.mint(_to, id, _amount);\r\n\r\n        emit ERC20Deposited(msg.sender, _to, _addr, id, _amount);\r\n    }\r\n\r\n    function erc20Withdraw(address _addr, uint256 _amount) external {\r\n        uint256 id = erc20ToId[_addr];\r\n\r\n        require(id != 0, \"SpacePiratesWrapper: token does not exists\");\r\n\r\n        if (feeBasePoint > 0) {\r\n            uint256 depositFee = (_amount * feeBasePoint) / 10000;\r\n            IERC20(_addr).safeTransfer(feeAddress, depositFee);\r\n            IERC20(_addr).safeTransfer(msg.sender, _amount - depositFee);\r\n        } else {\r\n            IERC20(_addr).safeTransfer(msg.sender, _amount);\r\n        }\r\n\r\n        tokenContract.burn(msg.sender, id, _amount);\r\n\r\n        emit ERC20Withdrawn(msg.sender, msg.sender, _addr, id, _amount);\r\n    }\r\n\r\n    function erc20WithdrawTo(\r\n        address _addr,\r\n        uint256 _amount,\r\n        address _to\r\n    ) external {\r\n        uint256 id = erc20ToId[_addr];\r\n\r\n        require(id != 0, \"SpacePiratesWrapper: token does not exists\");\r\n\r\n        if (feeBasePoint > 0) {\r\n            uint256 depositFee = (_amount * feeBasePoint) / 10000;\r\n            IERC20(_addr).safeTransfer(feeAddress, depositFee);\r\n            IERC20(_addr).safeTransfer(_to, _amount - depositFee);\r\n        } else {\r\n            IERC20(_addr).safeTransfer(_to, _amount);\r\n        }\r\n\r\n        tokenContract.burn(msg.sender, id, _amount);\r\n\r\n        emit ERC20Withdrawn(msg.sender, _to, _addr, id, _amount);\r\n    }\r\n\r\n    receive() external payable {\r\n        ethDeposit();\r\n    }\r\n\r\n    function ethDeposit() public payable {\r\n        tokenContract.mint(msg.sender, spaceETH, msg.value);\r\n\r\n        emit ETHDeposited(msg.sender, msg.sender, spaceETH, msg.value);\r\n    }\r\n\r\n    function ethDepositTo(address _to) external payable {\r\n        tokenContract.mint(_to, spaceETH, msg.value);\r\n\r\n        emit ETHDeposited(msg.sender, _to, spaceETH, msg.value);\r\n    }\r\n\r\n    function ethWithdraw(uint256 _amount) external {\r\n        tokenContract.burn(msg.sender, spaceETH, _amount);\r\n\r\n        (bool success, ) = msg.sender.call{value: _amount}(\"\");\r\n        require(success, \"SpacePiratesWrapper: withdraw failed\");\r\n\r\n        emit ETHWithdrawn(msg.sender, msg.sender, spaceETH, _amount);\r\n    }\r\n\r\n    function ethWithdrawTo(uint256 _amount, address _to) external {\r\n        tokenContract.burn(msg.sender, spaceETH, _amount);\r\n\r\n        (bool success, ) = _to.call{value: _amount}(\"\");\r\n        require(success, \"SpacePiratesWrapper: withdraw failed\");\r\n\r\n        emit ETHWithdrawn(msg.sender, _to, spaceETH, _amount);\r\n    }\r\n\r\n    function setFeeBasePoint(uint256 _feeBasePoint) external onlyOwner {\r\n        require(\r\n            _feeBasePoint <= 10000,\r\n            \"SpacePiratesWrapper: invalid deposit fee basis points\"\r\n        );\r\n\r\n        feeBasePoint = _feeBasePoint;\r\n\r\n        emit SetFeeBasePoint(_feeBasePoint);\r\n    }\r\n\r\n    function setFeeAddress(address _feeAddress) external onlyOwner {\r\n        feeAddress = _feeAddress;\r\n        emit SetFeeAddress(_feeAddress);\r\n    }\r\n}\r\n",
  "sourcePath": "C:/Users/emanu/space-pirates-contracts/contracts/SpacePiratesWrapper.sol",
  "compiler": {
    "name": "solc",
    "version": "0.8.6+commit.0e36fba0.mod.Emscripten.clang"
  },
  "schemaVersion": "2.0.1",
  "updatedAt": "2022-07-23T23:58:53.760Z"
}