{
  "contractName": "SpacePiratesStaking",
  "abi": [
    {
      "inputs": [
        {
          "internalType": "address",
          "name": "tokens",
          "type": "address"
        }
      ],
      "stateMutability": "nonpayable",
      "type": "constructor"
    },
    {
      "anonymous": false,
      "inputs": [
        {
          "indexed": true,
          "internalType": "address",
          "name": "previousOwner",
          "type": "address"
        },
        {
          "indexed": true,
          "internalType": "address",
          "name": "newOwner",
          "type": "address"
        }
      ],
      "name": "OwnershipTransferred",
      "type": "event"
    },
    {
      "anonymous": false,
      "inputs": [
        {
          "indexed": true,
          "internalType": "address",
          "name": "user",
          "type": "address"
        },
        {
          "indexed": true,
          "internalType": "uint256",
          "name": "stakingTokenId",
          "type": "uint256"
        },
        {
          "indexed": true,
          "internalType": "uint256",
          "name": "rewardTokenId",
          "type": "uint256"
        },
        {
          "indexed": false,
          "internalType": "uint256",
          "name": "reward",
          "type": "uint256"
        }
      ],
      "name": "RewardPaid",
      "type": "event"
    },
    {
      "anonymous": false,
      "inputs": [
        {
          "indexed": true,
          "internalType": "address",
          "name": "user",
          "type": "address"
        },
        {
          "indexed": true,
          "internalType": "address",
          "name": "newAddress",
          "type": "address"
        }
      ],
      "name": "SetFeeAddress",
      "type": "event"
    },
    {
      "anonymous": false,
      "inputs": [
        {
          "indexed": true,
          "internalType": "address",
          "name": "user",
          "type": "address"
        },
        {
          "indexed": true,
          "internalType": "uint256",
          "name": "tokenId",
          "type": "uint256"
        },
        {
          "indexed": false,
          "internalType": "uint256",
          "name": "amount",
          "type": "uint256"
        }
      ],
      "name": "Staked",
      "type": "event"
    },
    {
      "anonymous": false,
      "inputs": [
        {
          "indexed": true,
          "internalType": "uint256",
          "name": "stakingTokenId",
          "type": "uint256"
        },
        {
          "indexed": false,
          "internalType": "uint104",
          "name": "rewardTokenId",
          "type": "uint104"
        },
        {
          "indexed": false,
          "internalType": "uint64",
          "name": "rewardRate",
          "type": "uint64"
        },
        {
          "indexed": false,
          "internalType": "uint16",
          "name": "depositFee",
          "type": "uint16"
        }
      ],
      "name": "StakingPoolCreated",
      "type": "event"
    },
    {
      "anonymous": false,
      "inputs": [
        {
          "indexed": true,
          "internalType": "uint256",
          "name": "stakingTokenId",
          "type": "uint256"
        },
        {
          "indexed": false,
          "internalType": "uint104",
          "name": "rewardTokenId",
          "type": "uint104"
        },
        {
          "indexed": false,
          "internalType": "uint64",
          "name": "rewardRate",
          "type": "uint64"
        },
        {
          "indexed": false,
          "internalType": "uint16",
          "name": "depositFee",
          "type": "uint16"
        }
      ],
      "name": "StakingPoolUpdated",
      "type": "event"
    },
    {
      "anonymous": false,
      "inputs": [
        {
          "indexed": true,
          "internalType": "address",
          "name": "user",
          "type": "address"
        },
        {
          "indexed": true,
          "internalType": "uint256",
          "name": "tokenId",
          "type": "uint256"
        },
        {
          "indexed": false,
          "internalType": "uint256",
          "name": "amount",
          "type": "uint256"
        }
      ],
      "name": "Unstake",
      "type": "event"
    },
    {
      "inputs": [
        {
          "internalType": "uint256",
          "name": "_stakingTokenId",
          "type": "uint256"
        },
        {
          "internalType": "uint104",
          "name": "_rewardTokenId",
          "type": "uint104"
        },
        {
          "internalType": "uint64",
          "name": "_rewardRate",
          "type": "uint64"
        },
        {
          "internalType": "uint16",
          "name": "_depositFee",
          "type": "uint16"
        }
      ],
      "name": "createStakingPool",
      "outputs": [],
      "stateMutability": "nonpayable",
      "type": "function"
    },
    {
      "inputs": [],
      "name": "feeAddress",
      "outputs": [
        {
          "internalType": "address",
          "name": "",
          "type": "address"
        }
      ],
      "stateMutability": "view",
      "type": "function"
    },
    {
      "inputs": [
        {
          "internalType": "uint256",
          "name": "_stakingTokenId",
          "type": "uint256"
        }
      ],
      "name": "getReward",
      "outputs": [],
      "stateMutability": "nonpayable",
      "type": "function"
    },
    {
      "inputs": [
        {
          "internalType": "address",
          "name": "",
          "type": "address"
        },
        {
          "internalType": "address",
          "name": "",
          "type": "address"
        },
        {
          "internalType": "uint256[]",
          "name": "",
          "type": "uint256[]"
        },
        {
          "internalType": "uint256[]",
          "name": "",
          "type": "uint256[]"
        },
        {
          "internalType": "bytes",
          "name": "",
          "type": "bytes"
        }
      ],
      "name": "onERC1155BatchReceived",
      "outputs": [
        {
          "internalType": "bytes4",
          "name": "",
          "type": "bytes4"
        }
      ],
      "stateMutability": "nonpayable",
      "type": "function"
    },
    {
      "inputs": [
        {
          "internalType": "address",
          "name": "",
          "type": "address"
        },
        {
          "internalType": "address",
          "name": "",
          "type": "address"
        },
        {
          "internalType": "uint256",
          "name": "",
          "type": "uint256"
        },
        {
          "internalType": "uint256",
          "name": "",
          "type": "uint256"
        },
        {
          "internalType": "bytes",
          "name": "",
          "type": "bytes"
        }
      ],
      "name": "onERC1155Received",
      "outputs": [
        {
          "internalType": "bytes4",
          "name": "",
          "type": "bytes4"
        }
      ],
      "stateMutability": "nonpayable",
      "type": "function"
    },
    {
      "inputs": [],
      "name": "owner",
      "outputs": [
        {
          "internalType": "address",
          "name": "",
          "type": "address"
        }
      ],
      "stateMutability": "view",
      "type": "function"
    },
    {
      "inputs": [],
      "name": "parentToken",
      "outputs": [
        {
          "internalType": "contract SpacePiratesTokens",
          "name": "",
          "type": "address"
        }
      ],
      "stateMutability": "view",
      "type": "function"
    },
    {
      "inputs": [
        {
          "internalType": "uint256",
          "name": "_stakingTokenId",
          "type": "uint256"
        },
        {
          "internalType": "address",
          "name": "_user",
          "type": "address"
        }
      ],
      "name": "pendingRewards",
      "outputs": [
        {
          "internalType": "uint256",
          "name": "",
          "type": "uint256"
        }
      ],
      "stateMutability": "view",
      "type": "function"
    },
    {
      "inputs": [],
      "name": "poolAmount",
      "outputs": [
        {
          "internalType": "uint256",
          "name": "",
          "type": "uint256"
        }
      ],
      "stateMutability": "view",
      "type": "function"
    },
    {
      "inputs": [
        {
          "internalType": "uint256",
          "name": "",
          "type": "uint256"
        }
      ],
      "name": "poolIds",
      "outputs": [
        {
          "internalType": "uint256",
          "name": "",
          "type": "uint256"
        }
      ],
      "stateMutability": "view",
      "type": "function"
    },
    {
      "inputs": [],
      "name": "renounceOwnership",
      "outputs": [],
      "stateMutability": "nonpayable",
      "type": "function"
    },
    {
      "inputs": [
        {
          "internalType": "address",
          "name": "_feeAddress",
          "type": "address"
        }
      ],
      "name": "setFeeAddress",
      "outputs": [],
      "stateMutability": "nonpayable",
      "type": "function"
    },
    {
      "inputs": [
        {
          "internalType": "uint256",
          "name": "_stakingTokenId",
          "type": "uint256"
        },
        {
          "internalType": "uint256",
          "name": "_amount",
          "type": "uint256"
        }
      ],
      "name": "stake",
      "outputs": [],
      "stateMutability": "nonpayable",
      "type": "function"
    },
    {
      "inputs": [
        {
          "internalType": "uint256",
          "name": "",
          "type": "uint256"
        }
      ],
      "name": "stakingPools",
      "outputs": [
        {
          "internalType": "bool",
          "name": "exists",
          "type": "bool"
        },
        {
          "internalType": "uint104",
          "name": "rewardTokenId",
          "type": "uint104"
        },
        {
          "internalType": "uint64",
          "name": "rewardRate",
          "type": "uint64"
        },
        {
          "internalType": "uint16",
          "name": "depositFee",
          "type": "uint16"
        },
        {
          "internalType": "uint64",
          "name": "lastUpdateTime",
          "type": "uint64"
        },
        {
          "internalType": "uint256",
          "name": "totalSupply",
          "type": "uint256"
        },
        {
          "internalType": "uint256",
          "name": "accRewardPerShare",
          "type": "uint256"
        }
      ],
      "stateMutability": "view",
      "type": "function"
    },
    {
      "inputs": [
        {
          "internalType": "bytes4",
          "name": "interfaceId",
          "type": "bytes4"
        }
      ],
      "name": "supportsInterface",
      "outputs": [
        {
          "internalType": "bool",
          "name": "",
          "type": "bool"
        }
      ],
      "stateMutability": "view",
      "type": "function"
    },
    {
      "inputs": [
        {
          "internalType": "address",
          "name": "newOwner",
          "type": "address"
        }
      ],
      "name": "transferOwnership",
      "outputs": [],
      "stateMutability": "nonpayable",
      "type": "function"
    },
    {
      "inputs": [
        {
          "internalType": "uint256",
          "name": "_stakingTokenId",
          "type": "uint256"
        },
        {
          "internalType": "uint256",
          "name": "_amount",
          "type": "uint256"
        }
      ],
      "name": "unstake",
      "outputs": [],
      "stateMutability": "nonpayable",
      "type": "function"
    },
    {
      "inputs": [
        {
          "internalType": "uint256",
          "name": "_stakingTokenId",
          "type": "uint256"
        },
        {
          "internalType": "uint104",
          "name": "_rewardTokenId",
          "type": "uint104"
        },
        {
          "internalType": "uint64",
          "name": "_rewardRate",
          "type": "uint64"
        },
        {
          "internalType": "uint16",
          "name": "_depositFee",
          "type": "uint16"
        }
      ],
      "name": "updateStakingPool",
      "outputs": [],
      "stateMutability": "nonpayable",
      "type": "function"
    },
    {
      "inputs": [
        {
          "internalType": "uint256",
          "name": "",
          "type": "uint256"
        },
        {
          "internalType": "address",
          "name": "",
          "type": "address"
        }
      ],
      "name": "usersInfo",
      "outputs": [
        {
          "internalType": "uint256",
          "name": "rewardDebt",
          "type": "uint256"
        },
        {
          "internalType": "uint256",
          "name": "rewards",
          "type": "uint256"
        },
        {
          "internalType": "uint256",
          "name": "balances",
          "type": "uint256"
        }
      ],
      "stateMutability": "view",
      "type": "function"
    }
  ],
  "bytecode": "0x60806040523480156200001157600080fd5b50d380156200001f57600080fd5b50d280156200002d57600080fd5b5060405162001bee38038062001bee8339810160408190526200005091620000d1565b6200005b3362000081565b600180546001600160a01b0319166001600160a01b03929092169190911790556200010c565b600080546001600160a01b038381166001600160a01b0319831681178455604051919092169283917f8be0079c531659141344cd1fd0a4f28419497f9722a3daafe3b4186f6b6457e09190a35050565b600060208284031215620000e457600080fd5b81516001600160a81b0381168114620000fc57600080fd5b6001600160a01b03169392505050565b611ad2806200011c6000396000f3fe608060405234801561001057600080fd5b50d3801561001d57600080fd5b50d2801561002a57600080fd5b506004361061013b5760003560e01c80638705fcd4116100c7578063bc197c811161008b578063bc197c811461035a578063d18df53c14610392578063f23a6e61146103a5578063f2fde38b146103c4578063f6ba74bc146103d757600080fd5b80638705fcd4146103085780638da5cb5b1461031b57806393f47c041461032c5780639e2c8a5b1461033f578063a693600b1461035257600080fd5b806369883b4e1161010e57806369883b4e14610264578063715018a6146102855780637b0472f01461028d57806380a54001146102a05780638115a3bc146102b357600080fd5b806301ffc9a7146101405780631c4b774b14610168578063412753581461017d5780635aad6cf0146101a8575b600080fd5b61015361014e36600461177a565b6103ea565b60405190151581526020015b60405180910390f35b61017b6101763660046117a4565b610421565b005b600254610190906001600160a01b031681565b6040516001600160a01b03909116815260200161015f565b6102136101b63660046117a4565b60036020526000908152604090208054600182015460029092015460ff8216926001600160681b03610100840416926001600160401b03600160701b820481169361ffff600160b01b84041693600160c01b909304909116919087565b6040805197151588526001600160681b0390961660208801526001600160401b039485169587019590955261ffff909216606086015291909116608084015260a083015260c082015260e00161015f565b6102776102723660046117a4565b6106d8565b60405190815260200161015f565b61017b6106f9565b61017b61029b36600461185b565b61072f565b600154610190906001600160a01b031681565b6102ed6102c13660046117bd565b600460209081526000928352604080842090915290825290208054600182015460029092015490919083565b6040805193845260208401929092529082015260600161015f565b61017b61031636600461164b565b610bad565b6000546001600160a01b0316610190565b61017b61033a3660046117e9565b610c23565b61017b61034d36600461185b565b610da6565b600554610277565b61037961036836600461166d565b63bc197c8160e01b95945050505050565b6040516001600160e01b0319909116815260200161015f565b6102776103a03660046117bd565b6110a7565b6103796103b3366004611716565b63f23a6e6160e01b95945050505050565b61017b6103d236600461164b565b6111ab565b61017b6103e53660046117e9565b611246565b60006001600160e01b03198216630271189760e51b148061041b57506301ffc9a760e01b6001600160e01b03198316145b92915050565b600081815260036020526040902054819060ff1661045a5760405162461bcd60e51b8152600401610451906118fd565b60405180910390fd5b6000818152600360205260409020805442906001600160401b03600160c01b9091048116908216111561056857600182015415806104a757508154600160701b90046001600160401b0316155b156104cf5781546001600160c01b0316600160c01b6001600160401b03831602178255610568565b600182015482546104f090600160c01b90046001600160401b031683611a48565b835461050c9190600160701b90046001600160401b0316611a02565b61051e90670de0b6b3a7640000611a02565b6001600160401b031661053191906119c1565b82600201600082825461054491906119a9565b909155505081546001600160c01b0316600160c01b6001600160401b038316021782555b60008481526003602090815260408083206002015460048352818420338552909252909120805486929190670de0b6b3a7640000906105a79084611a31565b82600201546105b691906119e3565b6105c091906119c1565b8160010160008282546105d391906119a9565b90915550508181556000878152600460208181526040808420338086529083528185208c865260039093528185205460018085018054979055549251630ab714fb60e11b81529485019190915261010090046001600160681b03166024840181905260448401859052919391926001600160a01b039091169063156e29f690606401600060405180830381600087803b15801561066f57600080fd5b505af1158015610683573d6000803e3d6000fd5b50505050818a336001600160a01b03167fa4b7979b77c5bef65740b7e1d7a09534eadc2803d5c1cfdae60fa28226be6da2846040516106c491815260200190565b60405180910390a450505050505050505050565b600581815481106106e857600080fd5b600091825260209091200154905081565b6000546001600160a01b031633146107235760405162461bcd60e51b815260040161045190611944565b61072d60006114df565b565b600082815260036020526040902054829060ff1661075f5760405162461bcd60e51b8152600401610451906118fd565b6000818152600360205260409020805442906001600160401b03600160c01b9091048116908216111561086d57600182015415806107ac57508154600160701b90046001600160401b0316155b156107d45781546001600160c01b0316600160c01b6001600160401b0383160217825561086d565b600182015482546107f590600160c01b90046001600160401b031683611a48565b83546108119190600160701b90046001600160401b0316611a02565b61082390670de0b6b3a7640000611a02565b6001600160401b031661083691906119c1565b82600201600082825461084991906119a9565b909155505081546001600160c01b0316600160c01b6001600160401b038316021782555b60008581526003602090815260408083206002015460048352818420338552909252909120805487929190670de0b6b3a7640000906108ac9084611a31565b82600201546108bb91906119e3565b6108c591906119c1565b8160010160008282546108d891906119a9565b9091555050818155866109395760405162461bcd60e51b815260206004820152602360248201527f5370616365506972617465735374616b696e673a2063616e6e6f74207374616b60448201526206520360ec1b6064820152608401610451565b6000600360008a815260200190815260200160002090506000600460008b81526020019081526020016000206000336001600160a01b03166001600160a01b031681526020019081526020016000209050600160009054906101000a90046001600160a01b03166001600160a01b031663f242432a33308d8d6040518563ffffffff1660e01b81526004016109d1949392919061187d565b600060405180830381600087803b1580156109eb57600080fd5b505af11580156109ff573d6000803e3d6000fd5b50508354600160b01b900461ffff1615801592509050610a2957506002546001600160a01b031615155b15610b3457815460009061271090610a4c90600160b01b900461ffff168c6119e3565b610a5691906119c1565b9050600160009054906101000a90046001600160a01b03166001600160a01b031663f242432a30600260009054906101000a90046001600160a01b03168e856040518563ffffffff1660e01b8152600401610ab4949392919061187d565b600060405180830381600087803b158015610ace57600080fd5b505af1158015610ae2573d6000803e3d6000fd5b50505050808a610af29190611a31565b836001016000828254610b0591906119a9565b90915550610b159050818b611a31565b826002016000828254610b2891906119a9565b90915550610b69915050565b88826001016000828254610b4891906119a9565b9250508190555088816002016000828254610b6391906119a9565b90915550505b6040518a8152899033907f1449c6dd7851abc30abf37f57715f492010519147cc2652fbc38202c18a6ee90906020015b60405180910390a350505050505050505050565b6000546001600160a01b03163314610bd75760405162461bcd60e51b815260040161045190611944565b600280546001600160a01b0319166001600160a01b03831690811790915560405133907fd44190acf9d04bdb5d3a1aafff7e6dee8b40b93dfb8c5d3f0eea4b9f4539c3f790600090a350565b6000546001600160a01b03163314610c4d5760405162461bcd60e51b815260040161045190611944565b6127108161ffff161115610c735760405162461bcd60e51b8152600401610451906118b5565b60008481526003602052604090205460ff16610ceb5760405162461bcd60e51b815260206004820152603160248201527f5370616365506972617465735374616b696e673a207374616b696e6720706f6f6044820152706c20646f6573206e6f742065786973747360781b6064820152608401610451565b600084815260036020908152604091829020805461ffff8516600160b01b810261ffff60b01b196001600160401b038916600160701b810267ffffffffffffffff60701b196001600160681b038d16610100810291909116610100600160b01b0319909716969096171791909116919091179093558451918252928101919091529182015284907f0b4c50fa875a5393027a383d1a56be55c8ef8107fa69d872b0f5f6b8712234df906060015b60405180910390a250505050565b600082815260036020526040902054829060ff16610dd65760405162461bcd60e51b8152600401610451906118fd565b6000818152600360205260409020805442906001600160401b03600160c01b90910481169082161115610ee45760018201541580610e2357508154600160701b90046001600160401b0316155b15610e4b5781546001600160c01b0316600160c01b6001600160401b03831602178255610ee4565b60018201548254610e6c90600160c01b90046001600160401b031683611a48565b8354610e889190600160701b90046001600160401b0316611a02565b610e9a90670de0b6b3a7640000611a02565b6001600160401b0316610ead91906119c1565b826002016000828254610ec091906119a9565b909155505081546001600160c01b0316600160c01b6001600160401b038316021782555b60008581526003602090815260408083206002015460048352818420338552909252909120805487929190670de0b6b3a764000090610f239084611a31565b8260020154610f3291906119e3565b610f3c91906119c1565b816001016000828254610f4f91906119a9565b909155505081815586610fb35760405162461bcd60e51b815260206004820152602660248201527f5370616365506972617465735374616b696e673a2063616e6e6f74207769746860448201526506472617720360d41b6064820152608401610451565b6000888152600360209081526040808320600483528184203385529092528220600182018054929391928b9290610feb908490611a31565b92505081905550888160020160008282546110069190611a31565b9091555050600154604051637921219560e11b81526001600160a01b039091169063f242432a9061104190309033908f908f9060040161187d565b600060405180830381600087803b15801561105b57600080fd5b505af115801561106f573d6000803e3d6000fd5b50506040518c81528b92503391507ff960dbf9e5d0682f7a298ed974e33a28b4464914b7a2bfac12ae419a9afeb28090602001610b99565b6000828152600360209081526040808320600483528184206001600160a01b0386168552909252822060028201548254600160c01b90046001600160401b0316421180156110f85750600183015415155b15611163576001830154835461111e90600160c01b90046001600160401b031642611a31565b845461113a9190600160701b90046001600160401b03166119e3565b61114c90670de0b6b3a76400006119e3565b61115691906119c1565b61116090826119a9565b90505b60018201548254670de0b6b3a76400009061117e9084611a31565b846002015461118d91906119e3565b61119791906119c1565b6111a191906119a9565b9695505050505050565b6000546001600160a01b031633146111d55760405162461bcd60e51b815260040161045190611944565b6001600160a01b03811661123a5760405162461bcd60e51b815260206004820152602660248201527f4f776e61626c653a206e6577206f776e657220697320746865207a65726f206160448201526564647265737360d01b6064820152608401610451565b611243816114df565b50565b6000546001600160a01b031633146112705760405162461bcd60e51b815260040161045190611944565b6127108161ffff1611156112965760405162461bcd60e51b8152600401610451906118b5565b60008481526003602052604090205460ff161561130e5760405162461bcd60e51b815260206004820152603060248201527f5370616365506972617465735374616b696e673a207374616b696e6720706f6f60448201526f6c20616c72656164792065786973747360801b6064820152608401610451565b6040518060e00160405280600115158152602001846001600160681b03168152602001836001600160401b031681526020018261ffff168152602001426001600160401b031681526020016000815260200160008152506003600086815260200190815260200160002060008201518160000160006101000a81548160ff02191690831515021790555060208201518160000160016101000a8154816001600160681b0302191690836001600160681b03160217905550604082015181600001600e6101000a8154816001600160401b0302191690836001600160401b0316021790555060608201518160000160166101000a81548161ffff021916908361ffff16021790555060808201518160000160186101000a8154816001600160401b0302191690836001600160401b0316021790555060a0820151816001015560c082015181600201559050506005849080600181540180825580915050600190039060005260206000200160009091909190915055837f0e54f01254706bbc274388a6c796da9c343a8e7a659190ee7df3cc7b12dbb8f5848484604051610d98939291906001600160681b039390931683526001600160401b0391909116602083015261ffff16604082015260600190565b600080546001600160a01b038381166001600160a01b0319831681178455604051919092169283917f8be0079c531659141344cd1fd0a4f28419497f9722a3daafe3b4186f6b6457e09190a35050565b600081356001600160a81b038116811461154857600080fd5b6001600160a01b031692915050565b600082601f83011261156857600080fd5b813560206001600160401b0382111561158357611583611a86565b8160051b611592828201611979565b8381528281019086840183880185018910156115ad57600080fd5b600093505b858410156115d05780358352600193909301929184019184016115b2565b50979650505050505050565b600082601f8301126115ed57600080fd5b81356001600160401b0381111561160657611606611a86565b611619601f8201601f1916602001611979565b81815284602083860101111561162e57600080fd5b816020850160208301376000918101602001919091529392505050565b60006020828403121561165d57600080fd5b6116668261152f565b9392505050565b600080600080600060a0868803121561168557600080fd5b61168e8661152f565b945061169c6020870161152f565b935060408601356001600160401b03808211156116b857600080fd5b6116c489838a01611557565b945060608801359150808211156116da57600080fd5b6116e689838a01611557565b935060808801359150808211156116fc57600080fd5b50611709888289016115dc565b9150509295509295909350565b600080600080600060a0868803121561172e57600080fd5b6117378661152f565b94506117456020870161152f565b9350604086013592506060860135915060808601356001600160401b0381111561176e57600080fd5b611709888289016115dc565b60006020828403121561178c57600080fd5b81356001600160e01b03198116811461166657600080fd5b6000602082840312156117b657600080fd5b5035919050565b600080604083850312156117d057600080fd5b823591506117e06020840161152f565b90509250929050565b600080600080608085870312156117ff57600080fd5b8435935060208501356001600160681b038116811461181d57600080fd5b925060408501356001600160401b038116811461183957600080fd5b9150606085013561ffff8116811461185057600080fd5b939692955090935050565b6000806040838503121561186e57600080fd5b50508035926020909101359150565b6001600160a01b0394851681529290931660208301526040820152606081019190915260a06080820181905260009082015260c00190565b60208082526028908201527f5370616365506972617465735374616b696e673a20696e76616c6964206465706040820152676f7369742066656560c01b606082015260800190565b60208082526027908201527f5370616365506972617465735374616b696e673a206e6f74206578697374696e60408201526633903a37b5b2b760c91b606082015260800190565b6020808252818101527f4f776e61626c653a2063616c6c6572206973206e6f7420746865206f776e6572604082015260600190565b604051601f8201601f191681016001600160401b03811182821017156119a1576119a1611a86565b604052919050565b600082198211156119bc576119bc611a70565b500190565b6000826119de57634e487b7160e01b600052601260045260246000fd5b500490565b60008160001904831182151516156119fd576119fd611a70565b500290565b60006001600160401b0380831681851681830481118215151615611a2857611a28611a70565b02949350505050565b600082821015611a4357611a43611a70565b500390565b60006001600160401b0383811690831681811015611a6857611a68611a70565b039392505050565b634e487b7160e01b600052601160045260246000fd5b634e487b7160e01b600052604160045260246000fdfea26474726f6e582212203348ee3b9b67ce398d12d3d98f4e1dc1a876eb11a17ec9d1407279b4d4bca42364736f6c63430008060033",
  "source": "// SPDX-License-Identifier: unlicense\r\npragma solidity ^0.8.0;\r\n\r\nimport \"@openzeppelin/contracts/token/ERC1155/IERC1155.sol\";\r\nimport \"@openzeppelin/contracts/token/ERC1155/utils/ERC1155Holder.sol\";\r\nimport \"@openzeppelin/contracts/access/Ownable.sol\";\r\nimport \"./SpacePiratesTokens.sol\";\r\n\r\n/**\r\n * @title Space Pirates Staking Contract\r\n * @author @yuripaoloni, @MatteoLeonesi, @Gr3it (reviewer)\r\n * @notice Create staking pool of the tokens added\r\n */\r\n\r\ncontract SpacePiratesStaking is ERC1155Holder, Ownable {\r\n    // parent ERC1155 contract address\r\n    SpacePiratesTokens public parentToken;\r\n\r\n    address public feeAddress;\r\n\r\n    struct StakingPool {\r\n        bool exists;\r\n        uint104 rewardTokenId;\r\n        uint64 rewardRate; // token minted per second\r\n        uint16 depositFee;\r\n        uint64 lastUpdateTime; // last block timestamp stake, withdraw or getRewards were called\r\n        uint256 totalSupply;\r\n        uint256 accRewardPerShare; // sum of reward rate divided by the total supply of token staked at each time\r\n    }\r\n\r\n    struct UserInfo {\r\n        uint256 rewardDebt;\r\n        uint256 rewards;\r\n        uint256 balances;\r\n    }\r\n\r\n    // mapping of staking pools: staking tokenId => struct\r\n    mapping(uint256 => StakingPool) public stakingPools;\r\n\r\n    // mapping of usersInfo: staking tokenId => address => userInfo\r\n    mapping(uint256 => mapping(address => UserInfo)) public usersInfo;\r\n\r\n    // pool info, keep track of created pool indexes\r\n    uint256[] public poolIds;\r\n\r\n    event Staked(address indexed user, uint256 indexed tokenId, uint256 amount);\r\n\r\n    event Unstake(\r\n        address indexed user,\r\n        uint256 indexed tokenId,\r\n        uint256 amount\r\n    );\r\n\r\n    event RewardPaid(\r\n        address indexed user,\r\n        uint256 indexed stakingTokenId,\r\n        uint256 indexed rewardTokenId,\r\n        uint256 reward\r\n    );\r\n\r\n    event StakingPoolCreated(\r\n        uint256 indexed stakingTokenId,\r\n        uint104 rewardTokenId,\r\n        uint64 rewardRate,\r\n        uint16 depositFee\r\n    );\r\n\r\n    event StakingPoolUpdated(\r\n        uint256 indexed stakingTokenId,\r\n        uint104 rewardTokenId,\r\n        uint64 rewardRate,\r\n        uint16 depositFee\r\n    );\r\n\r\n    event SetFeeAddress(address indexed user, address indexed newAddress);\r\n\r\n    constructor(address tokens) {\r\n        parentToken = SpacePiratesTokens(tokens);\r\n    }\r\n\r\n    function poolAmount() external view returns (uint256) {\r\n        return poolIds.length;\r\n    }\r\n\r\n    function createStakingPool(\r\n        uint256 _stakingTokenId,\r\n        uint104 _rewardTokenId,\r\n        uint64 _rewardRate,\r\n        uint16 _depositFee\r\n    ) public onlyOwner {\r\n        require(\r\n            _depositFee <= 10000,\r\n            \"SpacePiratesStaking: invalid deposit fee\"\r\n        );\r\n        require(\r\n            !stakingPools[_stakingTokenId].exists,\r\n            \"SpacePiratesStaking: staking pool already exists\"\r\n        );\r\n\r\n        stakingPools[_stakingTokenId] = StakingPool(\r\n            true,\r\n            _rewardTokenId,\r\n            _rewardRate,\r\n            _depositFee,\r\n            uint64(block.timestamp),\r\n            0,\r\n            0\r\n        );\r\n\r\n        poolIds.push(_stakingTokenId);\r\n\r\n        emit StakingPoolCreated(\r\n            _stakingTokenId,\r\n            _rewardTokenId,\r\n            _rewardRate,\r\n            _depositFee\r\n        );\r\n    }\r\n\r\n    function updateStakingPool(\r\n        uint256 _stakingTokenId,\r\n        uint104 _rewardTokenId,\r\n        uint64 _rewardRate,\r\n        uint16 _depositFee\r\n    ) public onlyOwner {\r\n        require(\r\n            _depositFee <= 10000,\r\n            \"SpacePiratesStaking: invalid deposit fee\"\r\n        );\r\n        require(\r\n            stakingPools[_stakingTokenId].exists,\r\n            \"SpacePiratesStaking: staking pool does not exists\"\r\n        );\r\n\r\n        stakingPools[_stakingTokenId].rewardTokenId = _rewardTokenId;\r\n        stakingPools[_stakingTokenId].rewardRate = _rewardRate;\r\n        stakingPools[_stakingTokenId].depositFee = _depositFee;\r\n\r\n        emit StakingPoolUpdated(\r\n            _stakingTokenId,\r\n            _rewardTokenId,\r\n            _rewardRate,\r\n            _depositFee\r\n        );\r\n    }\r\n\r\n    function pendingRewards(uint256 _stakingTokenId, address _user)\r\n        external\r\n        view\r\n        returns (uint256)\r\n    {\r\n        StakingPool storage pool = stakingPools[_stakingTokenId];\r\n        UserInfo storage user = usersInfo[_stakingTokenId][_user];\r\n        uint256 accRewardPerShare = pool.accRewardPerShare;\r\n        if (block.timestamp > pool.lastUpdateTime && pool.totalSupply != 0) {\r\n            accRewardPerShare += ((pool.rewardRate *\r\n                (block.timestamp - pool.lastUpdateTime) *\r\n                1e18) / pool.totalSupply);\r\n        }\r\n        return (((user.balances * (accRewardPerShare - user.rewardDebt)) /\r\n            1e18) + user.rewards);\r\n    }\r\n\r\n    // Update reward variables of the given pool to be up-to-date. It is executed on stake, unstake, getRewards\r\n    modifier updatePool(uint256 _stakingTokenId) {\r\n        require(\r\n            stakingPools[_stakingTokenId].exists,\r\n            \"SpacePiratesStaking: not existing token\"\r\n        );\r\n\r\n        StakingPool storage pool = stakingPools[_stakingTokenId];\r\n        uint64 timestamp = uint64(block.timestamp);\r\n\r\n        if (timestamp > pool.lastUpdateTime) {\r\n            if (pool.totalSupply == 0 || pool.rewardRate == 0) {\r\n                pool.lastUpdateTime = timestamp;\r\n            } else {\r\n                pool.accRewardPerShare +=\r\n                    (pool.rewardRate *\r\n                        (timestamp - pool.lastUpdateTime) *\r\n                        1e18) /\r\n                    pool.totalSupply;\r\n                pool.lastUpdateTime = timestamp;\r\n            }\r\n        }\r\n\r\n        _;\r\n    }\r\n\r\n    // Update user rewards. It is executed on stake, unstake, getRewards\r\n    modifier updateUserRewards(uint256 _stakingTokenId) {\r\n        uint256 accRewardPerShare = stakingPools[_stakingTokenId]\r\n            .accRewardPerShare;\r\n        UserInfo storage user = usersInfo[_stakingTokenId][msg.sender];\r\n        user.rewards +=\r\n            (user.balances * (accRewardPerShare - user.rewardDebt)) /\r\n            1e18;\r\n        user.rewardDebt = accRewardPerShare;\r\n\r\n        _;\r\n    }\r\n\r\n    function stake(uint256 _stakingTokenId, uint256 _amount)\r\n        external\r\n        updatePool(_stakingTokenId)\r\n        updateUserRewards(_stakingTokenId)\r\n    {\r\n        require(_amount > 0, \"SpacePiratesStaking: cannot stake 0\");\r\n        StakingPool storage pool = stakingPools[_stakingTokenId];\r\n        UserInfo storage user = usersInfo[_stakingTokenId][msg.sender];\r\n\r\n        parentToken.safeTransferFrom(\r\n            msg.sender,\r\n            address(this),\r\n            _stakingTokenId,\r\n            _amount,\r\n            \"\"\r\n        );\r\n\r\n        if (pool.depositFee > 0 && feeAddress != address(0)) {\r\n            uint256 depositFee = (_amount * pool.depositFee) / 10000;\r\n\r\n            parentToken.safeTransferFrom(\r\n                address(this),\r\n                feeAddress,\r\n                _stakingTokenId,\r\n                depositFee,\r\n                \"\"\r\n            );\r\n            pool.totalSupply += _amount - depositFee;\r\n            user.balances += _amount - depositFee;\r\n        } else {\r\n            pool.totalSupply += _amount;\r\n            user.balances += _amount;\r\n        }\r\n\r\n        emit Staked(msg.sender, _amount, _stakingTokenId);\r\n    }\r\n\r\n    function unstake(uint256 _stakingTokenId, uint256 _amount)\r\n        external\r\n        updatePool(_stakingTokenId)\r\n        updateUserRewards(_stakingTokenId)\r\n    {\r\n        require(_amount > 0, \"SpacePiratesStaking: cannot withdraw 0\");\r\n        StakingPool storage pool = stakingPools[_stakingTokenId];\r\n        UserInfo storage user = usersInfo[_stakingTokenId][msg.sender];\r\n        pool.totalSupply -= _amount;\r\n        user.balances -= _amount;\r\n\r\n        parentToken.safeTransferFrom(\r\n            address(this),\r\n            msg.sender,\r\n            _stakingTokenId,\r\n            _amount,\r\n            \"\"\r\n        );\r\n\r\n        emit Unstake(msg.sender, _amount, _stakingTokenId);\r\n    }\r\n\r\n    function getReward(uint256 _stakingTokenId)\r\n        external\r\n        updatePool(_stakingTokenId)\r\n        updateUserRewards(_stakingTokenId)\r\n    {\r\n        UserInfo storage user = usersInfo[_stakingTokenId][msg.sender];\r\n        uint256 rewardTokenId = stakingPools[_stakingTokenId].rewardTokenId;\r\n        uint256 rewards = user.rewards;\r\n        user.rewards = 0;\r\n        parentToken.mint(msg.sender, rewardTokenId, rewards);\r\n\r\n        emit RewardPaid(msg.sender, _stakingTokenId, rewardTokenId, rewards);\r\n    }\r\n\r\n    function setFeeAddress(address _feeAddress) public onlyOwner {\r\n        feeAddress = _feeAddress;\r\n        emit SetFeeAddress(msg.sender, _feeAddress);\r\n    }\r\n}\r\n",
  "sourcePath": "C:/Users/emanu/space-pirates-contracts/contracts/SpacePiratesStaking.sol",
  "compiler": {
    "name": "solc",
    "version": "0.8.6+commit.0e36fba0.mod.Emscripten.clang"
  },
  "schemaVersion": "2.0.1",
  "updatedAt": "2022-07-23T23:58:53.754Z"
}