{
  "contractName": "SpacePiratesQuestRedeem",
  "abi": [
    {
      "inputs": [
        {
          "internalType": "contract SpacePiratesTokens",
          "name": "_tokenContract",
          "type": "address"
        }
      ],
      "stateMutability": "nonpayable",
      "type": "constructor"
    },
    {
      "anonymous": false,
      "inputs": [
        {
          "indexed": true,
          "internalType": "address",
          "name": "previousOwner",
          "type": "address"
        },
        {
          "indexed": true,
          "internalType": "address",
          "name": "newOwner",
          "type": "address"
        }
      ],
      "name": "OwnershipTransferred",
      "type": "event"
    },
    {
      "anonymous": false,
      "inputs": [
        {
          "indexed": false,
          "internalType": "address",
          "name": "account",
          "type": "address"
        }
      ],
      "name": "Paused",
      "type": "event"
    },
    {
      "anonymous": false,
      "inputs": [
        {
          "indexed": true,
          "internalType": "address",
          "name": "receiver",
          "type": "address"
        },
        {
          "indexed": false,
          "internalType": "string",
          "name": "questName",
          "type": "string"
        },
        {
          "indexed": false,
          "internalType": "uint256[]",
          "name": "ids",
          "type": "uint256[]"
        },
        {
          "indexed": false,
          "internalType": "uint256[]",
          "name": "amounts",
          "type": "uint256[]"
        }
      ],
      "name": "QuestClaim",
      "type": "event"
    },
    {
      "anonymous": false,
      "inputs": [
        {
          "indexed": false,
          "internalType": "address",
          "name": "account",
          "type": "address"
        }
      ],
      "name": "Unpaused",
      "type": "event"
    },
    {
      "anonymous": false,
      "inputs": [
        {
          "indexed": false,
          "internalType": "address",
          "name": "_addr",
          "type": "address"
        }
      ],
      "name": "UpdateVerifier",
      "type": "event"
    },
    {
      "inputs": [
        {
          "internalType": "string",
          "name": "questName",
          "type": "string"
        },
        {
          "internalType": "uint256[]",
          "name": "ids",
          "type": "uint256[]"
        },
        {
          "internalType": "uint256[]",
          "name": "amounts",
          "type": "uint256[]"
        },
        {
          "internalType": "bytes",
          "name": "signature",
          "type": "bytes"
        }
      ],
      "name": "claimQuest",
      "outputs": [],
      "stateMutability": "nonpayable",
      "type": "function"
    },
    {
      "inputs": [],
      "name": "owner",
      "outputs": [
        {
          "internalType": "address",
          "name": "",
          "type": "address"
        }
      ],
      "stateMutability": "view",
      "type": "function"
    },
    {
      "inputs": [],
      "name": "pause",
      "outputs": [],
      "stateMutability": "nonpayable",
      "type": "function"
    },
    {
      "inputs": [],
      "name": "paused",
      "outputs": [
        {
          "internalType": "bool",
          "name": "",
          "type": "bool"
        }
      ],
      "stateMutability": "view",
      "type": "function"
    },
    {
      "inputs": [],
      "name": "renounceOwnership",
      "outputs": [],
      "stateMutability": "nonpayable",
      "type": "function"
    },
    {
      "inputs": [
        {
          "internalType": "string",
          "name": "questName",
          "type": "string"
        },
        {
          "internalType": "uint256[]",
          "name": "ids",
          "type": "uint256[]"
        },
        {
          "internalType": "uint256[]",
          "name": "amounts",
          "type": "uint256[]"
        },
        {
          "internalType": "bytes",
          "name": "signature",
          "type": "bytes"
        }
      ],
      "name": "signatureVerification",
      "outputs": [
        {
          "internalType": "bool",
          "name": "",
          "type": "bool"
        }
      ],
      "stateMutability": "view",
      "type": "function"
    },
    {
      "inputs": [],
      "name": "tokenContract",
      "outputs": [
        {
          "internalType": "contract SpacePiratesTokens",
          "name": "",
          "type": "address"
        }
      ],
      "stateMutability": "view",
      "type": "function"
    },
    {
      "inputs": [
        {
          "internalType": "address",
          "name": "newOwner",
          "type": "address"
        }
      ],
      "name": "transferOwnership",
      "outputs": [],
      "stateMutability": "nonpayable",
      "type": "function"
    },
    {
      "inputs": [],
      "name": "unpause",
      "outputs": [],
      "stateMutability": "nonpayable",
      "type": "function"
    },
    {
      "inputs": [
        {
          "internalType": "address",
          "name": "_addr",
          "type": "address"
        }
      ],
      "name": "updateVerifier",
      "outputs": [],
      "stateMutability": "nonpayable",
      "type": "function"
    },
    {
      "inputs": [],
      "name": "verifier",
      "outputs": [
        {
          "internalType": "address",
          "name": "",
          "type": "address"
        }
      ],
      "stateMutability": "view",
      "type": "function"
    }
  ],
  "bytecode": "0x61016060405234801561001157600080fd5b50d3801561001e57600080fd5b50d2801561002b57600080fd5b5060405161130438038061130483398101604081905261004a916101aa565b6040518060400160405280600d81526020016c5370616365205069726174657360981b815250604051806040016040528060018152602001603160f81b8152506100a061009b61015660201b60201c565b61015a565b815160209283012081519183019190912060e08290526101008190524660a0818152604080517f8b73c3c69bb8fe3d512ecc4cf759cc79239f7b179b0ffacaa9a75d522b39400f81880181905281830196909652606081810195909552608080820194909452308184018190528251808303909401845260c091820190925282519290960191909120909152811b909252610120526000805460ff60a01b191690551b6001600160601b031916610140526101e3565b3390565b600080546001600160a01b038381166001600160a01b0319831681178455604051919092169283917f8be0079c531659141344cd1fd0a4f28419497f9722a3daafe3b4186f6b6457e09190a35050565b6000602082840312156101bc57600080fd5b81516001600160a81b03811681146101d357600080fd5b6001600160a01b03169392505050565b60805160a05160c05160601c60e05161010051610120516101405160601c6110ba61024a6000396000818161011a015261034701526000610bc101526000610c1001526000610beb01526000610b4401526000610b6e01526000610b9801526110ba6000f3fe608060405234801561001057600080fd5b50d3801561001d57600080fd5b50d2801561002a57600080fd5b50600436106100c35760003560e01c8063715018a61161008b578063715018a61461015a5780637607c5a7146101625780638456cb59146101755780638da5cb5b1461017d57806397fc007c1461018e578063f2fde38b146101a157600080fd5b80632b7ac3f3146100c857806339909c7c146100f85780633f4ba83a1461010d57806355a373d6146101155780635c975abb1461013c575b600080fd5b6001546100db906001600160a01b031681565b6040516001600160a01b0390911681526020015b60405180910390f35b61010b610106366004610e44565b6101b4565b005b61010b61040b565b6100db7f000000000000000000000000000000000000000000000000000000000000000081565b600054600160a01b900460ff165b60405190151581526020016100ef565b61010b61043f565b61014a610170366004610e44565b610473565b61010b6104ef565b6000546001600160a01b03166100db565b61010b61019c366004610e0b565b610521565b61010b6101af366004610e0b565b61059f565b600054600160a01b900460ff16156102065760405162461bcd60e51b815260206004820152601060248201526f14185d5cd8589b194e881c185d5cd95960821b60448201526064015b60405180910390fd5b60028282604051610218929190610f6a565b9081526040519081900360200190205460ff161561028f5760405162461bcd60e51b815260206004820152602e60248201527f537061636550697261746573517565737452656465656d3a207175657374206160448201526d1b1c9958591e4818db185a5b595960921b60648201526084016101fd565b61029f8888888888888888610473565b6102fe5760405162461bcd60e51b815260206004820152602a60248201527f537061636550697261746573517565737452656465656d3a20696e76616c6964604482015269207369676e617475726560b01b60648201526084016101fd565b600160028383604051610312929190610f6a565b908152604051908190036020018120805492151560ff199093169290921790915563d81d0a1560e01b81526001600160a01b037f0000000000000000000000000000000000000000000000000000000000000000169063d81d0a15906103849033908a908a908a908a90600401610f7a565b600060405180830381600087803b15801561039e57600080fd5b505af11580156103b2573d6000803e3d6000fd5b50505050336001600160a01b03167f1625ee4faf048744cde9f17f74778ffb12c591b5579f98a734490619227ba1cd8989898989896040516103f996959493929190610fb2565b60405180910390a25050505050505050565b6000546001600160a01b031633146104355760405162461bcd60e51b81526004016101fd90611013565b61043d61063a565b565b6000546001600160a01b031633146104695760405162461bcd60e51b81526004016101fd90611013565b61043d60006106d7565b6000806104858a8a8a8a8a8a33610727565b600154604080516020601f88018190048102820181019092528681529293506001600160a01b03909116916104d791849190889088908190840183828082843760009201919091525061080c92505050565b6001600160a01b0316149a9950505050505050505050565b6000546001600160a01b031633146105195760405162461bcd60e51b81526004016101fd90611013565b61043d610830565b6000546001600160a01b0316331461054b5760405162461bcd60e51b81526004016101fd90611013565b600180546001600160a01b0319166001600160a01b0383169081179091556040519081527f99561e700fd3015a2ccffc45ee5246e31fa07462e393902c82b6f920da9576279060200160405180910390a150565b6000546001600160a01b031633146105c95760405162461bcd60e51b81526004016101fd90611013565b6001600160a01b03811661062e5760405162461bcd60e51b815260206004820152602660248201527f4f776e61626c653a206e6577206f776e657220697320746865207a65726f206160448201526564647265737360d01b60648201526084016101fd565b610637816106d7565b50565b600054600160a01b900460ff1661068a5760405162461bcd60e51b815260206004820152601460248201527314185d5cd8589b194e881b9bdd081c185d5cd95960621b60448201526064016101fd565b6000805460ff60a01b191690557f5db9ee0a495bf2e6ff9c91a7834c1ba4fdd244a5e8aa4e537bd38aeae4b073aa335b6040516001600160a01b03909116815260200160405180910390a1565b600080546001600160a01b038381166001600160a01b0319831681178455604051919092169283917f8be0079c531659141344cd1fd0a4f28419497f9722a3daafe3b4186f6b6457e09190a35050565b60006108007f3d0b180452b5c323f7575f297332353f14a157752f5bf48f22427d9fcd9f3c40898960405161075d929190610f6a565b60405180910390208888604051602001610778929190610f3e565b6040516020818303038152906040528051906020012087876040516020016107a1929190610f3e565b60408051601f19818403018152828252805160209182012090830195909552810192909252606082015260808101919091526001600160a01b03841660a082015260c001604051602081830303815290604052805190602001206108b8565b98975050505050505050565b600080600061081b858561090c565b915091506108288161097c565b509392505050565b600054600160a01b900460ff161561087d5760405162461bcd60e51b815260206004820152601060248201526f14185d5cd8589b194e881c185d5cd95960821b60448201526064016101fd565b6000805460ff60a01b1916600160a01b1790557f62e78cea01bee320cd4e420270b5ea74000d11b0c9f74754ebdbfc544b05a2586106ba3390565b60006109066108c5610b37565b8360405161190160f01b6020820152602281018390526042810182905260009060620160405160208183030381529060405280519060200120905092915050565b92915050565b6000808251604114156109435760208301516040840151606085015160001a61093787828585610c5e565b94509450505050610975565b82516040141561096d5760208301516040840151610962868383610d4b565b935093505050610975565b506000905060025b9250929050565b60008160048111156109905761099061106e565b14156109995750565b60018160048111156109ad576109ad61106e565b14156109fb5760405162461bcd60e51b815260206004820152601860248201527f45434453413a20696e76616c6964207369676e6174757265000000000000000060448201526064016101fd565b6002816004811115610a0f57610a0f61106e565b1415610a5d5760405162461bcd60e51b815260206004820152601f60248201527f45434453413a20696e76616c6964207369676e6174757265206c656e6774680060448201526064016101fd565b6003816004811115610a7157610a7161106e565b1415610aca5760405162461bcd60e51b815260206004820152602260248201527f45434453413a20696e76616c6964207369676e6174757265202773272076616c604482015261756560f01b60648201526084016101fd565b6004816004811115610ade57610ade61106e565b14156106375760405162461bcd60e51b815260206004820152602260248201527f45434453413a20696e76616c6964207369676e6174757265202776272076616c604482015261756560f01b60648201526084016101fd565b6000306001600160a01b037f000000000000000000000000000000000000000000000000000000000000000016148015610b9057507f000000000000000000000000000000000000000000000000000000000000000046145b15610bba57507f000000000000000000000000000000000000000000000000000000000000000090565b50604080517f00000000000000000000000000000000000000000000000000000000000000006020808301919091527f0000000000000000000000000000000000000000000000000000000000000000828401527f000000000000000000000000000000000000000000000000000000000000000060608301524660808301523060a0808401919091528351808403909101815260c0909201909252805191012090565b6000807f7fffffffffffffffffffffffffffffff5d576e7357a4501ddfe92f46681b20a0831115610c955750600090506003610d42565b8460ff16601b14158015610cad57508460ff16601c14155b15610cbe5750600090506004610d42565b6040805160008082526020820180845289905260ff881692820192909252606081018690526080810185905260019060a0016020604051602081039080840390855afa158015610d12573d6000803e3d6000fd5b5050604051601f1901519150506001600160a01b038116610d3b57600060019250925050610d42565b9150600090505b94509492505050565b6000806001600160ff1b03831681610d6860ff86901c601b611048565b9050610d7687828885610c5e565b935093505050935093915050565b60008083601f840112610d9657600080fd5b50813567ffffffffffffffff811115610dae57600080fd5b6020830191508360208260051b850101111561097557600080fd5b60008083601f840112610ddb57600080fd5b50813567ffffffffffffffff811115610df357600080fd5b60208301915083602082850101111561097557600080fd5b600060208284031215610e1d57600080fd5b81356001600160a81b0381168114610e3457600080fd5b6001600160a01b03169392505050565b6000806000806000806000806080898b031215610e6057600080fd5b883567ffffffffffffffff80821115610e7857600080fd5b610e848c838d01610dc9565b909a50985060208b0135915080821115610e9d57600080fd5b610ea98c838d01610d84565b909850965060408b0135915080821115610ec257600080fd5b610ece8c838d01610d84565b909650945060608b0135915080821115610ee757600080fd5b50610ef48b828c01610dc9565b999c989b5096995094979396929594505050565b81835260006001600160fb1b03831115610f2157600080fd5b8260051b8083602087013760009401602001938452509192915050565b60006001600160fb1b03831115610f5457600080fd5b8260051b80858437600092019182525092915050565b8183823760009101908152919050565b6001600160a01b0386168152606060208201819052600090610f9f9083018688610f08565b8281036040840152610800818587610f08565b60608152856060820152858760808301376000608087830101526000601f19601f88011682016080838203016020840152610ff1608082018789610f08565b90508281036040840152611006818587610f08565b9998505050505050505050565b6020808252818101527f4f776e61626c653a2063616c6c6572206973206e6f7420746865206f776e6572604082015260600190565b6000821982111561106957634e487b7160e01b600052601160045260246000fd5b500190565b634e487b7160e01b600052602160045260246000fdfea26474726f6e582212203cc40de9605253675de8c36654eb8efbffffa21f32fec1cdbc0f1c2d98f73b7564736f6c63430008060033",
  "source": "// SPDX-License-Identifier: unlicense\r\npragma solidity ^0.8.0;\r\n\r\nimport \"@openzeppelin/contracts/utils/cryptography/draft-EIP712.sol\";\r\nimport \"@openzeppelin/contracts/access/Ownable.sol\";\r\nimport \"@openzeppelin/contracts/security/Pausable.sol\";\r\nimport \"./SpacePiratesTokens.sol\";\r\n\r\n/**\r\n * @title Space Pirates Quest Redeem Contract\r\n * @author @Gr3it, @yuripaoloni (reviewer), @MatteoLeonesi (reviewer)\r\n * @notice Let user claim their quest via a valid signature\r\n */\r\n\r\ncontract SpacePiratesQuestRedeem is Ownable, EIP712, Pausable {\r\n    string private constant SIGNING_DOMAIN = \"Space Pirates\";\r\n    string private constant SIGNATURE_VERSION = \"1\";\r\n\r\n    SpacePiratesTokens public immutable tokenContract;\r\n    address public verifier;\r\n\r\n    mapping(bytes => bool) claimed;\r\n\r\n    event UpdateVerifier(address _addr);\r\n    event QuestClaim(\r\n        address indexed receiver,\r\n        string questName,\r\n        uint256[] ids,\r\n        uint256[] amounts\r\n    );\r\n\r\n    constructor(SpacePiratesTokens _tokenContract)\r\n        EIP712(SIGNING_DOMAIN, SIGNATURE_VERSION)\r\n    {\r\n        tokenContract = _tokenContract;\r\n    }\r\n\r\n    function claimQuest(\r\n        string calldata questName,\r\n        uint256[] calldata ids,\r\n        uint256[] calldata amounts,\r\n        bytes calldata signature\r\n    ) public whenNotPaused {\r\n        require(\r\n            !claimed[signature],\r\n            \"SpacePiratesQuestRedeem: quest already claimed\"\r\n        );\r\n        require(\r\n            signatureVerification(questName, ids, amounts, signature),\r\n            \"SpacePiratesQuestRedeem: invalid signature\"\r\n        );\r\n        claimed[signature] = true;\r\n        tokenContract.mintBatch(msg.sender, ids, amounts);\r\n        emit QuestClaim(msg.sender, questName, ids, amounts);\r\n    }\r\n\r\n    function signatureVerification(\r\n        string calldata questName,\r\n        uint256[] calldata ids,\r\n        uint256[] calldata amounts,\r\n        bytes calldata signature\r\n    ) public view returns (bool) {\r\n        bytes32 digest = _hash(questName, ids, amounts, msg.sender);\r\n        return ECDSA.recover(digest, signature) == verifier;\r\n    }\r\n\r\n    function _hash(\r\n        string calldata questName,\r\n        uint256[] calldata ids,\r\n        uint256[] calldata amounts,\r\n        address receiver\r\n    ) internal view returns (bytes32) {\r\n        return\r\n            _hashTypedDataV4(\r\n                keccak256(\r\n                    abi.encode(\r\n                        keccak256(\r\n                            \"SpacePiratesQuest(string questName,uint256[] ids,uint256[] amounts,address receiver)\"\r\n                        ),\r\n                        keccak256(bytes(questName)),\r\n                        keccak256(abi.encodePacked(ids)),\r\n                        keccak256(abi.encodePacked(amounts)),\r\n                        receiver\r\n                    )\r\n                )\r\n            );\r\n    }\r\n\r\n    function pause() public onlyOwner {\r\n        _pause();\r\n    }\r\n\r\n    function unpause() public onlyOwner {\r\n        _unpause();\r\n    }\r\n\r\n    function updateVerifier(address _addr) public onlyOwner {\r\n        verifier = _addr;\r\n        emit UpdateVerifier(_addr);\r\n    }\r\n}\r\n",
  "sourcePath": "C:/Users/emanu/space-pirates-contracts/contracts/SpacePiratesQuestRedeem.sol",
  "compiler": {
    "name": "solc",
    "version": "0.8.6+commit.0e36fba0.mod.Emscripten.clang"
  },
  "schemaVersion": "2.0.1",
  "updatedAt": "2022-07-23T23:58:53.753Z"
}