{
  "contractName": "SpacePiratesTokens",
  "abi": [
    {
      "inputs": [
        {
          "internalType": "string",
          "name": "uri",
          "type": "string"
        }
      ],
      "stateMutability": "nonpayable",
      "type": "constructor"
    },
    {
      "anonymous": false,
      "inputs": [
        {
          "indexed": true,
          "internalType": "address",
          "name": "account",
          "type": "address"
        },
        {
          "indexed": true,
          "internalType": "address",
          "name": "operator",
          "type": "address"
        },
        {
          "indexed": false,
          "internalType": "bool",
          "name": "approved",
          "type": "bool"
        }
      ],
      "name": "ApprovalForAll",
      "type": "event"
    },
    {
      "anonymous": false,
      "inputs": [
        {
          "indexed": true,
          "internalType": "address",
          "name": "sender",
          "type": "address"
        },
        {
          "indexed": false,
          "internalType": "uint256",
          "name": "id",
          "type": "uint256"
        },
        {
          "indexed": false,
          "internalType": "uint256",
          "name": "amount",
          "type": "uint256"
        }
      ],
      "name": "Burn",
      "type": "event"
    },
    {
      "anonymous": false,
      "inputs": [
        {
          "indexed": true,
          "internalType": "address",
          "name": "sender",
          "type": "address"
        },
        {
          "indexed": false,
          "internalType": "uint256[]",
          "name": "ids",
          "type": "uint256[]"
        },
        {
          "indexed": false,
          "internalType": "uint256[]",
          "name": "amounts",
          "type": "uint256[]"
        }
      ],
      "name": "BurnBatch",
      "type": "event"
    },
    {
      "anonymous": false,
      "inputs": [
        {
          "indexed": true,
          "internalType": "bytes32[]",
          "name": "roles",
          "type": "bytes32[]"
        },
        {
          "indexed": false,
          "internalType": "address[]",
          "name": "accounts",
          "type": "address[]"
        }
      ],
      "name": "GrantMultiRole",
      "type": "event"
    },
    {
      "anonymous": false,
      "inputs": [
        {
          "indexed": true,
          "internalType": "bytes32",
          "name": "role",
          "type": "bytes32"
        },
        {
          "indexed": false,
          "internalType": "address",
          "name": "account",
          "type": "address"
        }
      ],
      "name": "GrantRole",
      "type": "event"
    },
    {
      "anonymous": false,
      "inputs": [],
      "name": "LockTokenTransfer",
      "type": "event"
    },
    {
      "anonymous": false,
      "inputs": [
        {
          "indexed": true,
          "internalType": "address",
          "name": "sender",
          "type": "address"
        },
        {
          "indexed": false,
          "internalType": "uint256",
          "name": "id",
          "type": "uint256"
        },
        {
          "indexed": false,
          "internalType": "uint256",
          "name": "amount",
          "type": "uint256"
        },
        {
          "indexed": true,
          "internalType": "address",
          "name": "to",
          "type": "address"
        }
      ],
      "name": "Mint",
      "type": "event"
    },
    {
      "anonymous": false,
      "inputs": [
        {
          "indexed": true,
          "internalType": "address",
          "name": "sender",
          "type": "address"
        },
        {
          "indexed": false,
          "internalType": "uint256[]",
          "name": "ids",
          "type": "uint256[]"
        },
        {
          "indexed": false,
          "internalType": "uint256[]",
          "name": "amounts",
          "type": "uint256[]"
        },
        {
          "indexed": true,
          "internalType": "address",
          "name": "to",
          "type": "address"
        }
      ],
      "name": "MintBatch",
      "type": "event"
    },
    {
      "anonymous": false,
      "inputs": [],
      "name": "Pause",
      "type": "event"
    },
    {
      "anonymous": false,
      "inputs": [
        {
          "indexed": false,
          "internalType": "address",
          "name": "account",
          "type": "address"
        }
      ],
      "name": "Paused",
      "type": "event"
    },
    {
      "anonymous": false,
      "inputs": [
        {
          "indexed": true,
          "internalType": "bytes32",
          "name": "role",
          "type": "bytes32"
        },
        {
          "indexed": false,
          "internalType": "address",
          "name": "account",
          "type": "address"
        }
      ],
      "name": "RenounceRole",
      "type": "event"
    },
    {
      "anonymous": false,
      "inputs": [
        {
          "indexed": true,
          "internalType": "bytes32[]",
          "name": "roles",
          "type": "bytes32[]"
        },
        {
          "indexed": false,
          "internalType": "address[]",
          "name": "accounts",
          "type": "address[]"
        }
      ],
      "name": "RevokeMultiRole",
      "type": "event"
    },
    {
      "anonymous": false,
      "inputs": [
        {
          "indexed": true,
          "internalType": "bytes32",
          "name": "role",
          "type": "bytes32"
        },
        {
          "indexed": false,
          "internalType": "address",
          "name": "account",
          "type": "address"
        }
      ],
      "name": "RevokeRole",
      "type": "event"
    },
    {
      "anonymous": false,
      "inputs": [
        {
          "indexed": true,
          "internalType": "bytes32",
          "name": "role",
          "type": "bytes32"
        },
        {
          "indexed": true,
          "internalType": "bytes32",
          "name": "previousAdminRole",
          "type": "bytes32"
        },
        {
          "indexed": true,
          "internalType": "bytes32",
          "name": "newAdminRole",
          "type": "bytes32"
        }
      ],
      "name": "RoleAdminChanged",
      "type": "event"
    },
    {
      "anonymous": false,
      "inputs": [
        {
          "indexed": true,
          "internalType": "bytes32",
          "name": "role",
          "type": "bytes32"
        },
        {
          "indexed": true,
          "internalType": "address",
          "name": "account",
          "type": "address"
        },
        {
          "indexed": true,
          "internalType": "address",
          "name": "sender",
          "type": "address"
        }
      ],
      "name": "RoleGranted",
      "type": "event"
    },
    {
      "anonymous": false,
      "inputs": [
        {
          "indexed": true,
          "internalType": "bytes32",
          "name": "role",
          "type": "bytes32"
        },
        {
          "indexed": true,
          "internalType": "address",
          "name": "account",
          "type": "address"
        },
        {
          "indexed": true,
          "internalType": "address",
          "name": "sender",
          "type": "address"
        }
      ],
      "name": "RoleRevoked",
      "type": "event"
    },
    {
      "anonymous": false,
      "inputs": [
        {
          "indexed": true,
          "internalType": "address",
          "name": "operator",
          "type": "address"
        },
        {
          "indexed": true,
          "internalType": "address",
          "name": "from",
          "type": "address"
        },
        {
          "indexed": true,
          "internalType": "address",
          "name": "to",
          "type": "address"
        },
        {
          "indexed": false,
          "internalType": "uint256[]",
          "name": "ids",
          "type": "uint256[]"
        },
        {
          "indexed": false,
          "internalType": "uint256[]",
          "name": "values",
          "type": "uint256[]"
        }
      ],
      "name": "TransferBatch",
      "type": "event"
    },
    {
      "anonymous": false,
      "inputs": [
        {
          "indexed": true,
          "internalType": "address",
          "name": "operator",
          "type": "address"
        },
        {
          "indexed": true,
          "internalType": "address",
          "name": "from",
          "type": "address"
        },
        {
          "indexed": true,
          "internalType": "address",
          "name": "to",
          "type": "address"
        },
        {
          "indexed": false,
          "internalType": "uint256",
          "name": "id",
          "type": "uint256"
        },
        {
          "indexed": false,
          "internalType": "uint256",
          "name": "value",
          "type": "uint256"
        }
      ],
      "name": "TransferSingle",
      "type": "event"
    },
    {
      "anonymous": false,
      "inputs": [
        {
          "indexed": false,
          "internalType": "string",
          "name": "value",
          "type": "string"
        },
        {
          "indexed": true,
          "internalType": "uint256",
          "name": "id",
          "type": "uint256"
        }
      ],
      "name": "URI",
      "type": "event"
    },
    {
      "anonymous": false,
      "inputs": [],
      "name": "UnLockTokenTransfer",
      "type": "event"
    },
    {
      "anonymous": false,
      "inputs": [],
      "name": "Unpause",
      "type": "event"
    },
    {
      "anonymous": false,
      "inputs": [
        {
          "indexed": false,
          "internalType": "address",
          "name": "account",
          "type": "address"
        }
      ],
      "name": "Unpaused",
      "type": "event"
    },
    {
      "anonymous": false,
      "inputs": [
        {
          "indexed": false,
          "internalType": "string",
          "name": "newUri",
          "type": "string"
        }
      ],
      "name": "UriUpdate",
      "type": "event"
    },
    {
      "inputs": [],
      "name": "ASTEROIDS",
      "outputs": [
        {
          "internalType": "uint256",
          "name": "",
          "type": "uint256"
        }
      ],
      "stateMutability": "view",
      "type": "function"
    },
    {
      "inputs": [],
      "name": "BF_BURN_ROLE",
      "outputs": [
        {
          "internalType": "bytes32",
          "name": "",
          "type": "bytes32"
        }
      ],
      "stateMutability": "view",
      "type": "function"
    },
    {
      "inputs": [],
      "name": "BF_MINT_ROLE",
      "outputs": [
        {
          "internalType": "bytes32",
          "name": "",
          "type": "bytes32"
        }
      ],
      "stateMutability": "view",
      "type": "function"
    },
    {
      "inputs": [],
      "name": "CAN_PAUSE_ROLE",
      "outputs": [
        {
          "internalType": "bytes32",
          "name": "",
          "type": "bytes32"
        }
      ],
      "stateMutability": "view",
      "type": "function"
    },
    {
      "inputs": [],
      "name": "CAN_UNPAUSE_ROLE",
      "outputs": [
        {
          "internalType": "bytes32",
          "name": "",
          "type": "bytes32"
        }
      ],
      "stateMutability": "view",
      "type": "function"
    },
    {
      "inputs": [],
      "name": "DECORATIONS_BURN_ROLE",
      "outputs": [
        {
          "internalType": "bytes32",
          "name": "",
          "type": "bytes32"
        }
      ],
      "stateMutability": "view",
      "type": "function"
    },
    {
      "inputs": [],
      "name": "DECORATIONS_MINT_ROLE",
      "outputs": [
        {
          "internalType": "bytes32",
          "name": "",
          "type": "bytes32"
        }
      ],
      "stateMutability": "view",
      "type": "function"
    },
    {
      "inputs": [],
      "name": "DEFAULT_ADMIN_ROLE",
      "outputs": [
        {
          "internalType": "bytes32",
          "name": "",
          "type": "bytes32"
        }
      ],
      "stateMutability": "view",
      "type": "function"
    },
    {
      "inputs": [],
      "name": "DOUBLOONS",
      "outputs": [
        {
          "internalType": "uint256",
          "name": "",
          "type": "uint256"
        }
      ],
      "stateMutability": "view",
      "type": "function"
    },
    {
      "inputs": [],
      "name": "ITEMS_BURN_ROLE",
      "outputs": [
        {
          "internalType": "bytes32",
          "name": "",
          "type": "bytes32"
        }
      ],
      "stateMutability": "view",
      "type": "function"
    },
    {
      "inputs": [],
      "name": "ITEMS_MINT_ROLE",
      "outputs": [
        {
          "internalType": "bytes32",
          "name": "",
          "type": "bytes32"
        }
      ],
      "stateMutability": "view",
      "type": "function"
    },
    {
      "inputs": [],
      "name": "STK_ASTEROIDS",
      "outputs": [
        {
          "internalType": "uint256",
          "name": "",
          "type": "uint256"
        }
      ],
      "stateMutability": "view",
      "type": "function"
    },
    {
      "inputs": [],
      "name": "TITLES_BURN_ROLE",
      "outputs": [
        {
          "internalType": "bytes32",
          "name": "",
          "type": "bytes32"
        }
      ],
      "stateMutability": "view",
      "type": "function"
    },
    {
      "inputs": [],
      "name": "TITLES_MINT_ROLE",
      "outputs": [
        {
          "internalType": "bytes32",
          "name": "",
          "type": "bytes32"
        }
      ],
      "stateMutability": "view",
      "type": "function"
    },
    {
      "inputs": [],
      "name": "TRANSFERABLE_SETTER_ROLE",
      "outputs": [
        {
          "internalType": "bytes32",
          "name": "",
          "type": "bytes32"
        }
      ],
      "stateMutability": "view",
      "type": "function"
    },
    {
      "inputs": [],
      "name": "URI_SETTER_ROLE",
      "outputs": [
        {
          "internalType": "bytes32",
          "name": "",
          "type": "bytes32"
        }
      ],
      "stateMutability": "view",
      "type": "function"
    },
    {
      "inputs": [],
      "name": "VE_ASTEROIDS",
      "outputs": [
        {
          "internalType": "uint256",
          "name": "",
          "type": "uint256"
        }
      ],
      "stateMutability": "view",
      "type": "function"
    },
    {
      "inputs": [],
      "name": "WRAPPED_BURN_ROLE",
      "outputs": [
        {
          "internalType": "bytes32",
          "name": "",
          "type": "bytes32"
        }
      ],
      "stateMutability": "view",
      "type": "function"
    },
    {
      "inputs": [],
      "name": "WRAPPED_MINT_ROLE",
      "outputs": [
        {
          "internalType": "bytes32",
          "name": "",
          "type": "bytes32"
        }
      ],
      "stateMutability": "view",
      "type": "function"
    },
    {
      "inputs": [
        {
          "internalType": "address",
          "name": "account",
          "type": "address"
        },
        {
          "internalType": "uint256",
          "name": "id",
          "type": "uint256"
        }
      ],
      "name": "balanceOf",
      "outputs": [
        {
          "internalType": "uint256",
          "name": "",
          "type": "uint256"
        }
      ],
      "stateMutability": "view",
      "type": "function"
    },
    {
      "inputs": [
        {
          "internalType": "address[]",
          "name": "accounts",
          "type": "address[]"
        },
        {
          "internalType": "uint256[]",
          "name": "ids",
          "type": "uint256[]"
        }
      ],
      "name": "balanceOfBatch",
      "outputs": [
        {
          "internalType": "uint256[]",
          "name": "",
          "type": "uint256[]"
        }
      ],
      "stateMutability": "view",
      "type": "function"
    },
    {
      "inputs": [
        {
          "internalType": "address",
          "name": "from",
          "type": "address"
        },
        {
          "internalType": "uint256",
          "name": "id",
          "type": "uint256"
        },
        {
          "internalType": "uint256",
          "name": "amount",
          "type": "uint256"
        }
      ],
      "name": "burn",
      "outputs": [],
      "stateMutability": "nonpayable",
      "type": "function"
    },
    {
      "inputs": [
        {
          "internalType": "address",
          "name": "from",
          "type": "address"
        },
        {
          "internalType": "uint256[]",
          "name": "ids",
          "type": "uint256[]"
        },
        {
          "internalType": "uint256[]",
          "name": "amounts",
          "type": "uint256[]"
        }
      ],
      "name": "burnBatch",
      "outputs": [],
      "stateMutability": "nonpayable",
      "type": "function"
    },
    {
      "inputs": [
        {
          "internalType": "uint256",
          "name": "id",
          "type": "uint256"
        }
      ],
      "name": "canBeTransferred",
      "outputs": [
        {
          "internalType": "bool",
          "name": "",
          "type": "bool"
        }
      ],
      "stateMutability": "view",
      "type": "function"
    },
    {
      "inputs": [
        {
          "internalType": "uint256",
          "name": "id",
          "type": "uint256"
        }
      ],
      "name": "exists",
      "outputs": [
        {
          "internalType": "bool",
          "name": "",
          "type": "bool"
        }
      ],
      "stateMutability": "view",
      "type": "function"
    },
    {
      "inputs": [
        {
          "internalType": "bytes32",
          "name": "role",
          "type": "bytes32"
        }
      ],
      "name": "getRoleAdmin",
      "outputs": [
        {
          "internalType": "bytes32",
          "name": "",
          "type": "bytes32"
        }
      ],
      "stateMutability": "view",
      "type": "function"
    },
    {
      "inputs": [
        {
          "internalType": "bytes32[]",
          "name": "roles",
          "type": "bytes32[]"
        },
        {
          "internalType": "address[]",
          "name": "accounts",
          "type": "address[]"
        }
      ],
      "name": "grantMultiRole",
      "outputs": [],
      "stateMutability": "nonpayable",
      "type": "function"
    },
    {
      "inputs": [
        {
          "internalType": "bytes32",
          "name": "role",
          "type": "bytes32"
        },
        {
          "internalType": "address",
          "name": "account",
          "type": "address"
        }
      ],
      "name": "grantRole",
      "outputs": [],
      "stateMutability": "nonpayable",
      "type": "function"
    },
    {
      "inputs": [
        {
          "internalType": "bytes32",
          "name": "role",
          "type": "bytes32"
        },
        {
          "internalType": "address",
          "name": "account",
          "type": "address"
        }
      ],
      "name": "hasRole",
      "outputs": [
        {
          "internalType": "bool",
          "name": "",
          "type": "bool"
        }
      ],
      "stateMutability": "view",
      "type": "function"
    },
    {
      "inputs": [
        {
          "internalType": "address",
          "name": "account",
          "type": "address"
        },
        {
          "internalType": "address",
          "name": "operator",
          "type": "address"
        }
      ],
      "name": "isApprovedForAll",
      "outputs": [
        {
          "internalType": "bool",
          "name": "",
          "type": "bool"
        }
      ],
      "stateMutability": "view",
      "type": "function"
    },
    {
      "inputs": [
        {
          "internalType": "uint256",
          "name": "id",
          "type": "uint256"
        }
      ],
      "name": "lockTokenTransfer",
      "outputs": [],
      "stateMutability": "nonpayable",
      "type": "function"
    },
    {
      "inputs": [
        {
          "internalType": "address",
          "name": "to",
          "type": "address"
        },
        {
          "internalType": "uint256",
          "name": "id",
          "type": "uint256"
        },
        {
          "internalType": "uint256",
          "name": "amount",
          "type": "uint256"
        }
      ],
      "name": "mint",
      "outputs": [],
      "stateMutability": "nonpayable",
      "type": "function"
    },
    {
      "inputs": [
        {
          "internalType": "address",
          "name": "to",
          "type": "address"
        },
        {
          "internalType": "uint256[]",
          "name": "ids",
          "type": "uint256[]"
        },
        {
          "internalType": "uint256[]",
          "name": "amounts",
          "type": "uint256[]"
        }
      ],
      "name": "mintBatch",
      "outputs": [],
      "stateMutability": "nonpayable",
      "type": "function"
    },
    {
      "inputs": [],
      "name": "pause",
      "outputs": [],
      "stateMutability": "nonpayable",
      "type": "function"
    },
    {
      "inputs": [],
      "name": "paused",
      "outputs": [
        {
          "internalType": "bool",
          "name": "",
          "type": "bool"
        }
      ],
      "stateMutability": "view",
      "type": "function"
    },
    {
      "inputs": [
        {
          "internalType": "bytes32",
          "name": "role",
          "type": "bytes32"
        },
        {
          "internalType": "address",
          "name": "account",
          "type": "address"
        }
      ],
      "name": "renounceRole",
      "outputs": [],
      "stateMutability": "nonpayable",
      "type": "function"
    },
    {
      "inputs": [
        {
          "internalType": "bytes32[]",
          "name": "roles",
          "type": "bytes32[]"
        },
        {
          "internalType": "address[]",
          "name": "accounts",
          "type": "address[]"
        }
      ],
      "name": "revokeMultiRole",
      "outputs": [],
      "stateMutability": "nonpayable",
      "type": "function"
    },
    {
      "inputs": [
        {
          "internalType": "bytes32",
          "name": "role",
          "type": "bytes32"
        },
        {
          "internalType": "address",
          "name": "account",
          "type": "address"
        }
      ],
      "name": "revokeRole",
      "outputs": [],
      "stateMutability": "nonpayable",
      "type": "function"
    },
    {
      "inputs": [
        {
          "internalType": "address",
          "name": "from",
          "type": "address"
        },
        {
          "internalType": "address",
          "name": "to",
          "type": "address"
        },
        {
          "internalType": "uint256[]",
          "name": "ids",
          "type": "uint256[]"
        },
        {
          "internalType": "uint256[]",
          "name": "amounts",
          "type": "uint256[]"
        },
        {
          "internalType": "bytes",
          "name": "data",
          "type": "bytes"
        }
      ],
      "name": "safeBatchTransferFrom",
      "outputs": [],
      "stateMutability": "nonpayable",
      "type": "function"
    },
    {
      "inputs": [
        {
          "internalType": "address",
          "name": "from",
          "type": "address"
        },
        {
          "internalType": "address",
          "name": "to",
          "type": "address"
        },
        {
          "internalType": "uint256",
          "name": "id",
          "type": "uint256"
        },
        {
          "internalType": "uint256",
          "name": "amount",
          "type": "uint256"
        },
        {
          "internalType": "bytes",
          "name": "data",
          "type": "bytes"
        }
      ],
      "name": "safeTransferFrom",
      "outputs": [],
      "stateMutability": "nonpayable",
      "type": "function"
    },
    {
      "inputs": [
        {
          "internalType": "address",
          "name": "operator",
          "type": "address"
        },
        {
          "internalType": "bool",
          "name": "approved",
          "type": "bool"
        }
      ],
      "name": "setApprovalForAll",
      "outputs": [],
      "stateMutability": "nonpayable",
      "type": "function"
    },
    {
      "inputs": [
        {
          "internalType": "string",
          "name": "newUri",
          "type": "string"
        }
      ],
      "name": "setURI",
      "outputs": [],
      "stateMutability": "nonpayable",
      "type": "function"
    },
    {
      "inputs": [
        {
          "internalType": "bytes4",
          "name": "interfaceId",
          "type": "bytes4"
        }
      ],
      "name": "supportsInterface",
      "outputs": [
        {
          "internalType": "bool",
          "name": "",
          "type": "bool"
        }
      ],
      "stateMutability": "view",
      "type": "function"
    },
    {
      "inputs": [
        {
          "internalType": "uint256",
          "name": "id",
          "type": "uint256"
        }
      ],
      "name": "totalSupply",
      "outputs": [
        {
          "internalType": "uint256",
          "name": "",
          "type": "uint256"
        }
      ],
      "stateMutability": "view",
      "type": "function"
    },
    {
      "inputs": [
        {
          "internalType": "uint256",
          "name": "id",
          "type": "uint256"
        }
      ],
      "name": "unLockTokenTransfer",
      "outputs": [],
      "stateMutability": "nonpayable",
      "type": "function"
    },
    {
      "inputs": [],
      "name": "unpause",
      "outputs": [],
      "stateMutability": "nonpayable",
      "type": "function"
    },
    {
      "inputs": [
        {
          "internalType": "uint256",
          "name": "id",
          "type": "uint256"
        }
      ],
      "name": "uri",
      "outputs": [
        {
          "internalType": "string",
          "name": "",
          "type": "string"
        }
      ],
      "stateMutability": "view",
      "type": "function"
    }
  ],
  "bytecode": "0x60806040523480156200001157600080fd5b50d380156200001f57600080fd5b50d280156200002d57600080fd5b50604051620045a5380380620045a5833981016040819052620000509162000898565b6000805460ff19169055806200006681620000d6565b506200009533600169d3c21bcecceda100000060405180602001604052806000815250620000ef60201b60201c565b620000c233600268056bc75e2d6310000060405180602001604052806000815250620000ef60201b60201c565b620000cf60003362000224565b5062000b8a565b8051620000eb906005906020840190620007bf565b5050565b6001600160a01b038416620001555760405162461bcd60e51b815260206004820152602160248201527f455243313135353a206d696e7420746f20746865207a65726f206164647265736044820152607360f81b60648201526084015b60405180910390fd5b336000620001638562000230565b90506000620001728562000230565b905062000185836000898585896200027e565b60008681526002602090815260408083206001600160a01b038b16845290915281208054879290620001b9908490620009c4565b909155505060408051878152602081018790526001600160a01b03808a1692600092918716917fc3d58168c5ae7397731d063d5bbf3d657854427343f4c083240f7aacaa2d0f62910160405180910390a46200021b8360008989898962000552565b50505050505050565b620000eb82826200071b565b604080516001808252818301909252606091600091906020808301908036833701905050905082816000815181106200026d576200026d62000ab2565b602090810291909101015292915050565b60005460ff1615620002e85760405162461bcd60e51b815260206004820152602c60248201527f455243313135355061757361626c653a20746f6b656e207472616e736665722060448201526b1dda1a5b19481c185d5cd95960a21b60648201526084016200014c565b6001600160a01b038516158015906200030957506001600160a01b03841615155b15620003b75760005b8351811015620003b5576004600085838151811062000335576200033562000ab2565b60209081029190910181015182528101919091526040016000205460ff1615620003a25760405162461bcd60e51b815260206004820152601f60248201527f455243313135353a20746f6b656e206e6f74207472616e7366657261626c650060448201526064016200014c565b620003ad8162000a7e565b905062000312565b505b6001600160a01b0385166200044b5760005b83518110156200044957828181518110620003e857620003e862000ab2565b60200260200101516001600086848151811062000409576200040962000ab2565b602002602001015181526020019081526020016000206000828254620004309190620009c4565b909155506200044190508162000a7e565b9050620003c9565b505b6001600160a01b0384166200054a5760005b83518110156200021b5760008482815181106200047e576200047e62000ab2565b6020026020010151905060008483815181106200049f576200049f62000ab2565b6020026020010151905060006001600084815260200190815260200160002054905081811015620005245760405162461bcd60e51b815260206004820152602860248201527f455243313135353a206275726e20616d6f756e74206578636565647320746f74604482015267616c537570706c7960c01b60648201526084016200014c565b60009283526001602052604090922091039055620005428162000a7e565b90506200045d565b505050505050565b836001600160a01b0316d4156200054a5760405163f23a6e6160e01b81526001600160a01b0385169063f23a6e619062000599908990899088908890889060040162000968565b602060405180830381600087803b158015620005b457600080fd5b505af1925050508015620005e7575060408051601f3d908101601f19168201909252620005e49181019062000865565b60015b620006a857620005f662000ade565b806308c379a014156200063757506200060e62000afb565b806200061b575062000639565b8060405162461bcd60e51b81526004016200014c9190620009af565b505b60405162461bcd60e51b815260206004820152603460248201527f455243313135353a207472616e7366657220746f206e6f6e204552433131353560448201527f526563656976657220696d706c656d656e74657200000000000000000000000060648201526084016200014c565b6001600160e01b0319811663f23a6e6160e01b146200021b5760405162461bcd60e51b815260206004820152602860248201527f455243313135353a204552433131353552656365697665722072656a656374656044820152676420746f6b656e7360c01b60648201526084016200014c565b60008281526006602090815260408083206001600160a01b038516845290915290205460ff16620000eb5760008281526006602090815260408083206001600160a01b03851684529091529020805460ff191660011790556200077b3390565b6001600160a01b0316816001600160a01b0316837f2f8788117e7eff1d82e926ec794901d17c78024a50270940304540a733656f0d60405160405180910390a45050565b828054620007cd9062000a12565b90600052602060002090601f016020900481019282620007f157600085556200083c565b82601f106200080c57805160ff19168380011785556200083c565b828001600101855582156200083c579182015b828111156200083c5782518255916020019190600101906200081f565b506200084a9291506200084e565b5090565b5b808211156200084a57600081556001016200084f565b6000602082840312156200087857600080fd5b81516001600160e01b0319811681146200089157600080fd5b9392505050565b600060208284031215620008ab57600080fd5b81516001600160401b0380821115620008c357600080fd5b818401915084601f830112620008d857600080fd5b815181811115620008ed57620008ed62000ac8565b604051915062000908601f8201601f19166020018362000a4f565b8082528560208285010111156200091e57600080fd5b62000931816020840160208601620009df565b50949350505050565b6000815180845262000954816020860160208601620009df565b601f01601f19169290920160200192915050565b6001600160a01b03868116825285166020820152604081018490526060810183905260a060808201819052600090620009a4908301846200093a565b979650505050505050565b6020815260006200089160208301846200093a565b60008219821115620009da57620009da62000a9c565b500190565b60005b83811015620009fc578181015183820152602001620009e2565b8381111562000a0c576000848401525b50505050565b600181811c9082168062000a2757607f821691505b6020821081141562000a4957634e487b7160e01b600052602260045260246000fd5b50919050565b601f8201601f191681016001600160401b038111828210171562000a775762000a7762000ac8565b6040525050565b600060001982141562000a955762000a9562000a9c565b5060010190565b634e487b7160e01b600052601160045260246000fd5b634e487b7160e01b600052603260045260246000fd5b634e487b7160e01b600052604160045260246000fd5b600060033d111562000af85760046000803e5060005160e01c5b90565b600060443d101562000b0a5790565b6040516003193d81016004833e81513d6001600160401b03808311602484018310171562000b3a57505050505090565b828501915081518181111562000b535750505050505090565b843d870101602082850101111562000b6e5750505050505090565b62000b7f6020828601018762000a4f565b509095945050505050565b613a0b8062000b9a6000396000f3fe608060405234801561001057600080fd5b50d3801561001d57600080fd5b50d2801561002a57600080fd5b50600436106102ae5760003560e01c80637f34571011610181578063c68c44ff116100e8578063e622f4b1116100a1578063e622f4b1146106e9578063e9098d9c146106fc578063e985e9c514610723578063f242432a1461075f578063f4481de014610772578063f5298aca1461078557600080fd5b8063c68c44ff14610649578063c89999d014610651578063c971b18c14610675578063d547741f1461069c578063d81d0a15146106af578063e00b587a146106c257600080fd5b8063a22cb4651161013a578063a22cb4651461058e578063a8ee0628146105a1578063b517d1cc146105c8578063b5e6f555146105db578063bd85b03914610602578063c67824621461062257600080fd5b80637f345710146104f65780638456cb591461051d57806385d5084b146105255780638fa459e31461054c57806391d1485414610573578063a217fddf1461058657600080fd5b8063380b1d41116102255780634f558e79116101de5780634f558e791461046057806359590b32146104825780635c975abb146104a95780635cd56955146104b45780636712627d146104db5780636b20c454146104e357600080fd5b8063380b1d41146103cf578063391c3891146103f65780633c71cfa2146104095780633f4ba83a1461041157806347b291cd146104195780634e1273f41461044057600080fd5b8063156e29f611610277578063156e29f614610358578063248a9ca31461036b5780632eb2c2d61461038e5780632f2ff15d146103a157806331e61ea6146103b457806336568abe146103bc57600080fd5b8062fdd58e146102b357806301ffc9a7146102d957806302fe5305146102fc5780630e89341c14610311578063124130b714610331575b600080fd5b6102c66102c1366004612f34565b610798565b6040519081526020015b60405180910390f35b6102ec6102e7366004613108565b610830565b60405190151581526020016102d0565b61030f61030a366004613142565b610841565b005b61032461031f3660046130cc565b6108af565b6040516102d091906134d9565b6102c67fae196802966ddb0eed808e030e9905b906ad173665ebaa4ec3254544456d188e81565b61030f610366366004612f5e565b610950565b6102c66103793660046130cc565b60009081526006602052604090206001015490565b61030f61039c366004612d6b565b6109c0565b61030f6103af3660046130e5565b610a57565b6102c6600381565b61030f6103ca3660046130e5565b610ac0565b6102c67f77fe00f5aaa81d64d9f55d8616be0398bce160f21a075e1635f854dc0c69a57281565b61030f610404366004613061565b610b3e565b6102c6600481565b61030f610c52565b6102c67fcc0ccd8bd17a2b44b8083daff945bb3afbdb74c75c0d0ade0c1d73872f3da2b781565b61045361044e366004612f91565b610cb0565b6040516102d091906134a1565b6102ec61046e3660046130cc565b600090815260016020526040902054151590565b6102c67f5a858fceef8a0916707e3b8d20381bb4869a55f766ca6b98b79a65718c1af55c81565b60005460ff166102ec565b6102c67f7b4d2faaff6bdaace990e24462dcf2739c3533574e81f2cb36eeec6d9d91a63e81565b6102c6600281565b61030f6104f1366004612e78565b610dd9565b6102c67f7804d923f43a17d325d77e781528e0793b2edd9890ab45fc64efd7b4b427744c81565b61030f610e9f565b6102c67f2b4969f19539c2db676e85f97d2bd9db7c07cb467eb0cd96476827285a03148481565b6102c67f6a5cf4fbc764663782b6c69f42c0b62dfba03c7e30fcffbf9480a5d3db112ef581565b6102ec6105813660046130e5565b610efd565b6102c6600081565b61030f61059c366004612ef8565b610f28565b6102c67fc9753cc6a12b1d2aa87c7b66743185706ef6ec8328f4ea4f1bb99f0cac77045781565b61030f6105d63660046130cc565b610f33565b6102c67f570fae637af42631540d61792ad6c3a38622f6396680bd058c94992df958932e81565b6102c66106103660046130cc565b60009081526001602052604090205490565b6102c67fd1b4dc7e91c020dd9a22a12df8a310edc9b278f858f001ba89798b0309dc366681565b6102c6600181565b6102ec61065f3660046130cc565b60009081526004602052604090205460ff161590565b6102c67f72275d2d7cdf971af1091b6e0e4e2863c24b00b92a68a8e7184cc5d55ff619e281565b61030f6106aa3660046130e5565b610fa3565b61030f6106bd366004612e78565b611003565b6102c67f8a971267dda73f2bbe888f9ed240c21afb5a5980f7b1e92aeafaad3880dac52f81565b61030f6106f73660046130cc565b6110e1565b6102c67fd241016ee141eea33ebd00967f7f7843377cf319f71a1070675110119fb86c0181565b6102ec610731366004612d38565b6001600160a01b03918216600090815260036020908152604080832093909416825291909152205460ff1690565b61030f61076d366004612e14565b61114b565b61030f610780366004613061565b611190565b61030f610793366004612f5e565b611274565b60006001600160a01b0383166108085760405162461bcd60e51b815260206004820152602a60248201527f455243313135353a2061646472657373207a65726f206973206e6f742061207660448201526930b634b21037bbb732b960b11b60648201526084015b60405180910390fd5b5060009081526002602090815260408083206001600160a01b03949094168352929052205490565b600061083b82611301565b92915050565b7f7804d923f43a17d325d77e781528e0793b2edd9890ab45fc64efd7b4b427744c61086b81611326565b61087482611333565b7ff5812106a5117622bd79cfb5006bd04706a128a2c4830dd03e5f8a17b1eb7483826040516108a391906134d9565b60405180910390a15050565b60008181526001602052604090205460609061091e5760405162461bcd60e51b815260206004820152602860248201527f455243313135353a2055524920717565727920666f72206e6f6e657869737465604482015267373a103a37b5b2b760c11b60648201526084016107ff565b600561092983611346565b60405160200161093a92919061326f565b6040516020818303038152906040529050919050565b6109598261144b565b61097483838360405180602001604052806000815250611664565b60408051838152602081018390526001600160a01b0385169133917fdbba30eb0402b389513e87f51f4db2db80bed454384ec6925a24097c3548a02a91015b60405180910390a3505050565b6001600160a01b0385163314806109dc57506109dc8533610731565b610a435760405162461bcd60e51b815260206004820152603260248201527f455243313135353a207472616e736665722063616c6c6572206973206e6f74206044820152711bdddb995c881b9bdc88185c1c1c9bdd995960721b60648201526084016107ff565b610a50858585858561174f565b5050505050565b600082815260066020526040902060010154610a7281611326565b610a7c83836118fc565b6040516001600160a01b038316815283907f5a06360d65acf95e98445dc834f205063424c636e65418d928cdfabc33a95399906020015b60405180910390a2505050565b6001600160a01b0381163314610b305760405162461bcd60e51b815260206004820152602f60248201527f416363657373436f6e74726f6c3a2063616e206f6e6c792072656e6f756e636560448201526e103937b632b9903337b91039b2b63360891b60648201526084016107ff565b610b3a8282611982565b5050565b828114610b5d5760405162461bcd60e51b81526004016107ff906135c1565b60005b83811015610bfa57610ba2610b9c868684818110610b8057610b806138ee565b9050602002013560009081526006602052604090206001015490565b336119e9565b610bea858583818110610bb757610bb76138ee565b90506020020135848484818110610bd057610bd06138ee565b9050602002016020810190610be59190612d1d565b611982565b610bf381613893565b9050610b60565b508383604051610c0b929190613243565b60405180910390207fde14d5e6084c46f384087d8cb38584d2d8520dd6248e6e9c14f7cdf2c8246abf8383604051610c4492919061342e565b60405180910390a250505050565b7f2b4969f19539c2db676e85f97d2bd9db7c07cb467eb0cd96476827285a031484610c7c81611326565b610c84611a4d565b6040517f7805862f689e2f13df9f062ff482ad3ad112aca9e0847911ed832e158c525b3390600090a150565b60608151835114610d155760405162461bcd60e51b815260206004820152602960248201527f455243313135353a206163636f756e747320616e6420696473206c656e677468604482015268040dad2e6dac2e8c6d60bb1b60648201526084016107ff565b600083516001600160401b03811115610d3057610d30613904565b604051908082528060200260200182016040528015610d59578160200160208202803683370190505b50905060005b8451811015610dd157610da4858281518110610d7d57610d7d6138ee565b6020026020010151858381518110610d9757610d976138ee565b6020026020010151610798565b828281518110610db657610db66138ee565b6020908102919091010152610dca81613893565b9050610d5f565b509392505050565b610de38484611ae0565b610e518585858080602002602001604051908101604052809392919081815260200183836020028082843760009201919091525050604080516020808902828101820190935288825290935088925087918291850190849080828437600092019190915250611b2192505050565b846001600160a01b03167fc654fa60d2a625ee021b1ac30960810e81f72997250f9fe91c3c443690c47cdf85858585604051610e90949392919061347a565b60405180910390a25050505050565b7f5a858fceef8a0916707e3b8d20381bb4869a55f766ca6b98b79a65718c1af55c610ec981611326565b610ed1611cc2565b6040517f6985a02210a168e66602d3235cb6db0e70f92b3ba4d376a33c0f3d9434bff62590600090a150565b60009182526006602090815260408084206001600160a01b0393909316845291905290205460ff1690565b610b3a338383611d3d565b7fae196802966ddb0eed808e030e9905b906ad173665ebaa4ec3254544456d188e610f5d81611326565b6000828152600460205260409020805460ff191660011790556040517fb8c06629fdf17815efad9716161b539d85d816e669e6975f41df31006bd834c190600090a15050565b600082815260066020526040902060010154610fbe81611326565b610fc88383611982565b6040516001600160a01b038316815283907f76e6093c136cd7faa5a6d92b2b633f3b4595abd4a529b7a13917398355fea69490602001610ab3565b61100d8484611e16565b6110898585858080602002602001604051908101604052809392919081815260200183836020028082843760009201919091525050604080516020808902828101820190935288825290935088925087918291850190849080828437600092018290525060408051602081019091529081529250611e52915050565b846001600160a01b0316336001600160a01b03167fce8f0106078f9672a627da4c89d5493b0f7c05f59bcd228439a9698c00b1b5a7868686866040516110d2949392919061347a565b60405180910390a35050505050565b7fae196802966ddb0eed808e030e9905b906ad173665ebaa4ec3254544456d188e61110b81611326565b600082815260046020526040808220805460ff19169055517ff4d100eb5d3cef841f19482569859f9fd8276efe52b2f27bb9ff6737311e3b639190a15050565b6001600160a01b03851633148061116757506111678533610731565b6111835760405162461bcd60e51b81526004016107ff90613578565b610a508585858585611fad565b8281146111af5760405162461bcd60e51b81526004016107ff906135c1565b60005b8381101561122a576111d2610b9c868684818110610b8057610b806138ee565b61121a8585838181106111e7576111e76138ee565b90506020020135848484818110611200576112006138ee565b90506020020160208101906112159190612d1d565b6118fc565b61122381613893565b90506111b2565b50838360405161123b929190613243565b60405180910390207f75769898739b7fdc3a176bbde571a58229366802081bf5a21a9736473a17d95e8383604051610c4492919061342e565b6001600160a01b03831633148061129057506112908333610731565b6112ac5760405162461bcd60e51b81526004016107ff90613578565b6112b5826120e9565b6112c08383836122ea565b60408051838152602081018390526001600160a01b038516917f49995e5dd6158cf69ad3e9777c46755a1a826a446c6416992167462dad033b2a9101610ab3565b60006001600160e01b03198216637965db0b60e01b148061083b575061083b82612406565b61133081336119e9565b50565b8051610b3a906005906020840190612b1d565b60608161136a5750506040805180820190915260018152600360fc1b602082015290565b8160005b8115611394578061137e81613893565b915061138d9050600a8361379f565b915061136e565b6000816001600160401b038111156113ae576113ae613904565b6040519080825280601f01601f1916602001820160405280156113d8576020820181803683370190505b5090505b8415611443576113ed6001836137d2565b91506113fa600a866138ae565b611405906030613787565b60f81b81838151811061141a5761141a6138ee565b60200101906001600160f81b031916908160001a90535061143c600a8661379f565b94506113dc565b949350505050565b6040516f1352539517d493d31157d193d497d25160821b602082015260308101829052611492906050015b6040516020818303038152906040528051906020012033610efd565b1561149a5750565b60c781111580156114ac575060648110155b80156114dd57506114dd7f570fae637af42631540d61792ad6c3a38622f6396680bd058c94992df958932e33610efd565b156114e55750565b61270f81111580156114f957506103e88110155b801561152a575061152a7f8a971267dda73f2bbe888f9ed240c21afb5a5980f7b1e92aeafaad3880dac52f33610efd565b156115325750565b614e1f811115801561154657506127108110155b801561157757506115777fd241016ee141eea33ebd00967f7f7843377cf319f71a1070675110119fb86c0133610efd565b1561157f5750565b6201869f81111580156115945750614e208110155b80156115c557506115c57f77fe00f5aaa81d64d9f55d8616be0398bce160f21a075e1635f854dc0c69a57233610efd565b156115cd5750565b62030d3f81111580156115e35750620186a08110155b801561161457506116147f6a5cf4fbc764663782b6c69f42c0b62dfba03c7e30fcffbf9480a5d3db112ef533610efd565b1561161c5750565b60405162461bcd60e51b815260206004820181905260248201527f416363657373436f6e74726f6c3a206d697373696e67206d696e7420726f6c6560448201526064016107ff565b6001600160a01b03841661168a5760405162461bcd60e51b81526004016107ff90613723565b33600061169685612456565b905060006116a385612456565b90506116b4836000898585896124a1565b60008681526002602090815260408083206001600160a01b038b168452909152812080548792906116e6908490613787565b909155505060408051878152602081018790526001600160a01b03808a1692600092918716917fc3d58168c5ae7397731d063d5bbf3d657854427343f4c083240f7aacaa2d0f62910160405180910390a461174683600089898989612746565b50505050505050565b81518351146117705760405162461bcd60e51b81526004016107ff906136db565b6001600160a01b0384166117965760405162461bcd60e51b81526004016107ff90613609565b336117a58187878787876124a1565b60005b845181101561188e5760008582815181106117c5576117c56138ee565b6020026020010151905060008583815181106117e3576117e36138ee565b60209081029190910181015160008481526002835260408082206001600160a01b038e1683529093529190912054909150818110156118345760405162461bcd60e51b81526004016107ff90613691565b60008381526002602090815260408083206001600160a01b038e8116855292528083208585039055908b16825281208054849290611873908490613787565b925050819055505050508061188790613893565b90506117a8565b50846001600160a01b0316866001600160a01b0316826001600160a01b03167f4a39dc06d4c0dbc64b70af90fd698a233a518aa5d07e595d983b8c0526c8f7fb87876040516118de9291906134b4565b60405180910390a46118f48187878787876128b1565b505050505050565b6119068282610efd565b610b3a5760008281526006602090815260408083206001600160a01b03851684529091529020805460ff1916600117905561193e3390565b6001600160a01b0316816001600160a01b0316837f2f8788117e7eff1d82e926ec794901d17c78024a50270940304540a733656f0d60405160405180910390a45050565b61198c8282610efd565b15610b3a5760008281526006602090815260408083206001600160a01b0385168085529252808320805460ff1916905551339285917ff6391f5c32d9c69d2a47ea670b442974b53935d1edc7fd64eb21e047a839171b9190a45050565b6119f38282610efd565b610b3a57611a0b816001600160a01b0316601461297b565b611a1683602061297b565b604051602001611a27929190613316565b60408051601f198184030181529082905262461bcd60e51b82526107ff916004016134d9565b60005460ff16611a965760405162461bcd60e51b815260206004820152601460248201527314185d5cd8589b194e881b9bdd081c185d5cd95960621b60448201526064016107ff565b6000805460ff191690557f5db9ee0a495bf2e6ff9c91a7834c1ba4fdd244a5e8aa4e537bd38aeae4b073aa335b6040516001600160a01b03909116815260200160405180910390a1565b60005b81811015611b1c57611b0c838383818110611b0057611b006138ee565b905060200201356120e9565b611b1581613893565b9050611ae3565b505050565b6001600160a01b038316611b475760405162461bcd60e51b81526004016107ff9061364e565b8051825114611b685760405162461bcd60e51b81526004016107ff906136db565b6000339050611b8b818560008686604051806020016040528060008152506124a1565b60005b8351811015611c53576000848281518110611bab57611bab6138ee565b602002602001015190506000848381518110611bc957611bc96138ee565b60209081029190910181015160008481526002835260408082206001600160a01b038c168352909352919091205490915081811015611c1a5760405162461bcd60e51b81526004016107ff90613534565b60009283526002602090815260408085206001600160a01b038b1686529091529092209103905580611c4b81613893565b915050611b8e565b5060006001600160a01b0316846001600160a01b0316826001600160a01b03167f4a39dc06d4c0dbc64b70af90fd698a233a518aa5d07e595d983b8c0526c8f7fb8686604051611ca49291906134b4565b60405180910390a46040805160208101909152600090525b50505050565b60005460ff1615611d085760405162461bcd60e51b815260206004820152601060248201526f14185d5cd8589b194e881c185d5cd95960821b60448201526064016107ff565b6000805460ff191660011790557f62e78cea01bee320cd4e420270b5ea74000d11b0c9f74754ebdbfc544b05a258611ac33390565b816001600160a01b0316836001600160a01b03161415611db15760405162461bcd60e51b815260206004820152602960248201527f455243313135353a2073657474696e6720617070726f76616c20737461747573604482015268103337b91039b2b63360b91b60648201526084016107ff565b6001600160a01b03838116600081815260036020908152604080832094871680845294825291829020805460ff191686151590811790915591519182527f17307eab39ab6107e8899845ad3d59bd9653f200f220920489ca2b5937696c3191016109b3565b60005b81811015611b1c57611e42838383818110611e3657611e366138ee565b9050602002013561144b565b611e4b81613893565b9050611e19565b6001600160a01b038416611e785760405162461bcd60e51b81526004016107ff90613723565b8151835114611e995760405162461bcd60e51b81526004016107ff906136db565b33611ea9816000878787876124a1565b60005b8451811015611f4557838181518110611ec757611ec76138ee565b602002602001015160026000878481518110611ee557611ee56138ee565b602002602001015181526020019081526020016000206000886001600160a01b03166001600160a01b031681526020019081526020016000206000828254611f2d9190613787565b90915550819050611f3d81613893565b915050611eac565b50846001600160a01b031660006001600160a01b0316826001600160a01b03167f4a39dc06d4c0dbc64b70af90fd698a233a518aa5d07e595d983b8c0526c8f7fb8787604051611f969291906134b4565b60405180910390a4610a50816000878787876128b1565b6001600160a01b038416611fd35760405162461bcd60e51b81526004016107ff90613609565b336000611fdf85612456565b90506000611fec85612456565b9050611ffc8389898585896124a1565b60008681526002602090815260408083206001600160a01b038c1684529091529020548581101561203f5760405162461bcd60e51b81526004016107ff90613691565b60008781526002602090815260408083206001600160a01b038d8116855292528083208985039055908a1682528120805488929061207e908490613787565b909155505060408051888152602081018890526001600160a01b03808b16928c821692918816917fc3d58168c5ae7397731d063d5bbf3d657854427343f4c083240f7aacaa2d0f62910160405180910390a46120de848a8a8a8a8a612746565b505050505050505050565b6040516f1095549397d493d31157d193d497d25160821b60208201526030810182905261211890605001611476565b156121205750565b60c78111158015612132575060648110155b801561216357506121637fcc0ccd8bd17a2b44b8083daff945bb3afbdb74c75c0d0ade0c1d73872f3da2b733610efd565b1561216b5750565b61270f811115801561217f57506103e88110155b80156121b057506121b07fc9753cc6a12b1d2aa87c7b66743185706ef6ec8328f4ea4f1bb99f0cac77045733610efd565b156121b85750565b614e1f81111580156121cc57506127108110155b80156121fd57506121fd7f7b4d2faaff6bdaace990e24462dcf2739c3533574e81f2cb36eeec6d9d91a63e33610efd565b156122055750565b6201869f811115801561221a5750614e208110155b801561224b575061224b7fd1b4dc7e91c020dd9a22a12df8a310edc9b278f858f001ba89798b0309dc366633610efd565b156122535750565b62030d3f81111580156122695750620186a08110155b801561229a575061229a7f72275d2d7cdf971af1091b6e0e4e2863c24b00b92a68a8e7184cc5d55ff619e233610efd565b156122a25750565b60405162461bcd60e51b815260206004820181905260248201527f416363657373436f6e74726f6c3a206d697373696e67206275726e20726f6c6560448201526064016107ff565b6001600160a01b0383166123105760405162461bcd60e51b81526004016107ff9061364e565b33600061231c84612456565b9050600061232984612456565b9050612349838760008585604051806020016040528060008152506124a1565b60008581526002602090815260408083206001600160a01b038a1684529091529020548481101561238c5760405162461bcd60e51b81526004016107ff90613534565b60008681526002602090815260408083206001600160a01b038b81168086529184528285208a8703905582518b81529384018a90529092908816917fc3d58168c5ae7397731d063d5bbf3d657854427343f4c083240f7aacaa2d0f62910160405180910390a4604080516020810190915260009052611746565b60006001600160e01b03198216636cdb3d1360e11b148061243757506001600160e01b031982166303a24d0760e21b145b8061083b57506301ffc9a760e01b6001600160e01b031983161461083b565b60408051600180825281830190925260609160009190602080830190803683370190505090508281600081518110612490576124906138ee565b602090810291909101015292915050565b60005460ff16156125095760405162461bcd60e51b815260206004820152602c60248201527f455243313135355061757361626c653a20746f6b656e207472616e736665722060448201526b1dda1a5b19481c185d5cd95960a21b60648201526084016107ff565b6001600160a01b0385161580159061252957506001600160a01b03841615155b156125cd5760005b83518110156125cb5760046000858381518110612550576125506138ee565b60209081029190910181015182528101919091526040016000205460ff16156125bb5760405162461bcd60e51b815260206004820152601f60248201527f455243313135353a20746f6b656e206e6f74207472616e7366657261626c650060448201526064016107ff565b6125c481613893565b9050612531565b505b6001600160a01b0385166126545760005b8351811015612652578281815181106125f9576125f96138ee565b602002602001015160016000868481518110612617576126176138ee565b60200260200101518152602001908152602001600020600082825461263c9190613787565b9091555061264b905081613893565b90506125de565b505b6001600160a01b0384166118f45760005b8351811015611746576000848281518110612682576126826138ee565b6020026020010151905060008483815181106126a0576126a06138ee565b60200260200101519050600060016000848152602001908152602001600020549050818110156127235760405162461bcd60e51b815260206004820152602860248201527f455243313135353a206275726e20616d6f756e74206578636565647320746f74604482015267616c537570706c7960c01b60648201526084016107ff565b6000928352600160205260409092209103905561273f81613893565b9050612665565b836001600160a01b0316d4156118f45760405163f23a6e6160e01b81526001600160a01b0385169063f23a6e619061278a90899089908890889088906004016133e9565b602060405180830381600087803b1580156127a457600080fd5b505af19250505080156127d4575060408051601f3d908101601f191682019092526127d191810190613125565b60015b612881576127e061391a565b806308c379a0141561281a57506127f5613936565b80612800575061281c565b8060405162461bcd60e51b81526004016107ff91906134d9565b505b60405162461bcd60e51b815260206004820152603460248201527f455243313135353a207472616e7366657220746f206e6f6e20455243313135356044820152732932b1b2b4bb32b91034b6b83632b6b2b73a32b960611b60648201526084016107ff565b6001600160e01b0319811663f23a6e6160e01b146117465760405162461bcd60e51b81526004016107ff906134ec565b836001600160a01b0316d4156118f45760405163bc197c8160e01b81526001600160a01b0385169063bc197c81906128f5908990899088908890889060040161338b565b602060405180830381600087803b15801561290f57600080fd5b505af192505050801561293f575060408051601f3d908101601f1916820190925261293c91810190613125565b60015b61294b576127e061391a565b6001600160e01b0319811663bc197c8160e01b146117465760405162461bcd60e51b81526004016107ff906134ec565b6060600061298a8360026137b3565b612995906002613787565b6001600160401b038111156129ac576129ac613904565b6040519080825280601f01601f1916602001820160405280156129d6576020820181803683370190505b509050600360fc1b816000815181106129f1576129f16138ee565b60200101906001600160f81b031916908160001a905350600f60fb1b81600181518110612a2057612a206138ee565b60200101906001600160f81b031916908160001a9053506000612a448460026137b3565b612a4f906001613787565b90505b6001811115612ac7576f181899199a1a9b1b9c1cb0b131b232b360811b85600f1660108110612a8357612a836138ee565b1a60f81b828281518110612a9957612a996138ee565b60200101906001600160f81b031916908160001a90535060049490941c93612ac081613815565b9050612a52565b508315612b165760405162461bcd60e51b815260206004820181905260248201527f537472696e67733a20686578206c656e67746820696e73756666696369656e7460448201526064016107ff565b9392505050565b828054612b299061382c565b90600052602060002090601f016020900481019282612b4b5760008555612b91565b82601f10612b6457805160ff1916838001178555612b91565b82800160010185558215612b91579182015b82811115612b91578251825591602001919060010190612b76565b50612b9d929150612ba1565b5090565b5b80821115612b9d5760008155600101612ba2565b60006001600160401b03831115612bcf57612bcf613904565b604051612be6601f8501601f191660200182613867565b809150838152848484011115612bfb57600080fd5b83836020830137600060208583010152509392505050565b600081356001600160a81b0381168114612c2c57600080fd5b6001600160a01b031692915050565b60008083601f840112612c4d57600080fd5b5081356001600160401b03811115612c6457600080fd5b6020830191508360208260051b8501011115612c7f57600080fd5b9250929050565b600082601f830112612c9757600080fd5b81356020612ca482613764565b604051612cb18282613867565b8381528281019150858301600585901b87018401881015612cd157600080fd5b60005b85811015612cf057813584529284019290840190600101612cd4565b5090979650505050505050565b600082601f830112612d0e57600080fd5b612b1683833560208501612bb6565b600060208284031215612d2f57600080fd5b612b1682612c13565b60008060408385031215612d4b57600080fd5b612d5483612c13565b9150612d6260208401612c13565b90509250929050565b600080600080600060a08688031215612d8357600080fd5b612d8c86612c13565b9450612d9a60208701612c13565b935060408601356001600160401b0380821115612db657600080fd5b612dc289838a01612c86565b94506060880135915080821115612dd857600080fd5b612de489838a01612c86565b93506080880135915080821115612dfa57600080fd5b50612e0788828901612cfd565b9150509295509295909350565b600080600080600060a08688031215612e2c57600080fd5b612e3586612c13565b9450612e4360208701612c13565b9350604086013592506060860135915060808601356001600160401b03811115612e6c57600080fd5b612e0788828901612cfd565b600080600080600060608688031215612e9057600080fd5b612e9986612c13565b945060208601356001600160401b0380821115612eb557600080fd5b612ec189838a01612c3b565b90965094506040880135915080821115612eda57600080fd5b50612ee788828901612c3b565b969995985093965092949392505050565b60008060408385031215612f0b57600080fd5b612f1483612c13565b915060208301358015158114612f2957600080fd5b809150509250929050565b60008060408385031215612f4757600080fd5b612f5083612c13565b946020939093013593505050565b600080600060608486031215612f7357600080fd5b612f7c84612c13565b95602085013595506040909401359392505050565b60008060408385031215612fa457600080fd5b82356001600160401b0380821115612fbb57600080fd5b818501915085601f830112612fcf57600080fd5b81356020612fdc82613764565b604051612fe98282613867565b8381528281019150858301600585901b870184018b101561300957600080fd5b600096505b848710156130335761301f81612c13565b83526001969096019591830191830161300e565b509650508601359250508082111561304a57600080fd5b5061305785828601612c86565b9150509250929050565b6000806000806040858703121561307757600080fd5b84356001600160401b038082111561308e57600080fd5b61309a88838901612c3b565b909650945060208701359150808211156130b357600080fd5b506130c087828801612c3b565b95989497509550505050565b6000602082840312156130de57600080fd5b5035919050565b600080604083850312156130f857600080fd5b82359150612d6260208401612c13565b60006020828403121561311a57600080fd5b8135612b16816139bf565b60006020828403121561313757600080fd5b8151612b16816139bf565b60006020828403121561315457600080fd5b81356001600160401b0381111561316a57600080fd5b8201601f8101841361317b57600080fd5b61144384823560208401612bb6565b81835260006001600160fb1b038311156131a357600080fd5b8260051b8083602087013760009401602001938452509192915050565b600081518084526020808501945080840160005b838110156131f0578151875295820195908201906001016131d4565b509495945050505050565b600081518084526132138160208601602086016137e9565b601f01601f19169290920160200192915050565b600081516132398185602086016137e9565b9290920192915050565b60006001600160fb1b0383111561325957600080fd5b8260051b80858437600092019182525092915050565b600080845481600182811c91508083168061328b57607f831692505b60208084108214156132ab57634e487b7160e01b86526022600452602486fd5b8180156132bf57600181146132d0576132fd565b60ff198616895284890196506132fd565b60008b81526020902060005b868110156132f55781548b8201529085019083016132dc565b505084890196505b50505050505061330d8185613227565b95945050505050565b7f416363657373436f6e74726f6c3a206163636f756e742000000000000000000081526000835161334e8160178501602088016137e9565b7001034b99036b4b9b9b4b733903937b6329607d1b601791840191820152835161337f8160288401602088016137e9565b01602801949350505050565b6001600160a01b0386811682528516602082015260a0604082018190526000906133b7908301866131c0565b82810360608401526133c981866131c0565b905082810360808401526133dd81856131fb565b98975050505050505050565b6001600160a01b03868116825285166020820152604081018490526060810183905260a060808201819052600090613423908301846131fb565b979650505050505050565b60208082528181018390526000908460408401835b8681101561346f576001600160a01b0361345c84612c13565b1682529183019190830190600101613443565b509695505050505050565b60408152600061348e60408301868861318a565b828103602084015261342381858761318a565b602081526000612b1660208301846131c0565b6040815260006134c760408301856131c0565b828103602084015261330d81856131c0565b602081526000612b1660208301846131fb565b60208082526028908201527f455243313135353a204552433131353552656365697665722072656a656374656040820152676420746f6b656e7360c01b606082015260800190565b60208082526024908201527f455243313135353a206275726e20616d6f756e7420657863656564732062616c604082015263616e636560e01b606082015260800190565b60208082526029908201527f455243313135353a2063616c6c6572206973206e6f74206f776e6572206e6f7260408201526808185c1c1c9bdd995960ba1b606082015260800190565b60208082526028908201527f416363657373436f6e74726f6c3a206172726179206f6620646966666572656e6040820152670e840d8cadccee8d60c31b606082015260800190565b60208082526025908201527f455243313135353a207472616e7366657220746f20746865207a65726f206164604082015264647265737360d81b606082015260800190565b60208082526023908201527f455243313135353a206275726e2066726f6d20746865207a65726f206164647260408201526265737360e81b606082015260800190565b6020808252602a908201527f455243313135353a20696e73756666696369656e742062616c616e636520666f60408201526939103a3930b739b332b960b11b606082015260800190565b60208082526028908201527f455243313135353a2069647320616e6420616d6f756e7473206c656e677468206040820152670dad2e6dac2e8c6d60c31b606082015260800190565b60208082526021908201527f455243313135353a206d696e7420746f20746865207a65726f206164647265736040820152607360f81b606082015260800190565b60006001600160401b0382111561377d5761377d613904565b5060051b60200190565b6000821982111561379a5761379a6138c2565b500190565b6000826137ae576137ae6138d8565b500490565b60008160001904831182151516156137cd576137cd6138c2565b500290565b6000828210156137e4576137e46138c2565b500390565b60005b838110156138045781810151838201526020016137ec565b83811115611cbc5750506000910152565b600081613824576138246138c2565b506000190190565b600181811c9082168061384057607f821691505b6020821081141561386157634e487b7160e01b600052602260045260246000fd5b50919050565b601f8201601f191681016001600160401b038111828210171561388c5761388c613904565b6040525050565b60006000198214156138a7576138a76138c2565b5060010190565b6000826138bd576138bd6138d8565b500690565b634e487b7160e01b600052601160045260246000fd5b634e487b7160e01b600052601260045260246000fd5b634e487b7160e01b600052603260045260246000fd5b634e487b7160e01b600052604160045260246000fd5b600060033d11156139335760046000803e5060005160e01c5b90565b600060443d10156139445790565b6040516003193d81016004833e81513d6001600160401b03816024840111818411171561397357505050505090565b828501915081518181111561398b5750505050505090565b843d87010160208285010111156139a55750505050505090565b6139b460208286010187613867565b509095945050505050565b6001600160e01b03198116811461133057600080fdfea26474726f6e58221220072def91d9d4010030d09f4c7e65e72cd20b0795409bd08854dbc62f3e170eb264736f6c63430008060033",
  "source": "// SPDX-License-Identifier: unlicense\r\npragma solidity ^0.8.0;\r\n\r\nimport \"@openzeppelin/contracts/access/AccessControl.sol\";\r\nimport \"./ERC1155Custom.sol\";\r\n\r\n/**\r\n * @title Space Pirates Tokens Contract\r\n * @author @Gr3it, @yuripaoloni, @MatteoLeonesi\r\n * @notice Store all the tokens data and give to other contract permission to implements logic on top of the tokens\r\n */\r\n\r\ncontract SpacePiratesTokens is ERC1155Custom, AccessControl {\r\n    /**\r\n     * Tokens' Ids distribution\r\n     *       1 -      99 Projects tokens\r\n     *     100 -     199 Wrapped tokens\r\n     *   1 000 -   9 999 Items\r\n     *  10 000 -  19 999 Titles\r\n     *  20 000 -  99 999 Decorations\r\n     * 100 000 - 199 999 Battle Fields\r\n     */\r\n    uint256 public constant DOUBLOONS = 1;\r\n    uint256 public constant ASTEROIDS = 2;\r\n    uint256 public constant VE_ASTEROIDS = 3;\r\n    uint256 public constant STK_ASTEROIDS = 4;\r\n\r\n    // Minting role = keccak256(abi.encodePacked(\"MINT_ROLE_FOR_ID\",id));\r\n    // Burning role = keccak256(abi.encodePacked(\"BURN_ROLE_FOR_ID\",id));\r\n    bytes32 public constant WRAPPED_MINT_ROLE = keccak256(\"WRAPPED_MINT_ROLE\");\r\n    bytes32 public constant WRAPPED_BURN_ROLE = keccak256(\"WRAPPED_BURN_ROLE\");\r\n    bytes32 public constant ITEMS_MINT_ROLE = keccak256(\"ITEMS_MINT_ROLE\");\r\n    bytes32 public constant ITEMS_BURN_ROLE = keccak256(\"ITEMS_BURN_ROLE\");\r\n    bytes32 public constant TITLES_MINT_ROLE = keccak256(\"TITLES_MINT_ROLE\");\r\n    bytes32 public constant TITLES_BURN_ROLE = keccak256(\"TITLES_BURN_ROLE\");\r\n    bytes32 public constant DECORATIONS_MINT_ROLE =\r\n        keccak256(\"DECORATIONS_MINT_ROLE\");\r\n    bytes32 public constant DECORATIONS_BURN_ROLE =\r\n        keccak256(\"DECORATIONS_BURN_ROLE\");\r\n    bytes32 public constant BF_MINT_ROLE = keccak256(\"BF_MINT_ROLE\");\r\n    bytes32 public constant BF_BURN_ROLE = keccak256(\"BF_BURN_ROLE\");\r\n\r\n    bytes32 public constant URI_SETTER_ROLE = keccak256(\"URI_SETTER_ROLE\");\r\n    bytes32 public constant CAN_PAUSE_ROLE = keccak256(\"CAN_PAUSE_ROLE\");\r\n    bytes32 public constant CAN_UNPAUSE_ROLE = keccak256(\"CAN_UNPAUSE_ROLE\");\r\n    bytes32 public constant TRANSFERABLE_SETTER_ROLE =\r\n        keccak256(\"TRANSFERABLE_SETTER_ROLE\");\r\n\r\n    event Mint(\r\n        address indexed sender,\r\n        uint256 id,\r\n        uint256 amount,\r\n        address indexed to\r\n    );\r\n    event Burn(address indexed sender, uint256 id, uint256 amount);\r\n    event MintBatch(\r\n        address indexed sender,\r\n        uint256[] ids,\r\n        uint256[] amounts,\r\n        address indexed to\r\n    );\r\n    event BurnBatch(address indexed sender, uint256[] ids, uint256[] amounts);\r\n    event GrantRole(bytes32 indexed role, address account);\r\n    event RevokeRole(bytes32 indexed role, address account);\r\n    event GrantMultiRole(bytes32[] indexed roles, address[] accounts);\r\n    event RevokeMultiRole(bytes32[] indexed roles, address[] accounts);\r\n    event RenounceRole(bytes32 indexed role, address account);\r\n    event Pause();\r\n    event Unpause();\r\n    event LockTokenTransfer();\r\n    event UnLockTokenTransfer();\r\n    event UriUpdate(string newUri);\r\n\r\n    constructor(string memory uri) ERC1155Custom(uri) {\r\n        _mint(msg.sender, DOUBLOONS, 1_000_000 * (10**18), \"\");\r\n        _mint(msg.sender, ASTEROIDS, 100 * (10**18), \"\");\r\n\r\n        _setupRole(DEFAULT_ADMIN_ROLE, msg.sender);\r\n    }\r\n\r\n    function supportsInterface(bytes4 interfaceId)\r\n        public\r\n        view\r\n        virtual\r\n        override(ERC1155Custom, AccessControl)\r\n        returns (bool)\r\n    {\r\n        return super.supportsInterface(interfaceId);\r\n    }\r\n\r\n    function setURI(string memory newUri) public onlyRole(URI_SETTER_ROLE) {\r\n        _setURI(newUri);\r\n        emit UriUpdate(newUri);\r\n    }\r\n\r\n    function lockTokenTransfer(uint256 id)\r\n        public\r\n        onlyRole(TRANSFERABLE_SETTER_ROLE)\r\n    {\r\n        _setTrasferBlock(id, true);\r\n        emit LockTokenTransfer();\r\n    }\r\n\r\n    function unLockTokenTransfer(uint256 id)\r\n        public\r\n        onlyRole(TRANSFERABLE_SETTER_ROLE)\r\n    {\r\n        _setTrasferBlock(id, false);\r\n        emit UnLockTokenTransfer();\r\n    }\r\n\r\n    function pause() public onlyRole(CAN_PAUSE_ROLE) {\r\n        _pause();\r\n        emit Pause();\r\n    }\r\n\r\n    function unpause() public onlyRole(CAN_UNPAUSE_ROLE) {\r\n        _unpause();\r\n        emit Unpause();\r\n    }\r\n\r\n    function mint(\r\n        address to,\r\n        uint256 id,\r\n        uint256 amount\r\n    ) public {\r\n        _checkMintRole(id);\r\n        _mint(to, id, amount, \"\");\r\n        emit Mint(msg.sender, id, amount, to);\r\n    }\r\n\r\n    function burn(\r\n        address from,\r\n        uint256 id,\r\n        uint256 amount\r\n    ) public {\r\n        require(\r\n            from == _msgSender() || isApprovedForAll(from, _msgSender()),\r\n            \"ERC1155: caller is not owner nor approved\"\r\n        );\r\n        _checkBurnRole(id);\r\n        _burn(from, id, amount);\r\n        emit Burn(from, id, amount);\r\n    }\r\n\r\n    function mintBatch(\r\n        address to,\r\n        uint256[] calldata ids,\r\n        uint256[] calldata amounts\r\n    ) public {\r\n        _checkMintBatchRole(ids);\r\n        _mintBatch(to, ids, amounts, \"\");\r\n        emit MintBatch(msg.sender, ids, amounts, to);\r\n    }\r\n\r\n    function burnBatch(\r\n        address from,\r\n        uint256[] calldata ids,\r\n        uint256[] calldata amounts\r\n    ) public {\r\n        _checkBurnBatchRole(ids);\r\n        _burnBatch(from, ids, amounts);\r\n        emit BurnBatch(from, ids, amounts);\r\n    }\r\n\r\n    function grantRole(bytes32 role, address account)\r\n        public\r\n        override\r\n        onlyRole(getRoleAdmin(role))\r\n    {\r\n        _grantRole(role, account);\r\n        emit GrantRole(role, account);\r\n    }\r\n\r\n    function revokeRole(bytes32 role, address account)\r\n        public\r\n        override\r\n        onlyRole(getRoleAdmin(role))\r\n    {\r\n        _revokeRole(role, account);\r\n        emit RevokeRole(role, account);\r\n    }\r\n\r\n    function grantMultiRole(\r\n        bytes32[] calldata roles,\r\n        address[] calldata accounts\r\n    ) public {\r\n        require(\r\n            roles.length == accounts.length,\r\n            \"AccessControl: array of different length\"\r\n        );\r\n        for (uint256 i = 0; i < roles.length; ++i) {\r\n            _checkRole(getRoleAdmin(roles[i]), msg.sender);\r\n            _grantRole(roles[i], accounts[i]);\r\n        }\r\n        emit GrantMultiRole(roles, accounts);\r\n    }\r\n\r\n    function revokeMultiRole(\r\n        bytes32[] calldata roles,\r\n        address[] calldata accounts\r\n    ) public {\r\n        require(\r\n            roles.length == accounts.length,\r\n            \"AccessControl: array of different length\"\r\n        );\r\n        for (uint256 i = 0; i < roles.length; ++i) {\r\n            _checkRole(getRoleAdmin(roles[i]), msg.sender);\r\n            _revokeRole(roles[i], accounts[i]);\r\n        }\r\n        emit RevokeMultiRole(roles, accounts);\r\n    }\r\n\r\n    function _checkMintRole(uint256 id) internal view {\r\n        if (\r\n            hasRole(\r\n                keccak256(abi.encodePacked(\"MINT_ROLE_FOR_ID\", id)),\r\n                msg.sender\r\n            )\r\n        ) return;\r\n        if (id <= 199 && id >= 100 && hasRole(WRAPPED_MINT_ROLE, msg.sender))\r\n            return;\r\n        if (id <= 9_999 && id >= 1_000 && hasRole(ITEMS_MINT_ROLE, msg.sender))\r\n            return;\r\n        if (\r\n            id <= 19_999 &&\r\n            id >= 10_000 &&\r\n            hasRole(TITLES_MINT_ROLE, msg.sender)\r\n        ) return;\r\n        if (\r\n            id <= 99_999 &&\r\n            id >= 20_000 &&\r\n            hasRole(DECORATIONS_MINT_ROLE, msg.sender)\r\n        ) return;\r\n        if (id <= 199_999 && id >= 100_000 && hasRole(BF_MINT_ROLE, msg.sender))\r\n            return;\r\n        revert(\"AccessControl: missing mint role\");\r\n    }\r\n\r\n    function _checkBurnRole(uint256 id) internal view {\r\n        if (\r\n            hasRole(\r\n                keccak256(abi.encodePacked(\"BURN_ROLE_FOR_ID\", id)),\r\n                msg.sender\r\n            )\r\n        ) return;\r\n        if (id <= 199 && id >= 100 && hasRole(WRAPPED_BURN_ROLE, msg.sender))\r\n            return;\r\n        if (id <= 9_999 && id >= 1_000 && hasRole(ITEMS_BURN_ROLE, msg.sender))\r\n            return;\r\n        if (\r\n            id <= 19_999 &&\r\n            id >= 10_000 &&\r\n            hasRole(TITLES_BURN_ROLE, msg.sender)\r\n        ) return;\r\n        if (\r\n            id <= 99_999 &&\r\n            id >= 20_000 &&\r\n            hasRole(DECORATIONS_BURN_ROLE, msg.sender)\r\n        ) return;\r\n        if (id <= 199_999 && id >= 100_000 && hasRole(BF_BURN_ROLE, msg.sender))\r\n            return;\r\n        revert(\"AccessControl: missing burn role\");\r\n    }\r\n\r\n    function _checkMintBatchRole(uint256[] calldata ids) internal view {\r\n        for (uint256 i = 0; i < ids.length; ++i) {\r\n            _checkMintRole(ids[i]);\r\n        }\r\n    }\r\n\r\n    function _checkBurnBatchRole(uint256[] calldata ids) internal view {\r\n        for (uint256 i = 0; i < ids.length; ++i) {\r\n            _checkBurnRole(ids[i]);\r\n        }\r\n    }\r\n}\r\n",
  "sourcePath": "C:/Users/emanu/space-pirates-contracts/contracts/SpacePiratesTokens.sol",
  "compiler": {
    "name": "solc",
    "version": "0.8.6+commit.0e36fba0.mod.Emscripten.clang"
  },
  "schemaVersion": "2.0.1",
  "updatedAt": "2022-07-23T23:58:53.757Z"
}