{
  "contractName": "SpacePiratesRouter",
  "abi": [
    {
      "inputs": [
        {
          "internalType": "address",
          "name": "_factory",
          "type": "address"
        },
        {
          "internalType": "address",
          "name": "_tokenContract",
          "type": "address"
        },
        {
          "internalType": "contract ISpacePiratesWrapper",
          "name": "_wrapper",
          "type": "address"
        }
      ],
      "stateMutability": "nonpayable",
      "type": "constructor"
    },
    {
      "inputs": [],
      "name": "SPACE_ETH_ID",
      "outputs": [
        {
          "internalType": "uint256",
          "name": "",
          "type": "uint256"
        }
      ],
      "stateMutability": "view",
      "type": "function"
    },
    {
      "inputs": [
        {
          "internalType": "uint256",
          "name": "tokenA",
          "type": "uint256"
        },
        {
          "internalType": "uint256",
          "name": "tokenB",
          "type": "uint256"
        },
        {
          "internalType": "uint256",
          "name": "amountADesired",
          "type": "uint256"
        },
        {
          "internalType": "uint256",
          "name": "amountBDesired",
          "type": "uint256"
        },
        {
          "internalType": "uint256",
          "name": "amountAMin",
          "type": "uint256"
        },
        {
          "internalType": "uint256",
          "name": "amountBMin",
          "type": "uint256"
        },
        {
          "internalType": "address",
          "name": "to",
          "type": "address"
        },
        {
          "internalType": "uint256",
          "name": "deadline",
          "type": "uint256"
        }
      ],
      "name": "addLiquidity",
      "outputs": [
        {
          "internalType": "uint256",
          "name": "amountA",
          "type": "uint256"
        },
        {
          "internalType": "uint256",
          "name": "amountB",
          "type": "uint256"
        },
        {
          "internalType": "uint256",
          "name": "liquidity",
          "type": "uint256"
        }
      ],
      "stateMutability": "nonpayable",
      "type": "function"
    },
    {
      "inputs": [
        {
          "internalType": "address",
          "name": "erc20Contract",
          "type": "address"
        },
        {
          "internalType": "uint256",
          "name": "token",
          "type": "uint256"
        },
        {
          "internalType": "uint256",
          "name": "amountTokenDesired",
          "type": "uint256"
        },
        {
          "internalType": "uint256",
          "name": "amountERC20Desired",
          "type": "uint256"
        },
        {
          "internalType": "uint256",
          "name": "amountTokenMin",
          "type": "uint256"
        },
        {
          "internalType": "uint256",
          "name": "amountERC20Min",
          "type": "uint256"
        },
        {
          "internalType": "address",
          "name": "to",
          "type": "address"
        },
        {
          "internalType": "uint256",
          "name": "deadline",
          "type": "uint256"
        }
      ],
      "name": "addLiquidityERC20",
      "outputs": [
        {
          "internalType": "uint256",
          "name": "amountToken",
          "type": "uint256"
        },
        {
          "internalType": "uint256",
          "name": "amountERC20",
          "type": "uint256"
        },
        {
          "internalType": "uint256",
          "name": "liquidityAndId",
          "type": "uint256"
        }
      ],
      "stateMutability": "nonpayable",
      "type": "function"
    },
    {
      "inputs": [
        {
          "internalType": "uint256",
          "name": "token",
          "type": "uint256"
        },
        {
          "internalType": "uint256",
          "name": "amountTokenDesired",
          "type": "uint256"
        },
        {
          "internalType": "uint256",
          "name": "amountTokenMin",
          "type": "uint256"
        },
        {
          "internalType": "uint256",
          "name": "amountETHMin",
          "type": "uint256"
        },
        {
          "internalType": "address",
          "name": "to",
          "type": "address"
        },
        {
          "internalType": "uint256",
          "name": "deadline",
          "type": "uint256"
        }
      ],
      "name": "addLiquidityETH",
      "outputs": [
        {
          "internalType": "uint256",
          "name": "amountToken",
          "type": "uint256"
        },
        {
          "internalType": "uint256",
          "name": "amountETH",
          "type": "uint256"
        },
        {
          "internalType": "uint256",
          "name": "liquidity",
          "type": "uint256"
        }
      ],
      "stateMutability": "payable",
      "type": "function"
    },
    {
      "inputs": [],
      "name": "factory",
      "outputs": [
        {
          "internalType": "address",
          "name": "",
          "type": "address"
        }
      ],
      "stateMutability": "view",
      "type": "function"
    },
    {
      "inputs": [
        {
          "internalType": "uint256",
          "name": "amountOut",
          "type": "uint256"
        },
        {
          "internalType": "uint256",
          "name": "reserveIn",
          "type": "uint256"
        },
        {
          "internalType": "uint256",
          "name": "reserveOut",
          "type": "uint256"
        }
      ],
      "name": "getAmountIn",
      "outputs": [
        {
          "internalType": "uint256",
          "name": "amountIn",
          "type": "uint256"
        }
      ],
      "stateMutability": "pure",
      "type": "function"
    },
    {
      "inputs": [
        {
          "internalType": "uint256",
          "name": "amountIn",
          "type": "uint256"
        },
        {
          "internalType": "uint256",
          "name": "reserveIn",
          "type": "uint256"
        },
        {
          "internalType": "uint256",
          "name": "reserveOut",
          "type": "uint256"
        }
      ],
      "name": "getAmountOut",
      "outputs": [
        {
          "internalType": "uint256",
          "name": "amountOut",
          "type": "uint256"
        }
      ],
      "stateMutability": "pure",
      "type": "function"
    },
    {
      "inputs": [
        {
          "internalType": "uint256",
          "name": "amountOut",
          "type": "uint256"
        },
        {
          "internalType": "uint256[]",
          "name": "path",
          "type": "uint256[]"
        }
      ],
      "name": "getAmountsIn",
      "outputs": [
        {
          "internalType": "uint256[]",
          "name": "amounts",
          "type": "uint256[]"
        }
      ],
      "stateMutability": "view",
      "type": "function"
    },
    {
      "inputs": [
        {
          "internalType": "uint256",
          "name": "amountIn",
          "type": "uint256"
        },
        {
          "internalType": "uint256[]",
          "name": "path",
          "type": "uint256[]"
        }
      ],
      "name": "getAmountsOut",
      "outputs": [
        {
          "internalType": "uint256[]",
          "name": "amounts",
          "type": "uint256[]"
        }
      ],
      "stateMutability": "view",
      "type": "function"
    },
    {
      "inputs": [
        {
          "internalType": "address",
          "name": "",
          "type": "address"
        },
        {
          "internalType": "address",
          "name": "",
          "type": "address"
        },
        {
          "internalType": "uint256[]",
          "name": "",
          "type": "uint256[]"
        },
        {
          "internalType": "uint256[]",
          "name": "",
          "type": "uint256[]"
        },
        {
          "internalType": "bytes",
          "name": "",
          "type": "bytes"
        }
      ],
      "name": "onERC1155BatchReceived",
      "outputs": [
        {
          "internalType": "bytes4",
          "name": "",
          "type": "bytes4"
        }
      ],
      "stateMutability": "nonpayable",
      "type": "function"
    },
    {
      "inputs": [
        {
          "internalType": "address",
          "name": "",
          "type": "address"
        },
        {
          "internalType": "address",
          "name": "",
          "type": "address"
        },
        {
          "internalType": "uint256",
          "name": "",
          "type": "uint256"
        },
        {
          "internalType": "uint256",
          "name": "",
          "type": "uint256"
        },
        {
          "internalType": "bytes",
          "name": "",
          "type": "bytes"
        }
      ],
      "name": "onERC1155Received",
      "outputs": [
        {
          "internalType": "bytes4",
          "name": "",
          "type": "bytes4"
        }
      ],
      "stateMutability": "nonpayable",
      "type": "function"
    },
    {
      "inputs": [
        {
          "internalType": "uint256",
          "name": "amountA",
          "type": "uint256"
        },
        {
          "internalType": "uint256",
          "name": "reserveA",
          "type": "uint256"
        },
        {
          "internalType": "uint256",
          "name": "reserveB",
          "type": "uint256"
        }
      ],
      "name": "quote",
      "outputs": [
        {
          "internalType": "uint256",
          "name": "amountB",
          "type": "uint256"
        }
      ],
      "stateMutability": "pure",
      "type": "function"
    },
    {
      "inputs": [
        {
          "internalType": "uint256",
          "name": "tokenA",
          "type": "uint256"
        },
        {
          "internalType": "uint256",
          "name": "tokenB",
          "type": "uint256"
        },
        {
          "internalType": "uint256",
          "name": "liquidity",
          "type": "uint256"
        },
        {
          "internalType": "uint256",
          "name": "amountAMin",
          "type": "uint256"
        },
        {
          "internalType": "uint256",
          "name": "amountBMin",
          "type": "uint256"
        },
        {
          "internalType": "address",
          "name": "to",
          "type": "address"
        },
        {
          "internalType": "uint256",
          "name": "deadline",
          "type": "uint256"
        }
      ],
      "name": "removeLiquidity",
      "outputs": [
        {
          "internalType": "uint256",
          "name": "amountA",
          "type": "uint256"
        },
        {
          "internalType": "uint256",
          "name": "amountB",
          "type": "uint256"
        }
      ],
      "stateMutability": "nonpayable",
      "type": "function"
    },
    {
      "inputs": [
        {
          "internalType": "address",
          "name": "erc20Contract",
          "type": "address"
        },
        {
          "internalType": "uint256",
          "name": "token",
          "type": "uint256"
        },
        {
          "internalType": "uint256",
          "name": "liquidity",
          "type": "uint256"
        },
        {
          "internalType": "uint256",
          "name": "amountTokenMin",
          "type": "uint256"
        },
        {
          "internalType": "uint256",
          "name": "amountERC20Min",
          "type": "uint256"
        },
        {
          "internalType": "address",
          "name": "to",
          "type": "address"
        },
        {
          "internalType": "uint256",
          "name": "deadline",
          "type": "uint256"
        }
      ],
      "name": "removeLiquidityERC20",
      "outputs": [
        {
          "internalType": "uint256",
          "name": "amountToken",
          "type": "uint256"
        },
        {
          "internalType": "uint256",
          "name": "amountERC20",
          "type": "uint256"
        }
      ],
      "stateMutability": "nonpayable",
      "type": "function"
    },
    {
      "inputs": [
        {
          "internalType": "uint256",
          "name": "token",
          "type": "uint256"
        },
        {
          "internalType": "uint256",
          "name": "liquidity",
          "type": "uint256"
        },
        {
          "internalType": "uint256",
          "name": "amountTokenMin",
          "type": "uint256"
        },
        {
          "internalType": "uint256",
          "name": "amountETHMin",
          "type": "uint256"
        },
        {
          "internalType": "address",
          "name": "to",
          "type": "address"
        },
        {
          "internalType": "uint256",
          "name": "deadline",
          "type": "uint256"
        }
      ],
      "name": "removeLiquidityETH",
      "outputs": [
        {
          "internalType": "uint256",
          "name": "amountToken",
          "type": "uint256"
        },
        {
          "internalType": "uint256",
          "name": "amountETH",
          "type": "uint256"
        }
      ],
      "stateMutability": "nonpayable",
      "type": "function"
    },
    {
      "inputs": [
        {
          "internalType": "bytes4",
          "name": "interfaceId",
          "type": "bytes4"
        }
      ],
      "name": "supportsInterface",
      "outputs": [
        {
          "internalType": "bool",
          "name": "",
          "type": "bool"
        }
      ],
      "stateMutability": "view",
      "type": "function"
    },
    {
      "inputs": [
        {
          "internalType": "address",
          "name": "erc20Contract",
          "type": "address"
        },
        {
          "internalType": "uint256",
          "name": "amountIn",
          "type": "uint256"
        },
        {
          "internalType": "uint256",
          "name": "amountOut",
          "type": "uint256"
        },
        {
          "internalType": "uint256[]",
          "name": "path",
          "type": "uint256[]"
        },
        {
          "internalType": "address",
          "name": "to",
          "type": "address"
        },
        {
          "internalType": "uint256",
          "name": "deadline",
          "type": "uint256"
        }
      ],
      "name": "swapERC20ForExactTokens",
      "outputs": [
        {
          "internalType": "uint256[]",
          "name": "amounts",
          "type": "uint256[]"
        }
      ],
      "stateMutability": "nonpayable",
      "type": "function"
    },
    {
      "inputs": [
        {
          "internalType": "uint256",
          "name": "amountOut",
          "type": "uint256"
        },
        {
          "internalType": "uint256[]",
          "name": "path",
          "type": "uint256[]"
        },
        {
          "internalType": "address",
          "name": "to",
          "type": "address"
        },
        {
          "internalType": "uint256",
          "name": "deadline",
          "type": "uint256"
        }
      ],
      "name": "swapETHForExactTokens",
      "outputs": [
        {
          "internalType": "uint256[]",
          "name": "amounts",
          "type": "uint256[]"
        }
      ],
      "stateMutability": "payable",
      "type": "function"
    },
    {
      "inputs": [
        {
          "internalType": "address",
          "name": "erc20Contract",
          "type": "address"
        },
        {
          "internalType": "uint256",
          "name": "amountIn",
          "type": "uint256"
        },
        {
          "internalType": "uint256",
          "name": "amountOutMin",
          "type": "uint256"
        },
        {
          "internalType": "uint256[]",
          "name": "path",
          "type": "uint256[]"
        },
        {
          "internalType": "address",
          "name": "to",
          "type": "address"
        },
        {
          "internalType": "uint256",
          "name": "deadline",
          "type": "uint256"
        }
      ],
      "name": "swapExactERC20ForTokens",
      "outputs": [
        {
          "internalType": "uint256[]",
          "name": "amounts",
          "type": "uint256[]"
        }
      ],
      "stateMutability": "nonpayable",
      "type": "function"
    },
    {
      "inputs": [
        {
          "internalType": "uint256",
          "name": "amountOutMin",
          "type": "uint256"
        },
        {
          "internalType": "uint256[]",
          "name": "path",
          "type": "uint256[]"
        },
        {
          "internalType": "address",
          "name": "to",
          "type": "address"
        },
        {
          "internalType": "uint256",
          "name": "deadline",
          "type": "uint256"
        }
      ],
      "name": "swapExactETHForTokens",
      "outputs": [
        {
          "internalType": "uint256[]",
          "name": "amounts",
          "type": "uint256[]"
        }
      ],
      "stateMutability": "payable",
      "type": "function"
    },
    {
      "inputs": [
        {
          "internalType": "address",
          "name": "erc20Contract",
          "type": "address"
        },
        {
          "internalType": "uint256",
          "name": "amountIn",
          "type": "uint256"
        },
        {
          "internalType": "uint256",
          "name": "amountOutMin",
          "type": "uint256"
        },
        {
          "internalType": "uint256[]",
          "name": "path",
          "type": "uint256[]"
        },
        {
          "internalType": "address",
          "name": "to",
          "type": "address"
        },
        {
          "internalType": "uint256",
          "name": "deadline",
          "type": "uint256"
        }
      ],
      "name": "swapExactTokensForERC20",
      "outputs": [
        {
          "internalType": "uint256[]",
          "name": "amounts",
          "type": "uint256[]"
        }
      ],
      "stateMutability": "nonpayable",
      "type": "function"
    },
    {
      "inputs": [
        {
          "internalType": "uint256",
          "name": "amountIn",
          "type": "uint256"
        },
        {
          "internalType": "uint256",
          "name": "amountOutMin",
          "type": "uint256"
        },
        {
          "internalType": "uint256[]",
          "name": "path",
          "type": "uint256[]"
        },
        {
          "internalType": "address",
          "name": "to",
          "type": "address"
        },
        {
          "internalType": "uint256",
          "name": "deadline",
          "type": "uint256"
        }
      ],
      "name": "swapExactTokensForETH",
      "outputs": [
        {
          "internalType": "uint256[]",
          "name": "amounts",
          "type": "uint256[]"
        }
      ],
      "stateMutability": "nonpayable",
      "type": "function"
    },
    {
      "inputs": [
        {
          "internalType": "uint256",
          "name": "amountIn",
          "type": "uint256"
        },
        {
          "internalType": "uint256",
          "name": "amountOutMin",
          "type": "uint256"
        },
        {
          "internalType": "uint256[]",
          "name": "path",
          "type": "uint256[]"
        },
        {
          "internalType": "address",
          "name": "to",
          "type": "address"
        },
        {
          "internalType": "uint256",
          "name": "deadline",
          "type": "uint256"
        }
      ],
      "name": "swapExactTokensForTokens",
      "outputs": [
        {
          "internalType": "uint256[]",
          "name": "amounts",
          "type": "uint256[]"
        }
      ],
      "stateMutability": "nonpayable",
      "type": "function"
    },
    {
      "inputs": [
        {
          "internalType": "address",
          "name": "erc20Contract",
          "type": "address"
        },
        {
          "internalType": "uint256",
          "name": "amountOut",
          "type": "uint256"
        },
        {
          "internalType": "uint256",
          "name": "amountInMax",
          "type": "uint256"
        },
        {
          "internalType": "uint256[]",
          "name": "path",
          "type": "uint256[]"
        },
        {
          "internalType": "address",
          "name": "to",
          "type": "address"
        },
        {
          "internalType": "uint256",
          "name": "deadline",
          "type": "uint256"
        }
      ],
      "name": "swapTokensForExactERC20",
      "outputs": [
        {
          "internalType": "uint256[]",
          "name": "amounts",
          "type": "uint256[]"
        }
      ],
      "stateMutability": "nonpayable",
      "type": "function"
    },
    {
      "inputs": [
        {
          "internalType": "uint256",
          "name": "amountOut",
          "type": "uint256"
        },
        {
          "internalType": "uint256",
          "name": "amountInMax",
          "type": "uint256"
        },
        {
          "internalType": "uint256[]",
          "name": "path",
          "type": "uint256[]"
        },
        {
          "internalType": "address",
          "name": "to",
          "type": "address"
        },
        {
          "internalType": "uint256",
          "name": "deadline",
          "type": "uint256"
        }
      ],
      "name": "swapTokensForExactETH",
      "outputs": [
        {
          "internalType": "uint256[]",
          "name": "amounts",
          "type": "uint256[]"
        }
      ],
      "stateMutability": "nonpayable",
      "type": "function"
    },
    {
      "inputs": [
        {
          "internalType": "uint256",
          "name": "amountOut",
          "type": "uint256"
        },
        {
          "internalType": "uint256",
          "name": "amountInMax",
          "type": "uint256"
        },
        {
          "internalType": "uint256[]",
          "name": "path",
          "type": "uint256[]"
        },
        {
          "internalType": "address",
          "name": "to",
          "type": "address"
        },
        {
          "internalType": "uint256",
          "name": "deadline",
          "type": "uint256"
        }
      ],
      "name": "swapTokensForExactTokens",
      "outputs": [
        {
          "internalType": "uint256[]",
          "name": "amounts",
          "type": "uint256[]"
        }
      ],
      "stateMutability": "nonpayable",
      "type": "function"
    },
    {
      "inputs": [],
      "name": "tokenContract",
      "outputs": [
        {
          "internalType": "address",
          "name": "",
          "type": "address"
        }
      ],
      "stateMutability": "view",
      "type": "function"
    },
    {
      "inputs": [],
      "name": "wrapper",
      "outputs": [
        {
          "internalType": "contract ISpacePiratesWrapper",
          "name": "",
          "type": "address"
        }
      ],
      "stateMutability": "view",
      "type": "function"
    },
    {
      "stateMutability": "payable",
      "type": "receive"
    }
  ],
  "bytecode": "0x60c06040523480156200001157600080fd5b50d380156200001f57600080fd5b50d280156200002d57600080fd5b50604051620044953803806200449583398101604081905262000050916200008e565b6001600160601b0319606084811b821660a05282901b16608052600080546001600160a01b0319166001600160a01b0384161790555050506200010b565b600080600060608486031215620000a457600080fd5b8351620000b181620000f2565b60208501516001600160a01b03918216945090620000cf82620000f2565b60408601519181169350620000e482620000f2565b808216925050509250925092565b6001600160a81b03811681146200010857600080fd5b50565b60805160601c60a05160601c6142386200025d6000396000818161077f0152818161096701528181610a2401528181610d0c01528181610dc90152818161108e0152818161117301528181611390015281816114a50152818161175d015281816117f90152818161184a01528181611af301528181611bbc01528181611c6d01528181611dcf01528181611ebf0152818161200a015281816120e00152818161253201528181612616015281816127e3015281816128c401528181612cf101528181612d410152818161306c01526131450152600081816101cb0152818161061c01528181610b4201528181610c4801528181610edb01528181610fd3015281816111250152818161131f0152818161140f015281816115460152818161169901528181611a3801528181611e720152818161219d015281816123480152818161245601526125c901526142386000f3fe6080604052600436106101bb5760003560e01c8063a70e8bad116100ec578063bfe9b3e11161008a578063e4bbe7f311610064578063e4bbe7f3146107db578063ee462591146107ee578063f23a6e6114610828578063ff4bd7611461086e57600080fd5b8063bfe9b3e114610724578063c45a015514610753578063c9af31e6146107a157600080fd5b8063ad615dec116100c6578063ad615dec1461063e578063b11d67de14610678578063bc197c81146106b2578063be5744841461071157600080fd5b8063a70e8bad146105a3578063aaa60a64146105dd578063ac210cc7146105f057600080fd5b806355a373d6116101595780639d8fcd7e116101335780639d8fcd7e146104bb5780639f9890bc146104f5578063a58e16d01461052f578063a61628c31461056957600080fd5b806355a373d6146103da57806385f8c2591461042c57806397ca4a361461046657600080fd5b806318e040241161019557806318e04024146102dd578063419c5d21146103175780634ae582a2146103515780635342b023146103a057600080fd5b806301ffc9a7146101ff578063054d50d41461024e57806310f5bf6c1461029657600080fd5b366101fa57336001600160a01b037f000000000000000000000000000000000000000000000000000000000000000016146101f8576101f8614172565b005b600080fd5b34801561020b57600080fd5b50d3801561021857600080fd5b50d2801561022557600080fd5b50610239610234366004613953565b6108a8565b60405190151581526020015b60405180910390f35b34801561025a57600080fd5b50d3801561026757600080fd5b50d2801561027457600080fd5b50610288610283366004613b40565b6108df565b604051908152602001610245565b3480156102a257600080fd5b50d380156102af57600080fd5b50d280156102bc57600080fd5b506102d06102cb366004613ac4565b6108f4565b6040516102459190613db3565b3480156102e957600080fd5b50d380156102f657600080fd5b50d2801561030357600080fd5b506102d06103123660046137a1565b610c03565b34801561032357600080fd5b50d3801561033057600080fd5b50d2801561033d57600080fd5b506102d061034c3660046137a1565b610f8e565b34801561035d57600080fd5b50d3801561036a57600080fd5b50d2801561037757600080fd5b5061038b610386366004613b6c565b61125b565b60408051928352602083019190915201610245565b3480156103ac57600080fd5b50d380156103b957600080fd5b50d280156103c657600080fd5b506102d06103d5366004613a59565b611389565b3480156103e657600080fd5b50d380156103f357600080fd5b50d2801561040057600080fd5b50600054610414906001600160a01b031681565b6040516001600160a01b039091168152602001610245565b34801561043857600080fd5b50d3801561044557600080fd5b50d2801561045257600080fd5b50610288610461366004613b40565b6113bd565b34801561047257600080fd5b50d3801561047f57600080fd5b50d2801561048c57600080fd5b506104a061049b3660046138b0565b6113ca565b60408051938452602084019290925290820152606001610245565b3480156104c757600080fd5b50d380156104d457600080fd5b50d280156104e157600080fd5b506102d06104f03660046137a1565b611654565b34801561050157600080fd5b50d3801561050e57600080fd5b50d2801561051b57600080fd5b506102d061052a366004613a59565b6117f2565b34801561053b57600080fd5b50d3801561054857600080fd5b50d2801561055557600080fd5b5061038b610564366004613bca565b61181f565b34801561057557600080fd5b50d3801561058257600080fd5b50d2801561058f57600080fd5b506102d061059e3660046137a1565b6119f3565b3480156105af57600080fd5b50d380156105bc57600080fd5b50d280156105c957600080fd5b506102d06105d8366004613ac4565b611b94565b6102d06105eb3660046139e6565b611d6e565b3480156105fc57600080fd5b50d3801561060957600080fd5b50d2801561061657600080fd5b506104147f000000000000000000000000000000000000000000000000000000000000000081565b34801561064a57600080fd5b50d3801561065757600080fd5b50d2801561066457600080fd5b50610288610673366004613b40565b611f93565b34801561068457600080fd5b50d3801561069157600080fd5b50d2801561069e57600080fd5b506102d06106ad366004613ac4565b611fa0565b3480156106be57600080fd5b50d380156106cb57600080fd5b50d280156106d857600080fd5b506106f86106e7366004613670565b63bc197c8160e01b95945050505050565b6040516001600160e01b03199091168152602001610245565b6104a061071f366004613b6c565b61209f565b34801561073057600080fd5b50d3801561073d57600080fd5b50d2801561074a57600080fd5b50610288606481565b34801561075f57600080fd5b50d3801561076c57600080fd5b50d2801561077957600080fd5b506104147f000000000000000000000000000000000000000000000000000000000000000081565b3480156107ad57600080fd5b50d380156107ba57600080fd5b50d280156107c757600080fd5b5061038b6107d6366004613838565b612302565b6102d06107e93660046139e6565b6124d1565b3480156107fa57600080fd5b50d3801561080757600080fd5b50d2801561081457600080fd5b506102d0610823366004613ac4565b6127bb565b34801561083457600080fd5b50d3801561084157600080fd5b50d2801561084e57600080fd5b506106f861085d36600461372b565b63f23a6e6160e01b95945050505050565b34801561087a57600080fd5b50d3801561088757600080fd5b50d2801561089457600080fd5b506104a06108a3366004613c32565b612884565b60006001600160e01b03198216630271189760e51b14806108d957506301ffc9a760e01b6001600160e01b03198316145b92915050565b60006108ec848484612928565b949350505050565b606081428110156109205760405162461bcd60e51b815260040161091790613dc6565b60405180910390fd5b6064868661092f6001826140fd565b81811061093e5761093e61419e565b90506020020135146109625760405162461bcd60e51b815260040161091790613f6e565b6109c07f0000000000000000000000000000000000000000000000000000000000000000898888808060200260200160405190810160405280939291908181526020018383602002808284376000920191909152506129fb92505050565b91508682600184516109d291906140fd565b815181106109e2576109e261419e565b60200260200101511015610a085760405162461bcd60e51b815260040161091790613e46565b600080546001600160a01b03169063f242432a903390610a7b907f0000000000000000000000000000000000000000000000000000000000000000908b908b9081610a5557610a5561419e565b905060200201358b8b6001818110610a6f57610a6f61419e565b90506020020135612b56565b89896000818110610a8e57610a8e61419e565b9050602002013586600081518110610aa857610aa861419e565b60200260200101516040518563ffffffff1660e01b8152600401610acf9493929190613d58565b600060405180830381600087803b158015610ae957600080fd5b505af1158015610afd573d6000803e3d6000fd5b50505050610b4082878780806020026020016040519081016040528093929190818152602001838360200280828437600092019190915250309250612c20915050565b7f00000000000000000000000000000000000000000000000000000000000000006001600160a01b031663d265c5dd8360018551610b7e91906140fd565b81518110610b8e57610b8e61419e565b6020026020010151866040518363ffffffff1660e01b8152600401610bc69291909182526001600160a01b0316602082015260400190565b600060405180830381600087803b158015610be057600080fd5b505af1158015610bf4573d6000803e3d6000fd5b50505050509695505050505050565b60608142811015610c265760405162461bcd60e51b815260040161091790613dc6565b604051636489e8b960e11b81526001600160a01b038a811660048301526000917f00000000000000000000000000000000000000000000000000000000000000009091169063c913d1729060240160206040518083038186803b158015610c8c57600080fd5b505afa158015610ca0573d6000803e3d6000fd5b505050506040513d601f19601f82011682018060405250810190610cc491906139cd565b9050808787610cd46001826140fd565b818110610ce357610ce361419e565b9050602002013514610d075760405162461bcd60e51b815260040161091790613f6e565b610d657f00000000000000000000000000000000000000000000000000000000000000008a8989808060200260200160405190810160405280939291908181526020018383602002808284376000920191909152506129fb92505050565b9250878360018551610d7791906140fd565b81518110610d8757610d8761419e565b60200260200101511015610dad5760405162461bcd60e51b815260040161091790613e46565b600080546001600160a01b03169063f242432a903390610e14907f0000000000000000000000000000000000000000000000000000000000000000908c908c9081610dfa57610dfa61419e565b905060200201358c8c6001818110610a6f57610a6f61419e565b8a8a6000818110610e2757610e2761419e565b9050602002013587600081518110610e4157610e4161419e565b60200260200101516040518563ffffffff1660e01b8152600401610e689493929190613d58565b600060405180830381600087803b158015610e8257600080fd5b505af1158015610e96573d6000803e3d6000fd5b50505050610ed983888880806020026020016040519081016040528093929190818152602001838360200280828437600092019190915250309250612c20915050565b7f00000000000000000000000000000000000000000000000000000000000000006001600160a01b031663b23f535e8b8560018751610f1891906140fd565b81518110610f2857610f2861419e565b6020026020010151886040518463ffffffff1660e01b8152600401610f4f93929190613d90565b600060405180830381600087803b158015610f6957600080fd5b505af1158015610f7d573d6000803e3d6000fd5b505050505050979650505050505050565b60608142811015610fb15760405162461bcd60e51b815260040161091790613dc6565b604051636489e8b960e11b81526001600160a01b038a811660048301526000917f00000000000000000000000000000000000000000000000000000000000000009091169063c913d1729060240160206040518083038186803b15801561101757600080fd5b505afa15801561102b573d6000803e3d6000fd5b505050506040513d601f19601f8201168201806040525081019061104f91906139cd565b905080878760008181106110655761106561419e565b90506020020135146110895760405162461bcd60e51b815260040161091790613f6e565b6110e77f000000000000000000000000000000000000000000000000000000000000000089898980806020026020016040519081016040528093929190818152602001838360200280828437600092019190915250612e1692505050565b925088836000815181106110fd576110fd61419e565b602002602001015111156111235760405162461bcd60e51b815260040161091790613f24565b7f00000000000000000000000000000000000000000000000000000000000000006001600160a01b03166375b74f348b856000815181106111665761116661419e565b60200260200101516111bf7f00000000000000000000000000000000000000000000000000000000000000008c8c60008181106111a5576111a561419e565b905060200201358d8d6001818110610a6f57610a6f61419e565b6040518463ffffffff1660e01b81526004016111dd93929190613d90565b600060405180830381600087803b1580156111f757600080fd5b505af115801561120b573d6000803e3d6000fd5b5050505061124e838888808060200260200160405190810160405280939291908181526020018383602002808284376000920191909152508a9250612c20915050565b5050979650505050505050565b600080824281101561127f5760405162461bcd60e51b815260040161091790613dc6565b61128f8960648a8a8a308a61181f565b600054604051637921219560e11b81529295509093506001600160a01b03169063f242432a906112c990309089908e908990600401613d58565b600060405180830381600087803b1580156112e357600080fd5b505af11580156112f7573d6000803e3d6000fd5b505060405163d265c5dd60e01b8152600481018590526001600160a01b0388811660248301527f000000000000000000000000000000000000000000000000000000000000000016925063d265c5dd9150604401600060405180830381600087803b15801561136557600080fd5b505af1158015611379573d6000803e3d6000fd5b5050505050965096945050505050565b60606113b67f000000000000000000000000000000000000000000000000000000000000000084846129fb565b9392505050565b60006108ec848484612f67565b600080600083428110156113f05760405162461bcd60e51b815260040161091790613dc6565b604051636489e8b960e11b81526001600160a01b038d811660048301527f0000000000000000000000000000000000000000000000000000000000000000169063c913d1729060240160206040518083038186803b15801561145157600080fd5b505afa158015611465573d6000803e3d6000fd5b505050506040513d601f19601f8201168201806040525081019061148991906139cd565b91506114998b838c8c8c8c613040565b909450925060006114cb7f00000000000000000000000000000000000000000000000000000000000000008d85612b56565b905060008054906101000a90046001600160a01b03166001600160a01b031663f242432a33838f896040518563ffffffff1660e01b81526004016115129493929190613d58565b600060405180830381600087803b15801561152c57600080fd5b505af1158015611540573d6000803e3d6000fd5b505050507f00000000000000000000000000000000000000000000000000000000000000006001600160a01b03166375b74f348e86846040518463ffffffff1660e01b815260040161159493929190613d90565b600060405180830381600087803b1580156115ae57600080fd5b505af11580156115c2573d6000803e3d6000fd5b50506040516335313c2160e11b81526001600160a01b038a8116600483015284169250636a62784291506024015b602060405180830381600087803b15801561160a57600080fd5b505af115801561161e573d6000803e3d6000fd5b505050506040513d601f19601f8201168201806040525081019061164291906139cd565b92505050985098509895505050505050565b606081428110156116775760405162461bcd60e51b815260040161091790613dc6565b604051636489e8b960e11b81526001600160a01b038a811660048301526000917f00000000000000000000000000000000000000000000000000000000000000009091169063c913d1729060240160206040518083038186803b1580156116dd57600080fd5b505afa1580156116f1573d6000803e3d6000fd5b505050506040513d601f19601f8201168201806040525081019061171591906139cd565b90508087876117256001826140fd565b8181106117345761173461419e565b90506020020135146117585760405162461bcd60e51b815260040161091790613f6e565b6117b67f00000000000000000000000000000000000000000000000000000000000000008a898980806020026020016040519081016040528093929190818152602001838360200280828437600092019190915250612e1692505050565b925087836000815181106117cc576117cc61419e565b60200260200101511115610dad5760405162461bcd60e51b815260040161091790613f24565b60606113b67f00000000000000000000000000000000000000000000000000000000000000008484612e16565b60008082428110156118435760405162461bcd60e51b815260040161091790613dc6565b60006118707f00000000000000000000000000000000000000000000000000000000000000008c8c612b56565b6040516323b872dd60e01b81523360048201526001600160a01b03821660248201819052604482018c90529192506323b872dd90606401602060405180830381600087803b1580156118c157600080fd5b505af11580156118d5573d6000803e3d6000fd5b505050506040513d601f19601f820116820180604052508101906118f99190613931565b5060405163226bf2d160e21b81526001600160a01b03878116600483015260009182918416906389afcb44906024016040805180830381600087803b15801561194157600080fd5b505af1158015611955573d6000803e3d6000fd5b505050506040513d601f19601f820116820180604052508101906119799190613aa0565b9150915060006119898e8e613222565b509050808e1461199a57818361199d565b82825b90975095508a8710156119c25760405162461bcd60e51b815260040161091790613dfd565b898610156119e25760405162461bcd60e51b815260040161091790613edb565b505050505097509795505050505050565b60608142811015611a165760405162461bcd60e51b815260040161091790613dc6565b604051636489e8b960e11b81526001600160a01b038a811660048301526000917f00000000000000000000000000000000000000000000000000000000000000009091169063c913d1729060240160206040518083038186803b158015611a7c57600080fd5b505afa158015611a90573d6000803e3d6000fd5b505050506040513d601f19601f82011682018060405250810190611ab491906139cd565b90508087876000818110611aca57611aca61419e565b9050602002013514611aee5760405162461bcd60e51b815260040161091790613f6e565b611b4c7f00000000000000000000000000000000000000000000000000000000000000008a8989808060200260200160405190810160405280939291908181526020018383602002808284376000920191909152506129fb92505050565b9250878360018551611b5e91906140fd565b81518110611b6e57611b6e61419e565b602002602001015110156111235760405162461bcd60e51b815260040161091790613e46565b60608142811015611bb75760405162461bcd60e51b815260040161091790613dc6565b611c157f000000000000000000000000000000000000000000000000000000000000000089888880806020026020016040519081016040528093929190818152602001838360200280828437600092019190915250612e1692505050565b91508682600081518110611c2b57611c2b61419e565b60200260200101511115611c515760405162461bcd60e51b815260040161091790613f24565b600080546001600160a01b03169063f242432a903390611c9e907f0000000000000000000000000000000000000000000000000000000000000000908b908b9081610a5557610a5561419e565b89896000818110611cb157611cb161419e565b9050602002013586600081518110611ccb57611ccb61419e565b60200260200101516040518563ffffffff1660e01b8152600401611cf29493929190613d58565b600060405180830381600087803b158015611d0c57600080fd5b505af1158015611d20573d6000803e3d6000fd5b50505050611d6382878780806020026020016040519081016040528093929190818152602001838360200280828437600092019190915250899250612c20915050565b509695505050505050565b60608142811015611d915760405162461bcd60e51b815260040161091790613dc6565b606486866000818110611da657611da661419e565b9050602002013514611dca5760405162461bcd60e51b815260040161091790613f6e565b611e287f0000000000000000000000000000000000000000000000000000000000000000348888808060200260200160405190810160405280939291908181526020018383602002808284376000920191909152506129fb92505050565b9150868260018451611e3a91906140fd565b81518110611e4a57611e4a61419e565b60200260200101511015611e705760405162461bcd60e51b815260040161091790613e46565b7f00000000000000000000000000000000000000000000000000000000000000006001600160a01b031663cc5c7b3e83600081518110611eb257611eb261419e565b6020026020010151611ef17f00000000000000000000000000000000000000000000000000000000000000008a8a6000818110610a5557610a5561419e565b6040516001600160e01b031960e085901b1681526001600160a01b0390911660048201526024016000604051808303818588803b158015611f3157600080fd5b505af1158015611f45573d6000803e3d6000fd5b5050505050611f8982878780806020026020016040519081016040528093929190818152602001838360200280828437600092019190915250899250612c20915050565b5095945050505050565b60006108ec84848461329f565b60608142811015611fc35760405162461bcd60e51b815260040161091790613dc6565b60648686611fd26001826140fd565b818110611fe157611fe161419e565b90506020020135146120055760405162461bcd60e51b815260040161091790613f6e565b6120637f000000000000000000000000000000000000000000000000000000000000000089888880806020026020016040519081016040528093929190818152602001838360200280828437600092019190915250612e1692505050565b915086826000815181106120795761207961419e565b60200260200101511115610a085760405162461bcd60e51b815260040161091790613f24565b600080600083428110156120c55760405162461bcd60e51b815260040161091790613dc6565b6120d48a60648b348c8c613040565b909450925060006121077f00000000000000000000000000000000000000000000000000000000000000008c6064612b56565b905060008054906101000a90046001600160a01b03166001600160a01b031663f242432a33838e896040518563ffffffff1660e01b815260040161214e9493929190613d58565b600060405180830381600087803b15801561216857600080fd5b505af115801561217c573d6000803e3d6000fd5b505060405163662e3d9f60e11b81526001600160a01b0384811660048301527f000000000000000000000000000000000000000000000000000000000000000016925063cc5c7b3e915086906024016000604051808303818588803b1580156121e457600080fd5b505af11580156121f8573d6000803e3d6000fd5b50506040516335313c2160e11b81526001600160a01b038b8116600483015285169350636a62784292506024019050602060405180830381600087803b15801561224157600080fd5b505af1158015612255573d6000803e3d6000fd5b505050506040513d601f19601f8201168201806040525081019061227991906139cd565b9250833411156122f45760003361229086346140fd565b604051600081818185875af1925050503d80600081146122cc576040519150601f19603f3d011682016040523d82523d6000602084013e6122d1565b606091505b50509050806122f25760405162461bcd60e51b815260040161091790613e94565b505b505096509650969350505050565b60008082428110156123265760405162461bcd60e51b815260040161091790613dc6565b604051636489e8b960e11b81526001600160a01b038b811660048301526000917f00000000000000000000000000000000000000000000000000000000000000009091169063c913d1729060240160206040518083038186803b15801561238c57600080fd5b505afa1580156123a0573d6000803e3d6000fd5b505050506040513d601f19601f820116820180604052508101906123c491906139cd565b90506123d58a828b8b8b308b61181f565b600054604051637921219560e11b81529296509094506001600160a01b03169063f242432a9061240f9030908a908f908a90600401613d58565b600060405180830381600087803b15801561242957600080fd5b505af115801561243d573d6000803e3d6000fd5b505060405163591fa9af60e11b81526001600160a01b037f000000000000000000000000000000000000000000000000000000000000000016925063b23f535e9150612491908e9087903390600401613d90565b600060405180830381600087803b1580156124ab57600080fd5b505af11580156124bf573d6000803e3d6000fd5b50505050505097509795505050505050565b606081428110156124f45760405162461bcd60e51b815260040161091790613dc6565b6064868660008181106125095761250961419e565b905060200201351461252d5760405162461bcd60e51b815260040161091790613f6e565b61258b7f000000000000000000000000000000000000000000000000000000000000000088888880806020026020016040519081016040528093929190818152602001838360200280828437600092019190915250612e1692505050565b915034826000815181106125a1576125a161419e565b602002602001015111156125c75760405162461bcd60e51b815260040161091790613f24565b7f00000000000000000000000000000000000000000000000000000000000000006001600160a01b031663cc5c7b3e836000815181106126095761260961419e565b60200260200101516126487f00000000000000000000000000000000000000000000000000000000000000008a8a6000818110610a5557610a5561419e565b6040516001600160e01b031960e085901b1681526001600160a01b0390911660048201526024016000604051808303818588803b15801561268857600080fd5b505af115801561269c573d6000803e3d6000fd5b50505050506126e082878780806020026020016040519081016040528093929190818152602001838360200280828437600092019190915250899250612c20915050565b816000815181106126f3576126f361419e565b6020026020010151341115611f89576000336001600160a01b0316836000815181106127215761272161419e565b60200260200101513461273491906140fd565b6040805160008152602081019182905261274d91613ce1565b60006040518083038185875af1925050503d806000811461278a576040519150601f19603f3d011682016040523d82523d6000602084013e61278f565b606091505b50509050806127b05760405162461bcd60e51b815260040161091790613e94565b505095945050505050565b606081428110156127de5760405162461bcd60e51b815260040161091790613dc6565b61283c7f0000000000000000000000000000000000000000000000000000000000000000898888808060200260200160405190810160405280939291908181526020018383602002808284376000920191909152506129fb92505050565b915086826001845161284e91906140fd565b8151811061285e5761285e61419e565b60200260200101511015611c515760405162461bcd60e51b815260040161091790613e46565b600080600083428110156128aa5760405162461bcd60e51b815260040161091790613dc6565b6128b88c8c8c8c8c8c613040565b909450925060006128ea7f00000000000000000000000000000000000000000000000000000000000000008e8e612b56565b90506128fa33828f8f8989613333565b6040516335313c2160e11b81526001600160a01b038881166004830152821690636a627842906024016115f0565b60008084116129815760405162461bcd60e51b815260206004820152603160248201526000805160206141e38339815191526044820152701251539517d25394155517d05353d55395607a1b6064820152608401610917565b6000831180156129915750600082115b6129ad5760405162461bcd60e51b815260040161091790613fa3565b60006129bb856103e56140de565b905060006129c984836140de565b90506000826129da876103e86140de565b6129e491906140a4565b90506129f081836140bc565b979650505050505050565b6060600282511015612a1f5760405162461bcd60e51b815260040161091790613fdf565b815167ffffffffffffffff811115612a3957612a396141b4565b604051908082528060200260200182016040528015612a62578160200160208202803683370190505b5090508281600081518110612a7957612a7961419e565b60200260200101818152505060005b60018351612a9691906140fd565b811015612b4e57600080612ae987868581518110612ab657612ab661419e565b602002602001015187866001612acc91906140a4565b81518110612adc57612adc61419e565b60200260200101516133b3565b91509150612b11848481518110612b0257612b0261419e565b60200260200101518383612928565b84612b1d8560016140a4565b81518110612b2d57612b2d61419e565b60200260200101818152505050508080612b4690614157565b915050612a88565b509392505050565b6000806000612b658585613222565b91509150858282604051602001612b86929190918252602082015260400190565b60405160208183030381529060405280519060200120604051602001612bfe9291906001600160f81b0319815260609290921b6bffffffffffffffffffffffff1916600183015260158201527f85a06a79c91ae0a0ee8036d7aefc66e537977f1cdd17d236b23ad187cdc93fc9603582015260550190565b60408051601f1981840301815291905280516020909101209695505050505050565b60005b60018351612c3191906140fd565b811015612e1057600080848381518110612c4d57612c4d61419e565b602002602001015185846001612c6391906140a4565b81518110612c7357612c7361419e565b6020026020010151915091506000612c8b8383613222565b509050600087612c9c8660016140a4565b81518110612cac57612cac61419e565b60200260200101519050600080838614612cc857826000612ccc565b6000835b91509150600060028a51612ce091906140fd565b8810612cec5788612d3a565b612d3a7f0000000000000000000000000000000000000000000000000000000000000000878c612d1d8c60026140a4565b81518110612d2d57612d2d61419e565b6020026020010151612b56565b9050612d677f00000000000000000000000000000000000000000000000000000000000000008888612b56565b6001600160a01b031663022c0d9f84848460006040519080825280601f01601f191660200182016040528015612da4576020820181803683370190505b506040518563ffffffff1660e01b8152600401612dc49493929190614023565b600060405180830381600087803b158015612dde57600080fd5b505af1158015612df2573d6000803e3d6000fd5b50505050505050505050508080612e0890614157565b915050612c23565b50505050565b6060600282511015612e3a5760405162461bcd60e51b815260040161091790613fdf565b815167ffffffffffffffff811115612e5457612e546141b4565b604051908082528060200260200182016040528015612e7d578160200160208202803683370190505b509050828160018351612e9091906140fd565b81518110612ea057612ea061419e565b602002602001018181525050600060018351612ebc91906140fd565b90505b8015612b4e57600080612f028786612ed86001876140fd565b81518110612ee857612ee861419e565b6020026020010151878681518110612adc57612adc61419e565b91509150612f2a848481518110612f1b57612f1b61419e565b60200260200101518383612f67565b84612f366001866140fd565b81518110612f4657612f4661419e565b60200260200101818152505050508080612f5f90614140565b915050612ebf565b6000808411612fc15760405162461bcd60e51b815260206004820152603260248201526000805160206141e38339815191526044820152711251539517d3d55514155517d05353d5539560721b6064820152608401610917565b600083118015612fd15750600082115b612fed5760405162461bcd60e51b815260040161091790613fa3565b6000612ff985856140de565b613005906103e86140de565b9050600061301386856140fd565b61301f906103e56140de565b905061302b81836140bc565b6130369060016140a4565b9695505050505050565b6040516348ae3e3360e11b81526004810187905260248101869052600090819081906001600160a01b037f0000000000000000000000000000000000000000000000000000000000000000169063915c7c669060440160206040518083038186803b1580156130ae57600080fd5b505afa1580156130c2573d6000803e3d6000fd5b505050506040513d601f19601f820116820180604052508101906130e69190613643565b6001600160a01b0316141561313d5760405162461bcd60e51b815260206004820181905260248201527f537061636550697261746573526f757465723a204d495353494e4720504f4f4c6044820152606401610917565b60008061316b7f00000000000000000000000000000000000000000000000000000000000000008b8b6133b3565b9150915081600014801561317d575080155b1561318d57879350869250613215565b600061319a89848461329f565b90508781116131ce57858110156131c35760405162461bcd60e51b815260040161091790613edb565b889450925082613213565b60006131db89848661329f565b9050898111156131ed576131ed614172565b8781101561320d5760405162461bcd60e51b815260040161091790613dfd565b94508793505b505b5050965096945050505050565b600080828414156132835760405162461bcd60e51b815260206004820152602560248201527f5370616365506972617465734465784c6962726172793a204944454e544943416044820152644c5f49445360d81b6064820152608401610917565b828410613291578284613294565b83835b909590945092505050565b60008084116132f25760405162461bcd60e51b815260206004820152602b60248201526000805160206141e383398151915260448201526a1251539517d05353d5539560aa1b6064820152608401610917565b6000831180156133025750600082115b61331e5760405162461bcd60e51b815260040161091790613fa3565b8261332983866140de565b6108ec91906140bc565b6000546001600160a01b0316632eb2c2d68787613350888861347a565b61335a878761347a565b6040518563ffffffff1660e01b81526004016133799493929190613cfd565b600060405180830381600087803b15801561339357600080fd5b505af11580156133a7573d6000803e3d6000fd5b50505050505050505050565b60008060006133c28585613222565b5090506000806133d3888888612b56565b6001600160a01b0316630902f1ac6040518163ffffffff1660e01b815260040160606040518083038186803b15801561340b57600080fd5b505afa15801561341f573d6000803e3d6000fd5b505050506040513d601f19601f82011682018060405250810190613443919061397d565b506001600160701b031691506001600160701b0316915082871461346857808261346b565b81815b90999098509650505050505050565b6040805160028082526060808301845292600092919060208301908036833701905050905083816000815181106134b3576134b361419e565b60200260200101818152505082816001815181106134d3576134d361419e565b60209081029190910101529392505050565b60008083601f8401126134f757600080fd5b50813567ffffffffffffffff81111561350f57600080fd5b6020830191508360208260051b850101111561352a57600080fd5b9250929050565b600082601f83011261354257600080fd5b8135602067ffffffffffffffff82111561355e5761355e6141b4565b8160051b61356d828201614073565b83815282810190868401838801850189101561358857600080fd5b600093505b858410156135ab57803583526001939093019291840191840161358d565b50979650505050505050565b600082601f8301126135c857600080fd5b813567ffffffffffffffff8111156135e2576135e26141b4565b6135f5601f8201601f1916602001614073565b81815284602083860101111561360a57600080fd5b816020850160208301376000918101602001919091529392505050565b80516001600160701b038116811461363e57600080fd5b919050565b60006020828403121561365557600080fd5b8151613660816141ca565b6001600160a01b03169392505050565b600080600080600060a0868803121561368857600080fd5b8535613693816141ca565b6001600160a01b0390811695506020870135906136af826141ca565b169350604086013567ffffffffffffffff808211156136cd57600080fd5b6136d989838a01613531565b945060608801359150808211156136ef57600080fd5b6136fb89838a01613531565b9350608088013591508082111561371157600080fd5b5061371e888289016135b7565b9150509295509295909350565b600080600080600060a0868803121561374357600080fd5b853561374e816141ca565b6001600160a01b03908116955060208701359061376a826141ca565b1693506040860135925060608601359150608086013567ffffffffffffffff81111561379557600080fd5b61371e888289016135b7565b600080600080600080600060c0888a0312156137bc57600080fd5b87356137c7816141ca565b6001600160a01b039081169750602089013596506040890135955060608901359067ffffffffffffffff8211156137fd57600080fd5b6138098b838c016134e5565b909650945060808a0135915061381e826141ca565b8082169350505060a0880135905092959891949750929550565b600080600080600080600060e0888a03121561385357600080fd5b873561385e816141ca565b6001600160a01b0390811697506020890135965060408901359550606089013594506080890135935060a089013590613896826141ca565b8082169350505060c0880135905092959891949750929550565b600080600080600080600080610100898b0312156138cd57600080fd5b88356138d8816141ca565b6001600160a01b03908116985060208a0135975060408a0135965060608a0135955060808a0135945060a08a0135935060c08a013590613917826141ca565b989b979a5095989497939692959093169360e00135925050565b60006020828403121561394357600080fd5b815180151581146113b657600080fd5b60006020828403121561396557600080fd5b81356001600160e01b0319811681146113b657600080fd5b60008060006060848603121561399257600080fd5b61399b84613627565b92506139a960208501613627565b9150604084015163ffffffff811681146139c257600080fd5b809150509250925092565b6000602082840312156139df57600080fd5b5051919050565b6000806000806000608086880312156139fe57600080fd5b85359450602086013567ffffffffffffffff811115613a1c57600080fd5b613a28888289016134e5565b9095509350506040860135613a3c816141ca565b949793965091946001600160a01b03909416936060013592915050565b60008060408385031215613a6c57600080fd5b82359150602083013567ffffffffffffffff811115613a8a57600080fd5b613a9685828601613531565b9150509250929050565b60008060408385031215613ab357600080fd5b505080516020909101519092909150565b60008060008060008060a08789031215613add57600080fd5b8635955060208701359450604087013567ffffffffffffffff811115613b0257600080fd5b613b0e89828a016134e5565b9095509350506060870135613b22816141ca565b9598949750929591946001600160a01b031693608090920135925050565b600080600060608486031215613b5557600080fd5b505081359360208301359350604090920135919050565b60008060008060008060c08789031215613b8557600080fd5b863595506020870135945060408701359350606087013592506080870135613bac816141ca565b9598949750929591946001600160a01b03169360a090920135925050565b600080600080600080600060e0888a031215613be557600080fd5b873596506020880135955060408801359450606088013593506080880135925060a0880135613c13816141ca565b60018060a01b03811692505060c0880135905092959891949750929550565b600080600080600080600080610100898b031215613c4f57600080fd5b883597506020890135965060408901359550606089013594506080890135935060a0890135925060c0890135613c84816141ca565b979a969950949793969295919450506001600160a01b039091169160e0013590565b600081518084526020808501945080840160005b83811015613cd657815187529582019590820190600101613cba565b509495945050505050565b60008251613cf3818460208701614114565b9190910192915050565b6001600160a01b0385811682528416602082015260a060408201819052600090613d2990830185613ca6565b8281036060840152613d3b8185613ca6565b838103608090940193909352505060008152602001949350505050565b6001600160a01b0394851681529290931660208301526040820152606081019190915260a06080820181905260009082015260c00190565b6001600160a01b0393841681526020810192909252909116604082015260600190565b6020815260006113b66020830184613ca6565b6020808252601b908201527f537061636550697261746573526f757465723a20455850495245440000000000604082015260600190565b60208082526029908201527f537061636550697261746573526f757465723a20494e53554646494349454e5460408201526817d057d05353d5539560ba1b606082015260800190565b6020808252602e908201527f537061636550697261746573526f757465723a20494e53554646494349454e5460408201526d17d3d55514155517d05353d5539560921b606082015260800190565b60208082526027908201527f537061636550697261746573526f757465723a20455448207472616e736665726040820152660819985a5b195960ca1b606082015260800190565b60208082526029908201527f537061636550697261746573526f757465723a20494e53554646494349454e5460408201526817d097d05353d5539560ba1b606082015260800190565b6020808252602a908201527f537061636550697261746573526f757465723a204558434553534956455f494e60408201526914155517d05353d5539560b21b606082015260800190565b6020808252818101527f537061636550697261746573526f757465723a20494e56414c49445f50415448604082015260600190565b6020808252602e908201526000805160206141e383398151915260408201526d49454e545f4c495155494449545960901b606082015260800190565b60208082526024908201527f5370616365506972617465734465784c6962726172793a20494e56414c49445f6040820152630a082a8960e31b606082015260800190565b84815283602082015260018060a01b0383166040820152608060608201526000825180608084015261405c8160a0850160208701614114565b601f01601f19169190910160a00195945050505050565b604051601f8201601f1916810167ffffffffffffffff8111828210171561409c5761409c6141b4565b604052919050565b600082198211156140b7576140b7614188565b500190565b6000826140d957634e487b7160e01b600052601260045260246000fd5b500490565b60008160001904831182151516156140f8576140f8614188565b500290565b60008282101561410f5761410f614188565b500390565b60005b8381101561412f578181015183820152602001614117565b83811115612e105750506000910152565b60008161414f5761414f614188565b506000190190565b600060001982141561416b5761416b614188565b5060010190565b634e487b7160e01b600052600160045260246000fd5b634e487b7160e01b600052601160045260246000fd5b634e487b7160e01b600052603260045260246000fd5b634e487b7160e01b600052604160045260246000fd5b6001600160a81b03811681146141df57600080fd5b5056fe5370616365506972617465734465784c6962726172793a20494e535546464943a26474726f6e58221220ee3cc838de1f60f0023e648966b3cd1ca277aba3db38b757f531763b7904ffdd64736f6c63430008060033",
  "source": "// SPDX-License-Identifier: MIT\r\npragma solidity ^0.8.0;\r\n\r\nimport \"@openzeppelin/contracts/token/ERC1155/IERC1155.sol\";\r\nimport \"@openzeppelin/contracts/token/ERC1155/utils/ERC1155Holder.sol\";\r\nimport \"./ERC1155Batch.sol\";\r\nimport \"../interfaces/ISpacePiratesFactory.sol\";\r\nimport \"../interfaces/ISpacePiratesPair.sol\";\r\nimport \"../interfaces/ISpacePiratesWrapper.sol\";\r\nimport \"../libraries/SpacePiratesDexLibrary.sol\";\r\n\r\n/**\r\n * @title Space Pirates Router Contract\r\n * @author @Gr3it, @yuripaoloni (reviewer), @MatteoLeonesi (reviewer)\r\n * @notice Let users interfact safely with the dex\r\n */\r\n\r\ncontract SpacePiratesRouter is ERC1155Batch, ERC1155Holder {\r\n    uint256 public constant SPACE_ETH_ID = 100;\r\n\r\n    ISpacePiratesWrapper public immutable wrapper;\r\n    address public immutable factory;\r\n\r\n    modifier ensure(uint256 deadline) {\r\n        require(deadline >= block.timestamp, \"SpacePiratesRouter: EXPIRED\");\r\n        _;\r\n    }\r\n\r\n    constructor(\r\n        address _factory,\r\n        address _tokenContract,\r\n        ISpacePiratesWrapper _wrapper\r\n    ) {\r\n        factory = _factory;\r\n        wrapper = _wrapper;\r\n        _batchInit(_tokenContract);\r\n    }\r\n\r\n    receive() external payable {\r\n        assert(msg.sender == address(wrapper)); // only accept ETH via fallback from the wrapper contract\r\n    }\r\n\r\n    // **** ADD LIQUIDITY ****\r\n    function _addLiquidity(\r\n        uint256 tokenA,\r\n        uint256 tokenB,\r\n        uint256 amountADesired,\r\n        uint256 amountBDesired,\r\n        uint256 amountAMin,\r\n        uint256 amountBMin\r\n    ) internal virtual returns (uint256 amountA, uint256 amountB) {\r\n        require(\r\n            ISpacePiratesFactory(factory).getPair(tokenA, tokenB) != address(0),\r\n            \"SpacePiratesRouter: MISSING POOL\"\r\n        );\r\n        (uint256 reserveA, uint256 reserveB) = SpacePiratesDexLibrary\r\n            .getReserves(factory, tokenA, tokenB);\r\n        if (reserveA == 0 && reserveB == 0) {\r\n            (amountA, amountB) = (amountADesired, amountBDesired);\r\n        } else {\r\n            uint256 amountBOptimal = SpacePiratesDexLibrary.quote(\r\n                amountADesired,\r\n                reserveA,\r\n                reserveB\r\n            );\r\n            if (amountBOptimal <= amountBDesired) {\r\n                require(\r\n                    amountBOptimal >= amountBMin,\r\n                    \"SpacePiratesRouter: INSUFFICIENT_B_AMOUNT\"\r\n                );\r\n                (amountA, amountB) = (amountADesired, amountBOptimal);\r\n            } else {\r\n                uint256 amountAOptimal = SpacePiratesDexLibrary.quote(\r\n                    amountBDesired,\r\n                    reserveB,\r\n                    reserveA\r\n                );\r\n                assert(amountAOptimal <= amountADesired);\r\n                require(\r\n                    amountAOptimal >= amountAMin,\r\n                    \"SpacePiratesRouter: INSUFFICIENT_A_AMOUNT\"\r\n                );\r\n                (amountA, amountB) = (amountAOptimal, amountBDesired);\r\n            }\r\n        }\r\n    }\r\n\r\n    function addLiquidity(\r\n        uint256 tokenA,\r\n        uint256 tokenB,\r\n        uint256 amountADesired,\r\n        uint256 amountBDesired,\r\n        uint256 amountAMin,\r\n        uint256 amountBMin,\r\n        address to,\r\n        uint256 deadline\r\n    )\r\n        external\r\n        virtual\r\n        ensure(deadline)\r\n        returns (\r\n            uint256 amountA,\r\n            uint256 amountB,\r\n            uint256 liquidity\r\n        )\r\n    {\r\n        (amountA, amountB) = _addLiquidity(\r\n            tokenA,\r\n            tokenB,\r\n            amountADesired,\r\n            amountBDesired,\r\n            amountAMin,\r\n            amountBMin\r\n        );\r\n        address pair = SpacePiratesDexLibrary.pairFor(factory, tokenA, tokenB);\r\n\r\n        safeBatchTransferFromPair(\r\n            msg.sender,\r\n            pair,\r\n            tokenA,\r\n            tokenB,\r\n            amountA,\r\n            amountB\r\n        );\r\n\r\n        liquidity = ISpacePiratesPair(pair).mint(to);\r\n    }\r\n\r\n    function addLiquidityETH(\r\n        uint256 token,\r\n        uint256 amountTokenDesired,\r\n        uint256 amountTokenMin,\r\n        uint256 amountETHMin,\r\n        address to,\r\n        uint256 deadline\r\n    )\r\n        external\r\n        payable\r\n        virtual\r\n        ensure(deadline)\r\n        returns (\r\n            uint256 amountToken,\r\n            uint256 amountETH,\r\n            uint256 liquidity\r\n        )\r\n    {\r\n        (amountToken, amountETH) = _addLiquidity(\r\n            token,\r\n            SPACE_ETH_ID,\r\n            amountTokenDesired,\r\n            msg.value,\r\n            amountTokenMin,\r\n            amountETHMin\r\n        );\r\n        address pair = SpacePiratesDexLibrary.pairFor(\r\n            factory,\r\n            token,\r\n            SPACE_ETH_ID\r\n        );\r\n\r\n        IERC1155(tokenContract).safeTransferFrom(\r\n            msg.sender,\r\n            pair,\r\n            token,\r\n            amountToken,\r\n            \"\"\r\n        );\r\n        wrapper.ethDepositTo{value: amountETH}(pair);\r\n        liquidity = ISpacePiratesPair(pair).mint(to);\r\n        // refund dust eth, if any\r\n        if (msg.value > amountETH) {\r\n            (bool success, ) = msg.sender.call{value: msg.value - amountETH}(\r\n                \"\"\r\n            );\r\n            require(success, \"SpacePiratesRouter: ETH transfer failed\");\r\n        }\r\n    }\r\n\r\n    function addLiquidityERC20(\r\n        address erc20Contract,\r\n        uint256 token,\r\n        uint256 amountTokenDesired,\r\n        uint256 amountERC20Desired,\r\n        uint256 amountTokenMin,\r\n        uint256 amountERC20Min,\r\n        address to,\r\n        uint256 deadline\r\n    )\r\n        external\r\n        virtual\r\n        ensure(deadline)\r\n        returns (\r\n            uint256 amountToken,\r\n            uint256 amountERC20,\r\n            uint256 liquidityAndId //variable reuse preventing stack too deep compile error\r\n        )\r\n    {\r\n        liquidityAndId = wrapper.erc20ToId(erc20Contract); //variable reuse preventing stack too deep compile error\r\n        (amountToken, amountERC20) = _addLiquidity(\r\n            token,\r\n            liquidityAndId,\r\n            amountTokenDesired,\r\n            amountERC20Desired,\r\n            amountTokenMin,\r\n            amountERC20Min\r\n        );\r\n        address pair = SpacePiratesDexLibrary.pairFor(\r\n            factory,\r\n            token,\r\n            liquidityAndId\r\n        );\r\n\r\n        IERC1155(tokenContract).safeTransferFrom(\r\n            msg.sender,\r\n            pair,\r\n            token,\r\n            amountToken,\r\n            \"\"\r\n        );\r\n        wrapper.erc20DepositTo(erc20Contract, amountERC20, pair);\r\n        liquidityAndId = ISpacePiratesPair(pair).mint(to); //variable reuse preventing stack too deep compile error\r\n    }\r\n\r\n    // **** REMOVE LIQUIDITY ****\r\n    function removeLiquidity(\r\n        uint256 tokenA,\r\n        uint256 tokenB,\r\n        uint256 liquidity,\r\n        uint256 amountAMin,\r\n        uint256 amountBMin,\r\n        address to,\r\n        uint256 deadline\r\n    )\r\n        public\r\n        virtual\r\n        ensure(deadline)\r\n        returns (uint256 amountA, uint256 amountB)\r\n    {\r\n        address pair = SpacePiratesDexLibrary.pairFor(factory, tokenA, tokenB);\r\n        ISpacePiratesPair(pair).transferFrom(msg.sender, pair, liquidity); // send liquidity to pair\r\n        (uint256 amount0, uint256 amount1) = ISpacePiratesPair(pair).burn(to);\r\n        (uint256 token0, ) = SpacePiratesDexLibrary.sortTokens(tokenA, tokenB);\r\n        (amountA, amountB) = tokenA == token0\r\n            ? (amount0, amount1)\r\n            : (amount1, amount0);\r\n        require(\r\n            amountA >= amountAMin,\r\n            \"SpacePiratesRouter: INSUFFICIENT_A_AMOUNT\"\r\n        );\r\n        require(\r\n            amountB >= amountBMin,\r\n            \"SpacePiratesRouter: INSUFFICIENT_B_AMOUNT\"\r\n        );\r\n    }\r\n\r\n    function removeLiquidityETH(\r\n        uint256 token,\r\n        uint256 liquidity,\r\n        uint256 amountTokenMin,\r\n        uint256 amountETHMin,\r\n        address to,\r\n        uint256 deadline\r\n    )\r\n        public\r\n        virtual\r\n        ensure(deadline)\r\n        returns (uint256 amountToken, uint256 amountETH)\r\n    {\r\n        (amountToken, amountETH) = removeLiquidity(\r\n            token,\r\n            SPACE_ETH_ID,\r\n            liquidity,\r\n            amountTokenMin,\r\n            amountETHMin,\r\n            address(this),\r\n            deadline\r\n        );\r\n        IERC1155(tokenContract).safeTransferFrom(\r\n            address(this),\r\n            to,\r\n            token,\r\n            amountToken,\r\n            \"\"\r\n        );\r\n        wrapper.ethWithdrawTo(amountETH, to);\r\n    }\r\n\r\n    function removeLiquidityERC20(\r\n        address erc20Contract,\r\n        uint256 token,\r\n        uint256 liquidity,\r\n        uint256 amountTokenMin,\r\n        uint256 amountERC20Min,\r\n        address to,\r\n        uint256 deadline\r\n    )\r\n        public\r\n        virtual\r\n        ensure(deadline)\r\n        returns (uint256 amountToken, uint256 amountERC20)\r\n    {\r\n        uint256 erc20Id = wrapper.erc20ToId(erc20Contract);\r\n        (amountToken, amountERC20) = removeLiquidity(\r\n            token,\r\n            erc20Id,\r\n            liquidity,\r\n            amountTokenMin,\r\n            amountERC20Min,\r\n            address(this),\r\n            deadline\r\n        );\r\n        IERC1155(tokenContract).safeTransferFrom(\r\n            address(this),\r\n            to,\r\n            token,\r\n            amountToken,\r\n            \"\"\r\n        );\r\n        wrapper.erc20WithdrawTo(erc20Contract, amountERC20, msg.sender);\r\n    }\r\n\r\n    // **** SWAP ****\r\n    // requires the initial amount to have already been sent to the first pair\r\n    function _swap(\r\n        uint256[] memory amounts,\r\n        uint256[] memory path,\r\n        address _to\r\n    ) internal virtual {\r\n        for (uint256 i = 0; i < path.length - 1; i++) {\r\n            (uint256 input, uint256 output) = (path[i], path[i + 1]);\r\n            (uint256 token0, ) = SpacePiratesDexLibrary.sortTokens(\r\n                input,\r\n                output\r\n            );\r\n            uint256 amountOut = amounts[i + 1];\r\n            (uint256 amount0Out, uint256 amount1Out) = input == token0\r\n                ? (uint256(0), amountOut)\r\n                : (amountOut, uint256(0));\r\n            address to = i < path.length - 2\r\n                ? SpacePiratesDexLibrary.pairFor(factory, output, path[i + 2])\r\n                : _to;\r\n            ISpacePiratesPair(\r\n                SpacePiratesDexLibrary.pairFor(factory, input, output)\r\n            ).swap(amount0Out, amount1Out, to, new bytes(0));\r\n        }\r\n    }\r\n\r\n    function swapExactTokensForTokens(\r\n        uint256 amountIn,\r\n        uint256 amountOutMin,\r\n        uint256[] calldata path,\r\n        address to,\r\n        uint256 deadline\r\n    ) external virtual ensure(deadline) returns (uint256[] memory amounts) {\r\n        amounts = SpacePiratesDexLibrary.getAmountsOut(factory, amountIn, path);\r\n        require(\r\n            amounts[amounts.length - 1] >= amountOutMin,\r\n            \"SpacePiratesRouter: INSUFFICIENT_OUTPUT_AMOUNT\"\r\n        );\r\n        IERC1155(tokenContract).safeTransferFrom(\r\n            msg.sender,\r\n            SpacePiratesDexLibrary.pairFor(factory, path[0], path[1]),\r\n            path[0],\r\n            amounts[0],\r\n            \"\"\r\n        );\r\n        _swap(amounts, path, to);\r\n    }\r\n\r\n    function swapTokensForExactTokens(\r\n        uint256 amountOut,\r\n        uint256 amountInMax,\r\n        uint256[] calldata path,\r\n        address to,\r\n        uint256 deadline\r\n    ) external virtual ensure(deadline) returns (uint256[] memory amounts) {\r\n        amounts = SpacePiratesDexLibrary.getAmountsIn(factory, amountOut, path);\r\n        require(\r\n            amounts[0] <= amountInMax,\r\n            \"SpacePiratesRouter: EXCESSIVE_INPUT_AMOUNT\"\r\n        );\r\n        IERC1155(tokenContract).safeTransferFrom(\r\n            msg.sender,\r\n            SpacePiratesDexLibrary.pairFor(factory, path[0], path[1]),\r\n            path[0],\r\n            amounts[0],\r\n            \"\"\r\n        );\r\n        _swap(amounts, path, to);\r\n    }\r\n\r\n    function swapExactETHForTokens(\r\n        uint256 amountOutMin,\r\n        uint256[] calldata path,\r\n        address to,\r\n        uint256 deadline\r\n    )\r\n        external\r\n        payable\r\n        virtual\r\n        ensure(deadline)\r\n        returns (uint256[] memory amounts)\r\n    {\r\n        require(path[0] == SPACE_ETH_ID, \"SpacePiratesRouter: INVALID_PATH\");\r\n        amounts = SpacePiratesDexLibrary.getAmountsOut(\r\n            factory,\r\n            msg.value,\r\n            path\r\n        );\r\n        require(\r\n            amounts[amounts.length - 1] >= amountOutMin,\r\n            \"SpacePiratesRouter: INSUFFICIENT_OUTPUT_AMOUNT\"\r\n        );\r\n        wrapper.ethDepositTo{value: amounts[0]}(\r\n            SpacePiratesDexLibrary.pairFor(factory, path[0], path[1])\r\n        );\r\n\r\n        _swap(amounts, path, to);\r\n    }\r\n\r\n    function swapTokensForExactETH(\r\n        uint256 amountOut,\r\n        uint256 amountInMax,\r\n        uint256[] calldata path,\r\n        address to,\r\n        uint256 deadline\r\n    ) external virtual ensure(deadline) returns (uint256[] memory amounts) {\r\n        require(\r\n            path[path.length - 1] == SPACE_ETH_ID,\r\n            \"SpacePiratesRouter: INVALID_PATH\"\r\n        );\r\n        amounts = SpacePiratesDexLibrary.getAmountsIn(factory, amountOut, path);\r\n        require(\r\n            amounts[0] <= amountInMax,\r\n            \"SpacePiratesRouter: EXCESSIVE_INPUT_AMOUNT\"\r\n        );\r\n        IERC1155(tokenContract).safeTransferFrom(\r\n            msg.sender,\r\n            SpacePiratesDexLibrary.pairFor(factory, path[0], path[1]),\r\n            path[0],\r\n            amounts[0],\r\n            \"\"\r\n        );\r\n        _swap(amounts, path, address(this));\r\n\r\n        wrapper.ethWithdrawTo(amounts[amounts.length - 1], to);\r\n    }\r\n\r\n    function swapExactTokensForETH(\r\n        uint256 amountIn,\r\n        uint256 amountOutMin,\r\n        uint256[] calldata path,\r\n        address to,\r\n        uint256 deadline\r\n    ) external virtual ensure(deadline) returns (uint256[] memory amounts) {\r\n        require(\r\n            path[path.length - 1] == SPACE_ETH_ID,\r\n            \"SpacePiratesRouter: INVALID_PATH\"\r\n        );\r\n        amounts = SpacePiratesDexLibrary.getAmountsOut(factory, amountIn, path);\r\n        require(\r\n            amounts[amounts.length - 1] >= amountOutMin,\r\n            \"SpacePiratesRouter: INSUFFICIENT_OUTPUT_AMOUNT\"\r\n        );\r\n        IERC1155(tokenContract).safeTransferFrom(\r\n            msg.sender,\r\n            SpacePiratesDexLibrary.pairFor(factory, path[0], path[1]),\r\n            path[0],\r\n            amounts[0],\r\n            \"\"\r\n        );\r\n        _swap(amounts, path, address(this));\r\n\r\n        wrapper.ethWithdrawTo(amounts[amounts.length - 1], to);\r\n    }\r\n\r\n    function swapETHForExactTokens(\r\n        uint256 amountOut,\r\n        uint256[] calldata path,\r\n        address to,\r\n        uint256 deadline\r\n    )\r\n        external\r\n        payable\r\n        virtual\r\n        ensure(deadline)\r\n        returns (uint256[] memory amounts)\r\n    {\r\n        require(path[0] == SPACE_ETH_ID, \"SpacePiratesRouter: INVALID_PATH\");\r\n        amounts = SpacePiratesDexLibrary.getAmountsIn(factory, amountOut, path);\r\n        require(\r\n            amounts[0] <= msg.value,\r\n            \"SpacePiratesRouter: EXCESSIVE_INPUT_AMOUNT\"\r\n        );\r\n        wrapper.ethDepositTo{value: amounts[0]}(\r\n            SpacePiratesDexLibrary.pairFor(factory, path[0], path[1])\r\n        );\r\n        _swap(amounts, path, to);\r\n        // refund dust eth, if any\r\n        if (msg.value > amounts[0]) {\r\n            (bool success, ) = msg.sender.call{value: msg.value - amounts[0]}(\r\n                new bytes(0)\r\n            );\r\n            require(success, \"SpacePiratesRouter: ETH transfer failed\");\r\n        }\r\n    }\r\n\r\n    function swapExactERC20ForTokens(\r\n        address erc20Contract,\r\n        uint256 amountIn,\r\n        uint256 amountOutMin,\r\n        uint256[] calldata path,\r\n        address to,\r\n        uint256 deadline\r\n    ) external virtual ensure(deadline) returns (uint256[] memory amounts) {\r\n        uint256 erc20Id = wrapper.erc20ToId(erc20Contract);\r\n        require(path[0] == erc20Id, \"SpacePiratesRouter: INVALID_PATH\");\r\n        amounts = SpacePiratesDexLibrary.getAmountsOut(factory, amountIn, path);\r\n        require(\r\n            amounts[amounts.length - 1] >= amountOutMin,\r\n            \"SpacePiratesRouter: INSUFFICIENT_OUTPUT_AMOUNT\"\r\n        );\r\n        wrapper.erc20DepositTo(\r\n            erc20Contract,\r\n            amounts[0],\r\n            SpacePiratesDexLibrary.pairFor(factory, path[0], path[1])\r\n        );\r\n\r\n        _swap(amounts, path, to);\r\n    }\r\n\r\n    function swapTokensForExactERC20(\r\n        address erc20Contract,\r\n        uint256 amountOut,\r\n        uint256 amountInMax,\r\n        uint256[] calldata path,\r\n        address to,\r\n        uint256 deadline\r\n    ) external virtual ensure(deadline) returns (uint256[] memory amounts) {\r\n        uint256 erc20Id = wrapper.erc20ToId(erc20Contract);\r\n        require(\r\n            path[path.length - 1] == erc20Id,\r\n            \"SpacePiratesRouter: INVALID_PATH\"\r\n        );\r\n        amounts = SpacePiratesDexLibrary.getAmountsIn(factory, amountOut, path);\r\n        require(\r\n            amounts[0] <= amountInMax,\r\n            \"SpacePiratesRouter: EXCESSIVE_INPUT_AMOUNT\"\r\n        );\r\n        IERC1155(tokenContract).safeTransferFrom(\r\n            msg.sender,\r\n            SpacePiratesDexLibrary.pairFor(factory, path[0], path[1]),\r\n            path[0],\r\n            amounts[0],\r\n            \"\"\r\n        );\r\n        _swap(amounts, path, address(this));\r\n\r\n        wrapper.erc20WithdrawTo(erc20Contract, amounts[amounts.length - 1], to);\r\n    }\r\n\r\n    function swapExactTokensForERC20(\r\n        address erc20Contract,\r\n        uint256 amountIn,\r\n        uint256 amountOutMin,\r\n        uint256[] calldata path,\r\n        address to,\r\n        uint256 deadline\r\n    ) external virtual ensure(deadline) returns (uint256[] memory amounts) {\r\n        uint256 erc20Id = wrapper.erc20ToId(erc20Contract);\r\n        require(\r\n            path[path.length - 1] == erc20Id,\r\n            \"SpacePiratesRouter: INVALID_PATH\"\r\n        );\r\n        amounts = SpacePiratesDexLibrary.getAmountsOut(factory, amountIn, path);\r\n        require(\r\n            amounts[amounts.length - 1] >= amountOutMin,\r\n            \"SpacePiratesRouter: INSUFFICIENT_OUTPUT_AMOUNT\"\r\n        );\r\n        IERC1155(tokenContract).safeTransferFrom(\r\n            msg.sender,\r\n            SpacePiratesDexLibrary.pairFor(factory, path[0], path[1]),\r\n            path[0],\r\n            amounts[0],\r\n            \"\"\r\n        );\r\n        _swap(amounts, path, address(this));\r\n\r\n        wrapper.erc20WithdrawTo(erc20Contract, amounts[amounts.length - 1], to);\r\n    }\r\n\r\n    function swapERC20ForExactTokens(\r\n        address erc20Contract,\r\n        uint256 amountIn,\r\n        uint256 amountOut,\r\n        uint256[] calldata path,\r\n        address to,\r\n        uint256 deadline\r\n    ) external virtual ensure(deadline) returns (uint256[] memory amounts) {\r\n        uint256 erc20Id = wrapper.erc20ToId(erc20Contract);\r\n        require(path[0] == erc20Id, \"SpacePiratesRouter: INVALID_PATH\");\r\n        amounts = SpacePiratesDexLibrary.getAmountsIn(factory, amountOut, path);\r\n        require(\r\n            amounts[0] <= amountIn,\r\n            \"SpacePiratesRouter: EXCESSIVE_INPUT_AMOUNT\"\r\n        );\r\n        wrapper.erc20DepositTo(\r\n            erc20Contract,\r\n            amounts[0],\r\n            SpacePiratesDexLibrary.pairFor(factory, path[0], path[1])\r\n        );\r\n        _swap(amounts, path, to);\r\n    }\r\n\r\n    // **** LIBRARY FUNCTIONS ****\r\n    function quote(\r\n        uint256 amountA,\r\n        uint256 reserveA,\r\n        uint256 reserveB\r\n    ) public pure virtual returns (uint256 amountB) {\r\n        return SpacePiratesDexLibrary.quote(amountA, reserveA, reserveB);\r\n    }\r\n\r\n    function getAmountOut(\r\n        uint256 amountIn,\r\n        uint256 reserveIn,\r\n        uint256 reserveOut\r\n    ) public pure virtual returns (uint256 amountOut) {\r\n        return\r\n            SpacePiratesDexLibrary.getAmountOut(\r\n                amountIn,\r\n                reserveIn,\r\n                reserveOut\r\n            );\r\n    }\r\n\r\n    function getAmountIn(\r\n        uint256 amountOut,\r\n        uint256 reserveIn,\r\n        uint256 reserveOut\r\n    ) public pure virtual returns (uint256 amountIn) {\r\n        return\r\n            SpacePiratesDexLibrary.getAmountIn(\r\n                amountOut,\r\n                reserveIn,\r\n                reserveOut\r\n            );\r\n    }\r\n\r\n    function getAmountsOut(uint256 amountIn, uint256[] memory path)\r\n        public\r\n        view\r\n        virtual\r\n        returns (uint256[] memory amounts)\r\n    {\r\n        return SpacePiratesDexLibrary.getAmountsOut(factory, amountIn, path);\r\n    }\r\n\r\n    function getAmountsIn(uint256 amountOut, uint256[] memory path)\r\n        public\r\n        view\r\n        virtual\r\n        returns (uint256[] memory amounts)\r\n    {\r\n        return SpacePiratesDexLibrary.getAmountsIn(factory, amountOut, path);\r\n    }\r\n}\r\n",
  "sourcePath": "C:/Users/emanu/space-pirates-contracts/contracts/dex/SpacePiratesRouter.sol",
  "compiler": {
    "name": "solc",
    "version": "0.8.6+commit.0e36fba0.mod.Emscripten.clang"
  },
  "schemaVersion": "2.0.1",
  "updatedAt": "2022-07-23T23:58:53.788Z"
}